{
	"contracts/Vote.sol": {
		"Vote": {
			"abi": [
				{
					"inputs": [],
					"stateMutability": "nonpayable",
					"type": "constructor"
				},
				{
					"inputs": [
						{
							"internalType": "uint256",
							"name": "_targetID",
							"type": "uint256"
						}
					],
					"name": "addTarget",
					"outputs": [],
					"stateMutability": "nonpayable",
					"type": "function"
				},
				{
					"inputs": [
						{
							"internalType": "address",
							"name": "_voter",
							"type": "address"
						}
					],
					"name": "addVoter",
					"outputs": [],
					"stateMutability": "nonpayable",
					"type": "function"
				},
				{
					"inputs": [],
					"name": "close",
					"outputs": [],
					"stateMutability": "nonpayable",
					"type": "function"
				},
				{
					"inputs": [],
					"name": "closed",
					"outputs": [
						{
							"internalType": "bool",
							"name": "",
							"type": "bool"
						}
					],
					"stateMutability": "view",
					"type": "function"
				},
				{
					"inputs": [
						{
							"internalType": "uint256",
							"name": "i",
							"type": "uint256"
						}
					],
					"name": "getNumberOfVotes",
					"outputs": [
						{
							"internalType": "uint256",
							"name": "",
							"type": "uint256"
						}
					],
					"stateMutability": "view",
					"type": "function"
				},
				{
					"inputs": [],
					"name": "getTargetArrayLength",
					"outputs": [
						{
							"internalType": "uint256",
							"name": "",
							"type": "uint256"
						}
					],
					"stateMutability": "view",
					"type": "function"
				},
				{
					"inputs": [
						{
							"internalType": "uint256",
							"name": "i",
							"type": "uint256"
						}
					],
					"name": "getVoterAddress",
					"outputs": [
						{
							"internalType": "address",
							"name": "",
							"type": "address"
						}
					],
					"stateMutability": "view",
					"type": "function"
				},
				{
					"inputs": [],
					"name": "getVoterArrayLength",
					"outputs": [
						{
							"internalType": "uint256",
							"name": "",
							"type": "uint256"
						}
					],
					"stateMutability": "view",
					"type": "function"
				},
				{
					"inputs": [],
					"name": "open",
					"outputs": [],
					"stateMutability": "nonpayable",
					"type": "function"
				},
				{
					"inputs": [],
					"name": "owner",
					"outputs": [
						{
							"internalType": "address",
							"name": "",
							"type": "address"
						}
					],
					"stateMutability": "view",
					"type": "function"
				},
				{
					"inputs": [
						{
							"internalType": "uint256",
							"name": "_target",
							"type": "uint256"
						}
					],
					"name": "revote",
					"outputs": [],
					"stateMutability": "nonpayable",
					"type": "function"
				},
				{
					"inputs": [
						{
							"internalType": "uint256",
							"name": "",
							"type": "uint256"
						}
					],
					"name": "target",
					"outputs": [
						{
							"internalType": "uint256",
							"name": "",
							"type": "uint256"
						}
					],
					"stateMutability": "view",
					"type": "function"
				},
				{
					"inputs": [
						{
							"internalType": "uint256",
							"name": "",
							"type": "uint256"
						}
					],
					"name": "targetList",
					"outputs": [
						{
							"internalType": "uint256",
							"name": "",
							"type": "uint256"
						}
					],
					"stateMutability": "view",
					"type": "function"
				},
				{
					"inputs": [
						{
							"internalType": "uint256",
							"name": "_target",
							"type": "uint256"
						}
					],
					"name": "vote",
					"outputs": [],
					"stateMutability": "nonpayable",
					"type": "function"
				},
				{
					"inputs": [
						{
							"internalType": "address",
							"name": "",
							"type": "address"
						}
					],
					"name": "voter",
					"outputs": [
						{
							"internalType": "int256",
							"name": "",
							"type": "int256"
						}
					],
					"stateMutability": "view",
					"type": "function"
				},
				{
					"inputs": [
						{
							"internalType": "uint256",
							"name": "",
							"type": "uint256"
						}
					],
					"name": "voterList",
					"outputs": [
						{
							"internalType": "address",
							"name": "",
							"type": "address"
						}
					],
					"stateMutability": "view",
					"type": "function"
				},
				{
					"inputs": [],
					"name": "winner",
					"outputs": [
						{
							"internalType": "uint256",
							"name": "",
							"type": "uint256"
						}
					],
					"stateMutability": "view",
					"type": "function"
				}
			],
			"devdoc": {
				"kind": "dev",
				"methods": {},
				"version": 1
			},
			"evm": {
				"assembly": "    /* \"contracts/Vote.sol\":143:2668  contract Vote {... */\n  mstore(0x40, 0x80)\n    /* \"contracts/Vote.sol\":333:337  true */\n  0x01\n    /* \"contracts/Vote.sol\":312:337  bool public closed = true */\n  0x02\n  exp(0x0100, 0x00)\n  dup2\n  sload\n  dup2\n  0xff\n  mul\n  not\n  and\n  swap1\n  dup4\n  iszero\n  iszero\n  mul\n  or\n  swap1\n  sstore\n  pop\n    /* \"contracts/Vote.sol\":1164:1204  constructor() {... */\n  callvalue\n  dup1\n  iszero\n  tag_1\n  jumpi\n  0x00\n  dup1\n  revert\ntag_1:\n  pop\n    /* \"contracts/Vote.sol\":1190:1200  msg.sender */\n  caller\n    /* \"contracts/Vote.sol\":1182:1187  owner */\n  0x00\n  dup1\n    /* \"contracts/Vote.sol\":1182:1200  owner = msg.sender */\n  0x0100\n  exp\n  dup2\n  sload\n  dup2\n  0xffffffffffffffffffffffffffffffffffffffff\n  mul\n  not\n  and\n  swap1\n  dup4\n  0xffffffffffffffffffffffffffffffffffffffff\n  and\n  mul\n  or\n  swap1\n  sstore\n  pop\n    /* \"contracts/Vote.sol\":143:2668  contract Vote {... */\n  dataSize(sub_0)\n  dup1\n  dataOffset(sub_0)\n  0x00\n  codecopy\n  0x00\n  return\nstop\n\nsub_0: assembly {\n        /* \"contracts/Vote.sol\":143:2668  contract Vote {... */\n      mstore(0x40, 0x80)\n      callvalue\n      dup1\n      iszero\n      tag_1\n      jumpi\n      0x00\n      dup1\n      revert\n    tag_1:\n      pop\n      jumpi(tag_2, lt(calldatasize, 0x04))\n      shr(0xe0, calldataload(0x00))\n      dup1\n      0xaf0dbe54\n      gt\n      tag_20\n      jumpi\n      dup1\n      0xd83b2c05\n      gt\n      tag_21\n      jumpi\n      dup1\n      0xd83b2c05\n      eq\n      tag_15\n      jumpi\n      dup1\n      0xdfbf53ae\n      eq\n      tag_16\n      jumpi\n      dup1\n      0xe318e7d5\n      eq\n      tag_17\n      jumpi\n      dup1\n      0xf4ab9adf\n      eq\n      tag_18\n      jumpi\n      dup1\n      0xfcfff16f\n      eq\n      tag_19\n      jumpi\n      jump(tag_2)\n    tag_21:\n      dup1\n      0xaf0dbe54\n      eq\n      tag_11\n      jumpi\n      dup1\n      0xc29e1a56\n      eq\n      tag_12\n      jumpi\n      dup1\n      0xc71f4253\n      eq\n      tag_13\n      jumpi\n      dup1\n      0xcdcbc3c2\n      eq\n      tag_14\n      jumpi\n      jump(tag_2)\n    tag_20:\n      dup1\n      0x50e2e8af\n      gt\n      tag_22\n      jumpi\n      dup1\n      0x50e2e8af\n      eq\n      tag_7\n      jumpi\n      dup1\n      0x597e1fb5\n      eq\n      tag_8\n      jumpi\n      dup1\n      0x8da5cb5b\n      eq\n      tag_9\n      jumpi\n      dup1\n      0x9811c7c1\n      eq\n      tag_10\n      jumpi\n      jump(tag_2)\n    tag_22:\n      dup1\n      0x0121b93f\n      eq\n      tag_3\n      jumpi\n      dup1\n      0x36002617\n      eq\n      tag_4\n      jumpi\n      dup1\n      0x43d726d6\n      eq\n      tag_5\n      jumpi\n      dup1\n      0x4eda77e1\n      eq\n      tag_6\n      jumpi\n    tag_2:\n      0x00\n      dup1\n      revert\n        /* \"contracts/Vote.sol\":1829:2124  function vote(uint _target) public {... */\n    tag_3:\n      tag_23\n      0x04\n      dup1\n      calldatasize\n      sub\n      dup2\n      add\n      swap1\n      tag_24\n      swap2\n      swap1\n      tag_25\n      jump\t// in\n    tag_24:\n      tag_26\n      jump\t// in\n    tag_23:\n      stop\n        /* \"contracts/Vote.sol\":1206:1342  function addTarget(uint _targetID) public{... */\n    tag_4:\n      tag_27\n      0x04\n      dup1\n      calldatasize\n      sub\n      dup2\n      add\n      swap1\n      tag_28\n      swap2\n      swap1\n      tag_25\n      jump\t// in\n    tag_28:\n      tag_29\n      jump\t// in\n    tag_27:\n      stop\n        /* \"contracts/Vote.sol\":2510:2587  function close() public {... */\n    tag_5:\n      tag_30\n      tag_31\n      jump\t// in\n    tag_30:\n      stop\n        /* \"contracts/Vote.sol\":2169:2507  function revote(uint _target) public {... */\n    tag_6:\n      tag_32\n      0x04\n      dup1\n      calldatasize\n      sub\n      dup2\n      add\n      swap1\n      tag_33\n      swap2\n      swap1\n      tag_25\n      jump\t// in\n    tag_33:\n      tag_34\n      jump\t// in\n    tag_32:\n      stop\n        /* \"contracts/Vote.sol\":538:564  address[] public voterList */\n    tag_7:\n      tag_35\n      0x04\n      dup1\n      calldatasize\n      sub\n      dup2\n      add\n      swap1\n      tag_36\n      swap2\n      swap1\n      tag_25\n      jump\t// in\n    tag_36:\n      tag_37\n      jump\t// in\n    tag_35:\n      mload(0x40)\n      tag_38\n      swap2\n      swap1\n      tag_39\n      jump\t// in\n    tag_38:\n      mload(0x40)\n      dup1\n      swap2\n      sub\n      swap1\n      return\n        /* \"contracts/Vote.sol\":312:337  bool public closed = true */\n    tag_8:\n      tag_40\n      tag_41\n      jump\t// in\n    tag_40:\n      mload(0x40)\n      tag_42\n      swap2\n      swap1\n      tag_43\n      jump\t// in\n    tag_42:\n      mload(0x40)\n      dup1\n      swap2\n      sub\n      swap1\n      return\n        /* \"contracts/Vote.sol\":160:180  address public owner */\n    tag_9:\n      tag_44\n      tag_45\n      jump\t// in\n    tag_44:\n      mload(0x40)\n      tag_46\n      swap2\n      swap1\n      tag_39\n      jump\t// in\n    tag_46:\n      mload(0x40)\n      dup1\n      swap2\n      sub\n      swap1\n      return\n        /* \"contracts/Vote.sol\":466:501  mapping(uint => uint) public target */\n    tag_10:\n      tag_47\n      0x04\n      dup1\n      calldatasize\n      sub\n      dup2\n      add\n      swap1\n      tag_48\n      swap2\n      swap1\n      tag_25\n      jump\t// in\n    tag_48:\n      tag_49\n      jump\t// in\n    tag_47:\n      mload(0x40)\n      tag_50\n      swap2\n      swap1\n      tag_51\n      jump\t// in\n    tag_50:\n      mload(0x40)\n      dup1\n      swap2\n      sub\n      swap1\n      return\n        /* \"contracts/Vote.sol\":624:660  mapping(address => int) public voter */\n    tag_11:\n      tag_52\n      0x04\n      dup1\n      calldatasize\n      sub\n      dup2\n      add\n      swap1\n      tag_53\n      swap2\n      swap1\n      tag_54\n      jump\t// in\n    tag_53:\n      tag_55\n      jump\t// in\n    tag_52:\n      mload(0x40)\n      tag_56\n      swap2\n      swap1\n      tag_57\n      jump\t// in\n    tag_56:\n      mload(0x40)\n      dup1\n      swap2\n      sub\n      swap1\n      return\n        /* \"contracts/Vote.sol\":396:420  uint[] public targetList */\n    tag_12:\n      tag_58\n      0x04\n      dup1\n      calldatasize\n      sub\n      dup2\n      add\n      swap1\n      tag_59\n      swap2\n      swap1\n      tag_25\n      jump\t// in\n    tag_59:\n      tag_60\n      jump\t// in\n    tag_58:\n      mload(0x40)\n      tag_61\n      swap2\n      swap1\n      tag_51\n      jump\t// in\n    tag_61:\n      mload(0x40)\n      dup1\n      swap2\n      sub\n      swap1\n      return\n        /* \"contracts/Vote.sol\":1344:1427  function getNumberOfVotes(uint i) public view returns(uint){... */\n    tag_13:\n      tag_62\n      0x04\n      dup1\n      calldatasize\n      sub\n      dup2\n      add\n      swap1\n      tag_63\n      swap2\n      swap1\n      tag_25\n      jump\t// in\n    tag_63:\n      tag_64\n      jump\t// in\n    tag_62:\n      mload(0x40)\n      tag_65\n      swap2\n      swap1\n      tag_51\n      jump\t// in\n    tag_65:\n      mload(0x40)\n      dup1\n      swap2\n      sub\n      swap1\n      return\n        /* \"contracts/Vote.sol\":1648:1735  function getVoterArrayLength() public view returns(uint){... */\n    tag_14:\n      tag_66\n      tag_67\n      jump\t// in\n    tag_66:\n      mload(0x40)\n      tag_68\n      swap2\n      swap1\n      tag_51\n      jump\t// in\n    tag_68:\n      mload(0x40)\n      dup1\n      swap2\n      sub\n      swap1\n      return\n        /* \"contracts/Vote.sol\":1737:1826  function getVoterAddress(uint i) public view returns (address){... */\n    tag_15:\n      tag_69\n      0x04\n      dup1\n      calldatasize\n      sub\n      dup2\n      add\n      swap1\n      tag_70\n      swap2\n      swap1\n      tag_25\n      jump\t// in\n    tag_70:\n      tag_71\n      jump\t// in\n    tag_69:\n      mload(0x40)\n      tag_72\n      swap2\n      swap1\n      tag_39\n      jump\t// in\n    tag_72:\n      mload(0x40)\n      dup1\n      swap2\n      sub\n      swap1\n      return\n        /* \"contracts/Vote.sol\":254:272  uint public winner */\n    tag_16:\n      tag_73\n      tag_74\n      jump\t// in\n    tag_73:\n      mload(0x40)\n      tag_75\n      swap2\n      swap1\n      tag_51\n      jump\t// in\n    tag_75:\n      mload(0x40)\n      dup1\n      swap2\n      sub\n      swap1\n      return\n        /* \"contracts/Vote.sol\":1429:1518  function getTargetArrayLength() public view returns(uint){... */\n    tag_17:\n      tag_76\n      tag_77\n      jump\t// in\n    tag_76:\n      mload(0x40)\n      tag_78\n      swap2\n      swap1\n      tag_51\n      jump\t// in\n    tag_78:\n      mload(0x40)\n      dup1\n      swap2\n      sub\n      swap1\n      return\n        /* \"contracts/Vote.sol\":1521:1646  function addVoter(address _voter) public {... */\n    tag_18:\n      tag_79\n      0x04\n      dup1\n      calldatasize\n      sub\n      dup2\n      add\n      swap1\n      tag_80\n      swap2\n      swap1\n      tag_54\n      jump\t// in\n    tag_80:\n      tag_81\n      jump\t// in\n    tag_79:\n      stop\n        /* \"contracts/Vote.sol\":2589:2666  function open() public {... */\n    tag_19:\n      tag_82\n      tag_83\n      jump\t// in\n    tag_82:\n      stop\n        /* \"contracts/Vote.sol\":1829:2124  function vote(uint _target) public {... */\n    tag_26:\n        /* \"contracts/Vote.sol\":1893:1895  -1 */\n      0xffffffffffffffffffffffffffffffffffffffffffffffffffffffffffffffff\n        /* \"contracts/Vote.sol\":1872:1877  voter */\n      0x06\n        /* \"contracts/Vote.sol\":1872:1889  voter[msg.sender] */\n      0x00\n        /* \"contracts/Vote.sol\":1878:1888  msg.sender */\n      caller\n        /* \"contracts/Vote.sol\":1872:1889  voter[msg.sender] */\n      0xffffffffffffffffffffffffffffffffffffffff\n      and\n      0xffffffffffffffffffffffffffffffffffffffff\n      and\n      dup2\n      mstore\n      0x20\n      add\n      swap1\n      dup2\n      mstore\n      0x20\n      add\n      0x00\n      keccak256\n      sload\n        /* \"contracts/Vote.sol\":1872:1895  voter[msg.sender] == -1 */\n      eq\n        /* \"contracts/Vote.sol\":1868:2121  if (voter[msg.sender] == -1) {... */\n      iszero\n      tag_85\n      jumpi\n        /* \"contracts/Vote.sol\":1902:1913  bool _exist */\n      0x00\n        /* \"contracts/Vote.sol\":1923:1929  uint i */\n      dup1\n        /* \"contracts/Vote.sol\":1932:1933  0 */\n      0x00\n        /* \"contracts/Vote.sol\":1923:1933  uint i = 0 */\n      swap1\n      pop\n        /* \"contracts/Vote.sol\":1918:2031  for (uint i = 0; i < targetList.length; i++) {... */\n    tag_86:\n        /* \"contracts/Vote.sol\":1939:1949  targetList */\n      0x03\n        /* \"contracts/Vote.sol\":1939:1956  targetList.length */\n      dup1\n      sload\n      swap1\n      pop\n        /* \"contracts/Vote.sol\":1935:1936  i */\n      dup2\n        /* \"contracts/Vote.sol\":1935:1956  i < targetList.length */\n      lt\n        /* \"contracts/Vote.sol\":1918:2031  for (uint i = 0; i < targetList.length; i++) {... */\n      iszero\n      tag_87\n      jumpi\n        /* \"contracts/Vote.sol\":1990:1997  _target */\n      dup3\n        /* \"contracts/Vote.sol\":1973:1983  targetList */\n      0x03\n        /* \"contracts/Vote.sol\":1984:1985  i */\n      dup3\n        /* \"contracts/Vote.sol\":1973:1986  targetList[i] */\n      dup2\n      sload\n      dup2\n      lt\n      tag_89\n      jumpi\n      tag_90\n      tag_91\n      jump\t// in\n    tag_90:\n    tag_89:\n      swap1\n      0x00\n      mstore\n      keccak256(0x00, 0x20)\n      add\n      sload\n        /* \"contracts/Vote.sol\":1973:1997  targetList[i] == _target */\n      eq\n        /* \"contracts/Vote.sol\":1969:2026  if (targetList[i] == _target) {... */\n      iszero\n      tag_93\n      jumpi\n        /* \"contracts/Vote.sol\":2015:2019  true */\n      0x01\n        /* \"contracts/Vote.sol\":2006:2019  _exist = true */\n      swap2\n      pop\n        /* \"contracts/Vote.sol\":1969:2026  if (targetList[i] == _target) {... */\n    tag_93:\n        /* \"contracts/Vote.sol\":1958:1961  i++ */\n      dup1\n      dup1\n      tag_94\n      swap1\n      tag_95\n      jump\t// in\n    tag_94:\n      swap2\n      pop\n      pop\n        /* \"contracts/Vote.sol\":1918:2031  for (uint i = 0; i < targetList.length; i++) {... */\n      jump(tag_86)\n    tag_87:\n      pop\n        /* \"contracts/Vote.sol\":2039:2045  _exist */\n      dup1\n        /* \"contracts/Vote.sol\":2035:2117  if (_exist) {... */\n      iszero\n      tag_96\n      jumpi\n        /* \"contracts/Vote.sol\":2072:2073  1 */\n      0x01\n        /* \"contracts/Vote.sol\":2053:2059  target */\n      0x04\n        /* \"contracts/Vote.sol\":2053:2068  target[_target] */\n      0x00\n        /* \"contracts/Vote.sol\":2060:2067  _target */\n      dup5\n        /* \"contracts/Vote.sol\":2053:2068  target[_target] */\n      dup2\n      mstore\n      0x20\n      add\n      swap1\n      dup2\n      mstore\n      0x20\n      add\n      0x00\n      keccak256\n      0x00\n        /* \"contracts/Vote.sol\":2053:2073  target[_target] += 1 */\n      dup3\n      dup3\n      sload\n      tag_97\n      swap2\n      swap1\n      tag_98\n      jump\t// in\n    tag_97:\n      swap3\n      pop\n      pop\n      dup2\n      swap1\n      sstore\n      pop\n        /* \"contracts/Vote.sol\":2103:2110  _target */\n      dup2\n        /* \"contracts/Vote.sol\":2079:2084  voter */\n      0x06\n        /* \"contracts/Vote.sol\":2079:2096  voter[msg.sender] */\n      0x00\n        /* \"contracts/Vote.sol\":2085:2095  msg.sender */\n      caller\n        /* \"contracts/Vote.sol\":2079:2096  voter[msg.sender] */\n      0xffffffffffffffffffffffffffffffffffffffff\n      and\n      0xffffffffffffffffffffffffffffffffffffffff\n      and\n      dup2\n      mstore\n      0x20\n      add\n      swap1\n      dup2\n      mstore\n      0x20\n      add\n      0x00\n      keccak256\n        /* \"contracts/Vote.sol\":2079:2111  voter[msg.sender] = int(_target) */\n      dup2\n      swap1\n      sstore\n      pop\n        /* \"contracts/Vote.sol\":2035:2117  if (_exist) {... */\n    tag_96:\n        /* \"contracts/Vote.sol\":1897:2121  {... */\n      pop\n        /* \"contracts/Vote.sol\":1868:2121  if (voter[msg.sender] == -1) {... */\n    tag_85:\n        /* \"contracts/Vote.sol\":1829:2124  function vote(uint _target) public {... */\n      pop\n      jump\t// out\n        /* \"contracts/Vote.sol\":1206:1342  function addTarget(uint _targetID) public{... */\n    tag_29:\n        /* \"contracts/Vote.sol\":1273:1278  owner */\n      0x00\n      dup1\n      sload\n      swap1\n      0x0100\n      exp\n      swap1\n      div\n      0xffffffffffffffffffffffffffffffffffffffff\n      and\n        /* \"contracts/Vote.sol\":1259:1278  msg.sender == owner */\n      0xffffffffffffffffffffffffffffffffffffffff\n      and\n        /* \"contracts/Vote.sol\":1259:1269  msg.sender */\n      caller\n        /* \"contracts/Vote.sol\":1259:1278  msg.sender == owner */\n      0xffffffffffffffffffffffffffffffffffffffff\n      and\n      eq\n        /* \"contracts/Vote.sol\":1251:1279  require(msg.sender == owner) */\n      tag_100\n      jumpi\n      0x00\n      dup1\n      revert\n    tag_100:\n        /* \"contracts/Vote.sol\":1283:1293  targetList */\n      0x03\n        /* \"contracts/Vote.sol\":1299:1308  _targetID */\n      dup2\n        /* \"contracts/Vote.sol\":1283:1309  targetList.push(_targetID) */\n      swap1\n      dup1\n      0x01\n      dup2\n      sload\n      add\n      dup1\n      dup3\n      sstore\n      dup1\n      swap2\n      pop\n      pop\n      0x01\n      swap1\n      sub\n      swap1\n      0x00\n      mstore\n      keccak256(0x00, 0x20)\n      add\n      0x00\n      swap1\n      swap2\n      swap1\n      swap2\n      swap1\n      swap2\n      pop\n      sstore\n        /* \"contracts/Vote.sol\":1336:1337  0 */\n      0x00\n        /* \"contracts/Vote.sol\":1313:1319  target */\n      0x04\n        /* \"contracts/Vote.sol\":1313:1330  target[_targetID] */\n      0x00\n        /* \"contracts/Vote.sol\":1320:1329  _targetID */\n      dup4\n        /* \"contracts/Vote.sol\":1313:1330  target[_targetID] */\n      dup2\n      mstore\n      0x20\n      add\n      swap1\n      dup2\n      mstore\n      0x20\n      add\n      0x00\n      keccak256\n        /* \"contracts/Vote.sol\":1313:1338  target[_targetID]=uint(0) */\n      dup2\n      swap1\n      sstore\n      pop\n        /* \"contracts/Vote.sol\":1206:1342  function addTarget(uint _targetID) public{... */\n      pop\n      jump\t// out\n        /* \"contracts/Vote.sol\":2510:2587  function close() public {... */\n    tag_31:\n        /* \"contracts/Vote.sol\":2560:2565  owner */\n      0x00\n      dup1\n      sload\n      swap1\n      0x0100\n      exp\n      swap1\n      div\n      0xffffffffffffffffffffffffffffffffffffffff\n      and\n        /* \"contracts/Vote.sol\":2546:2565  msg.sender == owner */\n      0xffffffffffffffffffffffffffffffffffffffff\n      and\n        /* \"contracts/Vote.sol\":2546:2556  msg.sender */\n      caller\n        /* \"contracts/Vote.sol\":2546:2565  msg.sender == owner */\n      0xffffffffffffffffffffffffffffffffffffffff\n      and\n      eq\n        /* \"contracts/Vote.sol\":2538:2566  require(msg.sender == owner) */\n      tag_103\n      jumpi\n      0x00\n      dup1\n      revert\n    tag_103:\n        /* \"contracts/Vote.sol\":2579:2583  true */\n      0x01\n        /* \"contracts/Vote.sol\":2570:2576  closed */\n      0x02\n      0x00\n        /* \"contracts/Vote.sol\":2570:2583  closed = true */\n      0x0100\n      exp\n      dup2\n      sload\n      dup2\n      0xff\n      mul\n      not\n      and\n      swap1\n      dup4\n      iszero\n      iszero\n      mul\n      or\n      swap1\n      sstore\n      pop\n        /* \"contracts/Vote.sol\":2510:2587  function close() public {... */\n      jump\t// out\n        /* \"contracts/Vote.sol\":2169:2507  function revote(uint _target) public {... */\n    tag_34:\n        /* \"contracts/Vote.sol\":2235:2236  0 */\n      0x00\n        /* \"contracts/Vote.sol\":2214:2219  voter */\n      0x06\n        /* \"contracts/Vote.sol\":2214:2231  voter[msg.sender] */\n      0x00\n        /* \"contracts/Vote.sol\":2220:2230  msg.sender */\n      caller\n        /* \"contracts/Vote.sol\":2214:2231  voter[msg.sender] */\n      0xffffffffffffffffffffffffffffffffffffffff\n      and\n      0xffffffffffffffffffffffffffffffffffffffff\n      and\n      dup2\n      mstore\n      0x20\n      add\n      swap1\n      dup2\n      mstore\n      0x20\n      add\n      0x00\n      keccak256\n      sload\n        /* \"contracts/Vote.sol\":2214:2236  voter[msg.sender] != 0 */\n      eq\n        /* \"contracts/Vote.sol\":2210:2504  if (voter[msg.sender] != 0) {... */\n      tag_105\n      jumpi\n        /* \"contracts/Vote.sol\":2243:2254  bool _exist */\n      0x00\n        /* \"contracts/Vote.sol\":2264:2270  uint i */\n      dup1\n        /* \"contracts/Vote.sol\":2273:2274  0 */\n      0x00\n        /* \"contracts/Vote.sol\":2264:2274  uint i = 0 */\n      swap1\n      pop\n        /* \"contracts/Vote.sol\":2259:2372  for (uint i = 0; i < targetList.length; i++) {... */\n    tag_106:\n        /* \"contracts/Vote.sol\":2280:2290  targetList */\n      0x03\n        /* \"contracts/Vote.sol\":2280:2297  targetList.length */\n      dup1\n      sload\n      swap1\n      pop\n        /* \"contracts/Vote.sol\":2276:2277  i */\n      dup2\n        /* \"contracts/Vote.sol\":2276:2297  i < targetList.length */\n      lt\n        /* \"contracts/Vote.sol\":2259:2372  for (uint i = 0; i < targetList.length; i++) {... */\n      iszero\n      tag_107\n      jumpi\n        /* \"contracts/Vote.sol\":2331:2338  _target */\n      dup3\n        /* \"contracts/Vote.sol\":2314:2324  targetList */\n      0x03\n        /* \"contracts/Vote.sol\":2325:2326  i */\n      dup3\n        /* \"contracts/Vote.sol\":2314:2327  targetList[i] */\n      dup2\n      sload\n      dup2\n      lt\n      tag_109\n      jumpi\n      tag_110\n      tag_91\n      jump\t// in\n    tag_110:\n    tag_109:\n      swap1\n      0x00\n      mstore\n      keccak256(0x00, 0x20)\n      add\n      sload\n        /* \"contracts/Vote.sol\":2314:2338  targetList[i] == _target */\n      eq\n        /* \"contracts/Vote.sol\":2310:2367  if (targetList[i] == _target) {... */\n      iszero\n      tag_112\n      jumpi\n        /* \"contracts/Vote.sol\":2356:2360  true */\n      0x01\n        /* \"contracts/Vote.sol\":2347:2360  _exist = true */\n      swap2\n      pop\n        /* \"contracts/Vote.sol\":2310:2367  if (targetList[i] == _target) {... */\n    tag_112:\n        /* \"contracts/Vote.sol\":2299:2302  i++ */\n      dup1\n      dup1\n      tag_113\n      swap1\n      tag_95\n      jump\t// in\n    tag_113:\n      swap2\n      pop\n      pop\n        /* \"contracts/Vote.sol\":2259:2372  for (uint i = 0; i < targetList.length; i++) {... */\n      jump(tag_106)\n    tag_107:\n      pop\n        /* \"contracts/Vote.sol\":2380:2386  _exist */\n      dup1\n        /* \"contracts/Vote.sol\":2376:2500  if (_exist) {... */\n      iszero\n      tag_114\n      jumpi\n        /* \"contracts/Vote.sol\":2429:2430  1 */\n      0x01\n        /* \"contracts/Vote.sol\":2394:2400  target */\n      0x04\n        /* \"contracts/Vote.sol\":2394:2425  target[uint(voter[msg.sender])] */\n      0x00\n        /* \"contracts/Vote.sol\":2406:2411  voter */\n      0x06\n        /* \"contracts/Vote.sol\":2406:2423  voter[msg.sender] */\n      0x00\n        /* \"contracts/Vote.sol\":2412:2422  msg.sender */\n      caller\n        /* \"contracts/Vote.sol\":2406:2423  voter[msg.sender] */\n      0xffffffffffffffffffffffffffffffffffffffff\n      and\n      0xffffffffffffffffffffffffffffffffffffffff\n      and\n      dup2\n      mstore\n      0x20\n      add\n      swap1\n      dup2\n      mstore\n      0x20\n      add\n      0x00\n      keccak256\n      sload\n        /* \"contracts/Vote.sol\":2394:2425  target[uint(voter[msg.sender])] */\n      dup2\n      mstore\n      0x20\n      add\n      swap1\n      dup2\n      mstore\n      0x20\n      add\n      0x00\n      keccak256\n      0x00\n        /* \"contracts/Vote.sol\":2394:2430  target[uint(voter[msg.sender])] -= 1 */\n      dup3\n      dup3\n      sload\n      tag_115\n      swap2\n      swap1\n      tag_116\n      jump\t// in\n    tag_115:\n      swap3\n      pop\n      pop\n      dup2\n      swap1\n      sstore\n      pop\n        /* \"contracts/Vote.sol\":2455:2456  1 */\n      0x01\n        /* \"contracts/Vote.sol\":2436:2442  target */\n      0x04\n        /* \"contracts/Vote.sol\":2436:2451  target[_target] */\n      0x00\n        /* \"contracts/Vote.sol\":2443:2450  _target */\n      dup5\n        /* \"contracts/Vote.sol\":2436:2451  target[_target] */\n      dup2\n      mstore\n      0x20\n      add\n      swap1\n      dup2\n      mstore\n      0x20\n      add\n      0x00\n      keccak256\n      0x00\n        /* \"contracts/Vote.sol\":2436:2456  target[_target] += 1 */\n      dup3\n      dup3\n      sload\n      tag_117\n      swap2\n      swap1\n      tag_98\n      jump\t// in\n    tag_117:\n      swap3\n      pop\n      pop\n      dup2\n      swap1\n      sstore\n      pop\n        /* \"contracts/Vote.sol\":2486:2493  _target */\n      dup2\n        /* \"contracts/Vote.sol\":2462:2467  voter */\n      0x06\n        /* \"contracts/Vote.sol\":2462:2479  voter[msg.sender] */\n      0x00\n        /* \"contracts/Vote.sol\":2468:2478  msg.sender */\n      caller\n        /* \"contracts/Vote.sol\":2462:2479  voter[msg.sender] */\n      0xffffffffffffffffffffffffffffffffffffffff\n      and\n      0xffffffffffffffffffffffffffffffffffffffff\n      and\n      dup2\n      mstore\n      0x20\n      add\n      swap1\n      dup2\n      mstore\n      0x20\n      add\n      0x00\n      keccak256\n        /* \"contracts/Vote.sol\":2462:2494  voter[msg.sender] = int(_target) */\n      dup2\n      swap1\n      sstore\n      pop\n        /* \"contracts/Vote.sol\":2376:2500  if (_exist) {... */\n    tag_114:\n        /* \"contracts/Vote.sol\":2238:2504  {... */\n      pop\n        /* \"contracts/Vote.sol\":2210:2504  if (voter[msg.sender] != 0) {... */\n    tag_105:\n        /* \"contracts/Vote.sol\":2169:2507  function revote(uint _target) public {... */\n      pop\n      jump\t// out\n        /* \"contracts/Vote.sol\":538:564  address[] public voterList */\n    tag_37:\n      0x05\n      dup2\n      dup2\n      sload\n      dup2\n      lt\n      tag_118\n      jumpi\n      0x00\n      dup1\n      revert\n    tag_118:\n      swap1\n      0x00\n      mstore\n      keccak256(0x00, 0x20)\n      add\n      0x00\n      swap2\n      pop\n      sload\n      swap1\n      0x0100\n      exp\n      swap1\n      div\n      0xffffffffffffffffffffffffffffffffffffffff\n      and\n      dup2\n      jump\t// out\n        /* \"contracts/Vote.sol\":312:337  bool public closed = true */\n    tag_41:\n      0x02\n      0x00\n      swap1\n      sload\n      swap1\n      0x0100\n      exp\n      swap1\n      div\n      0xff\n      and\n      dup2\n      jump\t// out\n        /* \"contracts/Vote.sol\":160:180  address public owner */\n    tag_45:\n      0x00\n      dup1\n      sload\n      swap1\n      0x0100\n      exp\n      swap1\n      div\n      0xffffffffffffffffffffffffffffffffffffffff\n      and\n      dup2\n      jump\t// out\n        /* \"contracts/Vote.sol\":466:501  mapping(uint => uint) public target */\n    tag_49:\n      mstore(0x20, 0x04)\n      dup1\n      0x00\n      mstore\n      keccak256(0x00, 0x40)\n      0x00\n      swap2\n      pop\n      swap1\n      pop\n      sload\n      dup2\n      jump\t// out\n        /* \"contracts/Vote.sol\":624:660  mapping(address => int) public voter */\n    tag_55:\n      mstore(0x20, 0x06)\n      dup1\n      0x00\n      mstore\n      keccak256(0x00, 0x40)\n      0x00\n      swap2\n      pop\n      swap1\n      pop\n      sload\n      dup2\n      jump\t// out\n        /* \"contracts/Vote.sol\":396:420  uint[] public targetList */\n    tag_60:\n      0x03\n      dup2\n      dup2\n      sload\n      dup2\n      lt\n      tag_120\n      jumpi\n      0x00\n      dup1\n      revert\n    tag_120:\n      swap1\n      0x00\n      mstore\n      keccak256(0x00, 0x20)\n      add\n      0x00\n      swap2\n      pop\n      swap1\n      pop\n      sload\n      dup2\n      jump\t// out\n        /* \"contracts/Vote.sol\":1344:1427  function getNumberOfVotes(uint i) public view returns(uint){... */\n    tag_64:\n        /* \"contracts/Vote.sol\":1398:1402  uint */\n      0x00\n        /* \"contracts/Vote.sol\":1414:1420  target */\n      0x04\n        /* \"contracts/Vote.sol\":1414:1423  target[i] */\n      0x00\n        /* \"contracts/Vote.sol\":1421:1422  i */\n      dup4\n        /* \"contracts/Vote.sol\":1414:1423  target[i] */\n      dup2\n      mstore\n      0x20\n      add\n      swap1\n      dup2\n      mstore\n      0x20\n      add\n      0x00\n      keccak256\n      sload\n        /* \"contracts/Vote.sol\":1407:1423  return target[i] */\n      swap1\n      pop\n        /* \"contracts/Vote.sol\":1344:1427  function getNumberOfVotes(uint i) public view returns(uint){... */\n      swap2\n      swap1\n      pop\n      jump\t// out\n        /* \"contracts/Vote.sol\":1648:1735  function getVoterArrayLength() public view returns(uint){... */\n    tag_67:\n        /* \"contracts/Vote.sol\":1699:1703  uint */\n      0x00\n        /* \"contracts/Vote.sol\":1715:1724  voterList */\n      0x05\n        /* \"contracts/Vote.sol\":1715:1731  voterList.length */\n      dup1\n      sload\n      swap1\n      pop\n        /* \"contracts/Vote.sol\":1708:1731  return voterList.length */\n      swap1\n      pop\n        /* \"contracts/Vote.sol\":1648:1735  function getVoterArrayLength() public view returns(uint){... */\n      swap1\n      jump\t// out\n        /* \"contracts/Vote.sol\":1737:1826  function getVoterAddress(uint i) public view returns (address){... */\n    tag_71:\n        /* \"contracts/Vote.sol\":1791:1798  address */\n      0x00\n        /* \"contracts/Vote.sol\":1810:1819  voterList */\n      0x05\n        /* \"contracts/Vote.sol\":1820:1821  i */\n      dup3\n        /* \"contracts/Vote.sol\":1810:1822  voterList[i] */\n      dup2\n      sload\n      dup2\n      lt\n      tag_125\n      jumpi\n      tag_126\n      tag_91\n      jump\t// in\n    tag_126:\n    tag_125:\n      swap1\n      0x00\n      mstore\n      keccak256(0x00, 0x20)\n      add\n      0x00\n      swap1\n      sload\n      swap1\n      0x0100\n      exp\n      swap1\n      div\n      0xffffffffffffffffffffffffffffffffffffffff\n      and\n        /* \"contracts/Vote.sol\":1803:1822  return voterList[i] */\n      swap1\n      pop\n        /* \"contracts/Vote.sol\":1737:1826  function getVoterAddress(uint i) public view returns (address){... */\n      swap2\n      swap1\n      pop\n      jump\t// out\n        /* \"contracts/Vote.sol\":254:272  uint public winner */\n    tag_74:\n      sload(0x01)\n      dup2\n      jump\t// out\n        /* \"contracts/Vote.sol\":1429:1518  function getTargetArrayLength() public view returns(uint){... */\n    tag_77:\n        /* \"contracts/Vote.sol\":1481:1485  uint */\n      0x00\n        /* \"contracts/Vote.sol\":1497:1507  targetList */\n      0x03\n        /* \"contracts/Vote.sol\":1497:1514  targetList.length */\n      dup1\n      sload\n      swap1\n      pop\n        /* \"contracts/Vote.sol\":1490:1514  return targetList.length */\n      swap1\n      pop\n        /* \"contracts/Vote.sol\":1429:1518  function getTargetArrayLength() public view returns(uint){... */\n      swap1\n      jump\t// out\n        /* \"contracts/Vote.sol\":1521:1646  function addVoter(address _voter) public {... */\n    tag_81:\n        /* \"contracts/Vote.sol\":1588:1593  owner */\n      0x00\n      dup1\n      sload\n      swap1\n      0x0100\n      exp\n      swap1\n      div\n      0xffffffffffffffffffffffffffffffffffffffff\n      and\n        /* \"contracts/Vote.sol\":1574:1593  msg.sender == owner */\n      0xffffffffffffffffffffffffffffffffffffffff\n      and\n        /* \"contracts/Vote.sol\":1574:1584  msg.sender */\n      caller\n        /* \"contracts/Vote.sol\":1574:1593  msg.sender == owner */\n      0xffffffffffffffffffffffffffffffffffffffff\n      and\n      eq\n        /* \"contracts/Vote.sol\":1566:1594  require(msg.sender == owner) */\n      tag_130\n      jumpi\n      0x00\n      dup1\n      revert\n    tag_130:\n        /* \"contracts/Vote.sol\":1599:1608  voterList */\n      0x05\n        /* \"contracts/Vote.sol\":1614:1620  _voter */\n      dup2\n        /* \"contracts/Vote.sol\":1599:1621  voterList.push(_voter) */\n      swap1\n      dup1\n      0x01\n      dup2\n      sload\n      add\n      dup1\n      dup3\n      sstore\n      dup1\n      swap2\n      pop\n      pop\n      0x01\n      swap1\n      sub\n      swap1\n      0x00\n      mstore\n      keccak256(0x00, 0x20)\n      add\n      0x00\n      swap1\n      swap2\n      swap1\n      swap2\n      swap1\n      swap2\n      0x0100\n      exp\n      dup2\n      sload\n      dup2\n      0xffffffffffffffffffffffffffffffffffffffff\n      mul\n      not\n      and\n      swap1\n      dup4\n      0xffffffffffffffffffffffffffffffffffffffff\n      and\n      mul\n      or\n      swap1\n      sstore\n      pop\n        /* \"contracts/Vote.sol\":1640:1642  -1 */\n      0xffffffffffffffffffffffffffffffffffffffffffffffffffffffffffffffff\n        /* \"contracts/Vote.sol\":1626:1631  voter */\n      0x06\n        /* \"contracts/Vote.sol\":1626:1639  voter[_voter] */\n      0x00\n        /* \"contracts/Vote.sol\":1632:1638  _voter */\n      dup4\n        /* \"contracts/Vote.sol\":1626:1639  voter[_voter] */\n      0xffffffffffffffffffffffffffffffffffffffff\n      and\n      0xffffffffffffffffffffffffffffffffffffffff\n      and\n      dup2\n      mstore\n      0x20\n      add\n      swap1\n      dup2\n      mstore\n      0x20\n      add\n      0x00\n      keccak256\n        /* \"contracts/Vote.sol\":1626:1642  voter[_voter]=-1 */\n      dup2\n      swap1\n      sstore\n      pop\n        /* \"contracts/Vote.sol\":1521:1646  function addVoter(address _voter) public {... */\n      pop\n      jump\t// out\n        /* \"contracts/Vote.sol\":2589:2666  function open() public {... */\n    tag_83:\n        /* \"contracts/Vote.sol\":2638:2643  owner */\n      0x00\n      dup1\n      sload\n      swap1\n      0x0100\n      exp\n      swap1\n      div\n      0xffffffffffffffffffffffffffffffffffffffff\n      and\n        /* \"contracts/Vote.sol\":2624:2643  msg.sender == owner */\n      0xffffffffffffffffffffffffffffffffffffffff\n      and\n        /* \"contracts/Vote.sol\":2624:2634  msg.sender */\n      caller\n        /* \"contracts/Vote.sol\":2624:2643  msg.sender == owner */\n      0xffffffffffffffffffffffffffffffffffffffff\n      and\n      eq\n        /* \"contracts/Vote.sol\":2616:2644  require(msg.sender == owner) */\n      tag_133\n      jumpi\n      0x00\n      dup1\n      revert\n    tag_133:\n        /* \"contracts/Vote.sol\":2657:2662  false */\n      0x00\n        /* \"contracts/Vote.sol\":2648:2654  closed */\n      0x02\n      0x00\n        /* \"contracts/Vote.sol\":2648:2662  closed = false */\n      0x0100\n      exp\n      dup2\n      sload\n      dup2\n      0xff\n      mul\n      not\n      and\n      swap1\n      dup4\n      iszero\n      iszero\n      mul\n      or\n      swap1\n      sstore\n      pop\n        /* \"contracts/Vote.sol\":2589:2666  function open() public {... */\n      jump\t// out\n        /* \"#utility.yul\":7:146   */\n    tag_135:\n        /* \"#utility.yul\":53:58   */\n      0x00\n        /* \"#utility.yul\":91:97   */\n      dup2\n        /* \"#utility.yul\":78:98   */\n      calldataload\n        /* \"#utility.yul\":69:98   */\n      swap1\n      pop\n        /* \"#utility.yul\":107:140   */\n      tag_137\n        /* \"#utility.yul\":134:139   */\n      dup2\n        /* \"#utility.yul\":107:140   */\n      tag_138\n      jump\t// in\n    tag_137:\n        /* \"#utility.yul\":7:146   */\n      swap3\n      swap2\n      pop\n      pop\n      jump\t// out\n        /* \"#utility.yul\":152:291   */\n    tag_139:\n        /* \"#utility.yul\":198:203   */\n      0x00\n        /* \"#utility.yul\":236:242   */\n      dup2\n        /* \"#utility.yul\":223:243   */\n      calldataload\n        /* \"#utility.yul\":214:243   */\n      swap1\n      pop\n        /* \"#utility.yul\":252:285   */\n      tag_141\n        /* \"#utility.yul\":279:284   */\n      dup2\n        /* \"#utility.yul\":252:285   */\n      tag_142\n      jump\t// in\n    tag_141:\n        /* \"#utility.yul\":152:291   */\n      swap3\n      swap2\n      pop\n      pop\n      jump\t// out\n        /* \"#utility.yul\":297:626   */\n    tag_54:\n        /* \"#utility.yul\":356:362   */\n      0x00\n        /* \"#utility.yul\":405:407   */\n      0x20\n        /* \"#utility.yul\":393:402   */\n      dup3\n        /* \"#utility.yul\":384:391   */\n      dup5\n        /* \"#utility.yul\":380:403   */\n      sub\n        /* \"#utility.yul\":376:408   */\n      slt\n        /* \"#utility.yul\":373:492   */\n      iszero\n      tag_144\n      jumpi\n        /* \"#utility.yul\":411:490   */\n      tag_145\n      tag_146\n      jump\t// in\n    tag_145:\n        /* \"#utility.yul\":373:492   */\n    tag_144:\n        /* \"#utility.yul\":531:532   */\n      0x00\n        /* \"#utility.yul\":556:609   */\n      tag_147\n        /* \"#utility.yul\":601:608   */\n      dup5\n        /* \"#utility.yul\":592:598   */\n      dup3\n        /* \"#utility.yul\":581:590   */\n      dup6\n        /* \"#utility.yul\":577:599   */\n      add\n        /* \"#utility.yul\":556:609   */\n      tag_135\n      jump\t// in\n    tag_147:\n        /* \"#utility.yul\":546:609   */\n      swap2\n      pop\n        /* \"#utility.yul\":502:619   */\n      pop\n        /* \"#utility.yul\":297:626   */\n      swap3\n      swap2\n      pop\n      pop\n      jump\t// out\n        /* \"#utility.yul\":632:961   */\n    tag_25:\n        /* \"#utility.yul\":691:697   */\n      0x00\n        /* \"#utility.yul\":740:742   */\n      0x20\n        /* \"#utility.yul\":728:737   */\n      dup3\n        /* \"#utility.yul\":719:726   */\n      dup5\n        /* \"#utility.yul\":715:738   */\n      sub\n        /* \"#utility.yul\":711:743   */\n      slt\n        /* \"#utility.yul\":708:827   */\n      iszero\n      tag_149\n      jumpi\n        /* \"#utility.yul\":746:825   */\n      tag_150\n      tag_146\n      jump\t// in\n    tag_150:\n        /* \"#utility.yul\":708:827   */\n    tag_149:\n        /* \"#utility.yul\":866:867   */\n      0x00\n        /* \"#utility.yul\":891:944   */\n      tag_151\n        /* \"#utility.yul\":936:943   */\n      dup5\n        /* \"#utility.yul\":927:933   */\n      dup3\n        /* \"#utility.yul\":916:925   */\n      dup6\n        /* \"#utility.yul\":912:934   */\n      add\n        /* \"#utility.yul\":891:944   */\n      tag_139\n      jump\t// in\n    tag_151:\n        /* \"#utility.yul\":881:944   */\n      swap2\n      pop\n        /* \"#utility.yul\":837:954   */\n      pop\n        /* \"#utility.yul\":632:961   */\n      swap3\n      swap2\n      pop\n      pop\n      jump\t// out\n        /* \"#utility.yul\":967:1085   */\n    tag_152:\n        /* \"#utility.yul\":1054:1078   */\n      tag_154\n        /* \"#utility.yul\":1072:1077   */\n      dup2\n        /* \"#utility.yul\":1054:1078   */\n      tag_155\n      jump\t// in\n    tag_154:\n        /* \"#utility.yul\":1049:1052   */\n      dup3\n        /* \"#utility.yul\":1042:1079   */\n      mstore\n        /* \"#utility.yul\":967:1085   */\n      pop\n      pop\n      jump\t// out\n        /* \"#utility.yul\":1091:1200   */\n    tag_156:\n        /* \"#utility.yul\":1172:1193   */\n      tag_158\n        /* \"#utility.yul\":1187:1192   */\n      dup2\n        /* \"#utility.yul\":1172:1193   */\n      tag_159\n      jump\t// in\n    tag_158:\n        /* \"#utility.yul\":1167:1170   */\n      dup3\n        /* \"#utility.yul\":1160:1194   */\n      mstore\n        /* \"#utility.yul\":1091:1200   */\n      pop\n      pop\n      jump\t// out\n        /* \"#utility.yul\":1206:1321   */\n    tag_160:\n        /* \"#utility.yul\":1291:1314   */\n      tag_162\n        /* \"#utility.yul\":1308:1313   */\n      dup2\n        /* \"#utility.yul\":1291:1314   */\n      tag_163\n      jump\t// in\n    tag_162:\n        /* \"#utility.yul\":1286:1289   */\n      dup3\n        /* \"#utility.yul\":1279:1315   */\n      mstore\n        /* \"#utility.yul\":1206:1321   */\n      pop\n      pop\n      jump\t// out\n        /* \"#utility.yul\":1327:1445   */\n    tag_164:\n        /* \"#utility.yul\":1414:1438   */\n      tag_166\n        /* \"#utility.yul\":1432:1437   */\n      dup2\n        /* \"#utility.yul\":1414:1438   */\n      tag_167\n      jump\t// in\n    tag_166:\n        /* \"#utility.yul\":1409:1412   */\n      dup3\n        /* \"#utility.yul\":1402:1439   */\n      mstore\n        /* \"#utility.yul\":1327:1445   */\n      pop\n      pop\n      jump\t// out\n        /* \"#utility.yul\":1451:1673   */\n    tag_39:\n        /* \"#utility.yul\":1544:1548   */\n      0x00\n        /* \"#utility.yul\":1582:1584   */\n      0x20\n        /* \"#utility.yul\":1571:1580   */\n      dup3\n        /* \"#utility.yul\":1567:1585   */\n      add\n        /* \"#utility.yul\":1559:1585   */\n      swap1\n      pop\n        /* \"#utility.yul\":1595:1666   */\n      tag_169\n        /* \"#utility.yul\":1663:1664   */\n      0x00\n        /* \"#utility.yul\":1652:1661   */\n      dup4\n        /* \"#utility.yul\":1648:1665   */\n      add\n        /* \"#utility.yul\":1639:1645   */\n      dup5\n        /* \"#utility.yul\":1595:1666   */\n      tag_152\n      jump\t// in\n    tag_169:\n        /* \"#utility.yul\":1451:1673   */\n      swap3\n      swap2\n      pop\n      pop\n      jump\t// out\n        /* \"#utility.yul\":1679:1889   */\n    tag_43:\n        /* \"#utility.yul\":1766:1770   */\n      0x00\n        /* \"#utility.yul\":1804:1806   */\n      0x20\n        /* \"#utility.yul\":1793:1802   */\n      dup3\n        /* \"#utility.yul\":1789:1807   */\n      add\n        /* \"#utility.yul\":1781:1807   */\n      swap1\n      pop\n        /* \"#utility.yul\":1817:1882   */\n      tag_171\n        /* \"#utility.yul\":1879:1880   */\n      0x00\n        /* \"#utility.yul\":1868:1877   */\n      dup4\n        /* \"#utility.yul\":1864:1881   */\n      add\n        /* \"#utility.yul\":1855:1861   */\n      dup5\n        /* \"#utility.yul\":1817:1882   */\n      tag_156\n      jump\t// in\n    tag_171:\n        /* \"#utility.yul\":1679:1889   */\n      swap3\n      swap2\n      pop\n      pop\n      jump\t// out\n        /* \"#utility.yul\":1895:2113   */\n    tag_57:\n        /* \"#utility.yul\":1986:1990   */\n      0x00\n        /* \"#utility.yul\":2024:2026   */\n      0x20\n        /* \"#utility.yul\":2013:2022   */\n      dup3\n        /* \"#utility.yul\":2009:2027   */\n      add\n        /* \"#utility.yul\":2001:2027   */\n      swap1\n      pop\n        /* \"#utility.yul\":2037:2106   */\n      tag_173\n        /* \"#utility.yul\":2103:2104   */\n      0x00\n        /* \"#utility.yul\":2092:2101   */\n      dup4\n        /* \"#utility.yul\":2088:2105   */\n      add\n        /* \"#utility.yul\":2079:2085   */\n      dup5\n        /* \"#utility.yul\":2037:2106   */\n      tag_160\n      jump\t// in\n    tag_173:\n        /* \"#utility.yul\":1895:2113   */\n      swap3\n      swap2\n      pop\n      pop\n      jump\t// out\n        /* \"#utility.yul\":2119:2341   */\n    tag_51:\n        /* \"#utility.yul\":2212:2216   */\n      0x00\n        /* \"#utility.yul\":2250:2252   */\n      0x20\n        /* \"#utility.yul\":2239:2248   */\n      dup3\n        /* \"#utility.yul\":2235:2253   */\n      add\n        /* \"#utility.yul\":2227:2253   */\n      swap1\n      pop\n        /* \"#utility.yul\":2263:2334   */\n      tag_175\n        /* \"#utility.yul\":2331:2332   */\n      0x00\n        /* \"#utility.yul\":2320:2329   */\n      dup4\n        /* \"#utility.yul\":2316:2333   */\n      add\n        /* \"#utility.yul\":2307:2313   */\n      dup5\n        /* \"#utility.yul\":2263:2334   */\n      tag_164\n      jump\t// in\n    tag_175:\n        /* \"#utility.yul\":2119:2341   */\n      swap3\n      swap2\n      pop\n      pop\n      jump\t// out\n        /* \"#utility.yul\":2428:2733   */\n    tag_98:\n        /* \"#utility.yul\":2468:2471   */\n      0x00\n        /* \"#utility.yul\":2487:2507   */\n      tag_179\n        /* \"#utility.yul\":2505:2506   */\n      dup3\n        /* \"#utility.yul\":2487:2507   */\n      tag_167\n      jump\t// in\n    tag_179:\n        /* \"#utility.yul\":2482:2507   */\n      swap2\n      pop\n        /* \"#utility.yul\":2521:2541   */\n      tag_180\n        /* \"#utility.yul\":2539:2540   */\n      dup4\n        /* \"#utility.yul\":2521:2541   */\n      tag_167\n      jump\t// in\n    tag_180:\n        /* \"#utility.yul\":2516:2541   */\n      swap3\n      pop\n        /* \"#utility.yul\":2675:2676   */\n      dup3\n        /* \"#utility.yul\":2607:2673   */\n      0xffffffffffffffffffffffffffffffffffffffffffffffffffffffffffffffff\n        /* \"#utility.yul\":2603:2677   */\n      sub\n        /* \"#utility.yul\":2600:2601   */\n      dup3\n        /* \"#utility.yul\":2597:2678   */\n      gt\n        /* \"#utility.yul\":2594:2701   */\n      iszero\n      tag_181\n      jumpi\n        /* \"#utility.yul\":2681:2699   */\n      tag_182\n      tag_183\n      jump\t// in\n    tag_182:\n        /* \"#utility.yul\":2594:2701   */\n    tag_181:\n        /* \"#utility.yul\":2725:2726   */\n      dup3\n        /* \"#utility.yul\":2722:2723   */\n      dup3\n        /* \"#utility.yul\":2718:2727   */\n      add\n        /* \"#utility.yul\":2711:2727   */\n      swap1\n      pop\n        /* \"#utility.yul\":2428:2733   */\n      swap3\n      swap2\n      pop\n      pop\n      jump\t// out\n        /* \"#utility.yul\":2739:2930   */\n    tag_116:\n        /* \"#utility.yul\":2779:2783   */\n      0x00\n        /* \"#utility.yul\":2799:2819   */\n      tag_185\n        /* \"#utility.yul\":2817:2818   */\n      dup3\n        /* \"#utility.yul\":2799:2819   */\n      tag_167\n      jump\t// in\n    tag_185:\n        /* \"#utility.yul\":2794:2819   */\n      swap2\n      pop\n        /* \"#utility.yul\":2833:2853   */\n      tag_186\n        /* \"#utility.yul\":2851:2852   */\n      dup4\n        /* \"#utility.yul\":2833:2853   */\n      tag_167\n      jump\t// in\n    tag_186:\n        /* \"#utility.yul\":2828:2853   */\n      swap3\n      pop\n        /* \"#utility.yul\":2872:2873   */\n      dup3\n        /* \"#utility.yul\":2869:2870   */\n      dup3\n        /* \"#utility.yul\":2866:2874   */\n      lt\n        /* \"#utility.yul\":2863:2897   */\n      iszero\n      tag_187\n      jumpi\n        /* \"#utility.yul\":2877:2895   */\n      tag_188\n      tag_183\n      jump\t// in\n    tag_188:\n        /* \"#utility.yul\":2863:2897   */\n    tag_187:\n        /* \"#utility.yul\":2922:2923   */\n      dup3\n        /* \"#utility.yul\":2919:2920   */\n      dup3\n        /* \"#utility.yul\":2915:2924   */\n      sub\n        /* \"#utility.yul\":2907:2924   */\n      swap1\n      pop\n        /* \"#utility.yul\":2739:2930   */\n      swap3\n      swap2\n      pop\n      pop\n      jump\t// out\n        /* \"#utility.yul\":2936:3032   */\n    tag_155:\n        /* \"#utility.yul\":2973:2980   */\n      0x00\n        /* \"#utility.yul\":3002:3026   */\n      tag_190\n        /* \"#utility.yul\":3020:3025   */\n      dup3\n        /* \"#utility.yul\":3002:3026   */\n      tag_191\n      jump\t// in\n    tag_190:\n        /* \"#utility.yul\":2991:3026   */\n      swap1\n      pop\n        /* \"#utility.yul\":2936:3032   */\n      swap2\n      swap1\n      pop\n      jump\t// out\n        /* \"#utility.yul\":3038:3128   */\n    tag_159:\n        /* \"#utility.yul\":3072:3079   */\n      0x00\n        /* \"#utility.yul\":3115:3120   */\n      dup2\n        /* \"#utility.yul\":3108:3121   */\n      iszero\n        /* \"#utility.yul\":3101:3122   */\n      iszero\n        /* \"#utility.yul\":3090:3122   */\n      swap1\n      pop\n        /* \"#utility.yul\":3038:3128   */\n      swap2\n      swap1\n      pop\n      jump\t// out\n        /* \"#utility.yul\":3134:3210   */\n    tag_163:\n        /* \"#utility.yul\":3170:3177   */\n      0x00\n        /* \"#utility.yul\":3199:3204   */\n      dup2\n        /* \"#utility.yul\":3188:3204   */\n      swap1\n      pop\n        /* \"#utility.yul\":3134:3210   */\n      swap2\n      swap1\n      pop\n      jump\t// out\n        /* \"#utility.yul\":3216:3342   */\n    tag_191:\n        /* \"#utility.yul\":3253:3260   */\n      0x00\n        /* \"#utility.yul\":3293:3335   */\n      0xffffffffffffffffffffffffffffffffffffffff\n        /* \"#utility.yul\":3286:3291   */\n      dup3\n        /* \"#utility.yul\":3282:3336   */\n      and\n        /* \"#utility.yul\":3271:3336   */\n      swap1\n      pop\n        /* \"#utility.yul\":3216:3342   */\n      swap2\n      swap1\n      pop\n      jump\t// out\n        /* \"#utility.yul\":3348:3425   */\n    tag_167:\n        /* \"#utility.yul\":3385:3392   */\n      0x00\n        /* \"#utility.yul\":3414:3419   */\n      dup2\n        /* \"#utility.yul\":3403:3419   */\n      swap1\n      pop\n        /* \"#utility.yul\":3348:3425   */\n      swap2\n      swap1\n      pop\n      jump\t// out\n        /* \"#utility.yul\":3431:3664   */\n    tag_95:\n        /* \"#utility.yul\":3470:3473   */\n      0x00\n        /* \"#utility.yul\":3493:3517   */\n      tag_197\n        /* \"#utility.yul\":3511:3516   */\n      dup3\n        /* \"#utility.yul\":3493:3517   */\n      tag_167\n      jump\t// in\n    tag_197:\n        /* \"#utility.yul\":3484:3517   */\n      swap2\n      pop\n        /* \"#utility.yul\":3539:3605   */\n      0xffffffffffffffffffffffffffffffffffffffffffffffffffffffffffffffff\n        /* \"#utility.yul\":3532:3537   */\n      dup3\n        /* \"#utility.yul\":3529:3606   */\n      eq\n        /* \"#utility.yul\":3526:3629   */\n      iszero\n      tag_198\n      jumpi\n        /* \"#utility.yul\":3609:3627   */\n      tag_199\n      tag_183\n      jump\t// in\n    tag_199:\n        /* \"#utility.yul\":3526:3629   */\n    tag_198:\n        /* \"#utility.yul\":3656:3657   */\n      0x01\n        /* \"#utility.yul\":3649:3654   */\n      dup3\n        /* \"#utility.yul\":3645:3658   */\n      add\n        /* \"#utility.yul\":3638:3658   */\n      swap1\n      pop\n        /* \"#utility.yul\":3431:3664   */\n      swap2\n      swap1\n      pop\n      jump\t// out\n        /* \"#utility.yul\":3670:3850   */\n    tag_183:\n        /* \"#utility.yul\":3718:3795   */\n      0x4e487b7100000000000000000000000000000000000000000000000000000000\n        /* \"#utility.yul\":3715:3716   */\n      0x00\n        /* \"#utility.yul\":3708:3796   */\n      mstore\n        /* \"#utility.yul\":3815:3819   */\n      0x11\n        /* \"#utility.yul\":3812:3813   */\n      0x04\n        /* \"#utility.yul\":3805:3820   */\n      mstore\n        /* \"#utility.yul\":3839:3843   */\n      0x24\n        /* \"#utility.yul\":3836:3837   */\n      0x00\n        /* \"#utility.yul\":3829:3844   */\n      revert\n        /* \"#utility.yul\":3856:4036   */\n    tag_91:\n        /* \"#utility.yul\":3904:3981   */\n      0x4e487b7100000000000000000000000000000000000000000000000000000000\n        /* \"#utility.yul\":3901:3902   */\n      0x00\n        /* \"#utility.yul\":3894:3982   */\n      mstore\n        /* \"#utility.yul\":4001:4005   */\n      0x32\n        /* \"#utility.yul\":3998:3999   */\n      0x04\n        /* \"#utility.yul\":3991:4006   */\n      mstore\n        /* \"#utility.yul\":4025:4029   */\n      0x24\n        /* \"#utility.yul\":4022:4023   */\n      0x00\n        /* \"#utility.yul\":4015:4030   */\n      revert\n        /* \"#utility.yul\":4165:4282   */\n    tag_146:\n        /* \"#utility.yul\":4274:4275   */\n      0x00\n        /* \"#utility.yul\":4271:4272   */\n      dup1\n        /* \"#utility.yul\":4264:4276   */\n      revert\n        /* \"#utility.yul\":4288:4410   */\n    tag_138:\n        /* \"#utility.yul\":4361:4385   */\n      tag_206\n        /* \"#utility.yul\":4379:4384   */\n      dup2\n        /* \"#utility.yul\":4361:4385   */\n      tag_155\n      jump\t// in\n    tag_206:\n        /* \"#utility.yul\":4354:4359   */\n      dup2\n        /* \"#utility.yul\":4351:4386   */\n      eq\n        /* \"#utility.yul\":4341:4404   */\n      tag_207\n      jumpi\n        /* \"#utility.yul\":4400:4401   */\n      0x00\n        /* \"#utility.yul\":4397:4398   */\n      dup1\n        /* \"#utility.yul\":4390:4402   */\n      revert\n        /* \"#utility.yul\":4341:4404   */\n    tag_207:\n        /* \"#utility.yul\":4288:4410   */\n      pop\n      jump\t// out\n        /* \"#utility.yul\":4416:4538   */\n    tag_142:\n        /* \"#utility.yul\":4489:4513   */\n      tag_209\n        /* \"#utility.yul\":4507:4512   */\n      dup2\n        /* \"#utility.yul\":4489:4513   */\n      tag_167\n      jump\t// in\n    tag_209:\n        /* \"#utility.yul\":4482:4487   */\n      dup2\n        /* \"#utility.yul\":4479:4514   */\n      eq\n        /* \"#utility.yul\":4469:4532   */\n      tag_210\n      jumpi\n        /* \"#utility.yul\":4528:4529   */\n      0x00\n        /* \"#utility.yul\":4525:4526   */\n      dup1\n        /* \"#utility.yul\":4518:4530   */\n      revert\n        /* \"#utility.yul\":4469:4532   */\n    tag_210:\n        /* \"#utility.yul\":4416:4538   */\n      pop\n      jump\t// out\n\n    auxdata: 0xa264697066735822122063c93ef0bd276eaf590bd313dc12d4c15472e2753b964c62a4c829baecfb541b64736f6c63430008070033\n}\n",
				"bytecode": {
					"linkReferences": {},
					"object": "60806040526001600260006101000a81548160ff02191690831515021790555034801561002b57600080fd5b50336000806101000a81548173ffffffffffffffffffffffffffffffffffffffff021916908373ffffffffffffffffffffffffffffffffffffffff160217905550610d108061007b6000396000f3fe608060405234801561001057600080fd5b506004361061010b5760003560e01c8063af0dbe54116100a2578063d83b2c0511610071578063d83b2c05146102b8578063dfbf53ae146102e8578063e318e7d514610306578063f4ab9adf14610324578063fcfff16f146103405761010b565b8063af0dbe541461020a578063c29e1a561461023a578063c71f42531461026a578063cdcbc3c21461029a5761010b565b806350e2e8af116100de57806350e2e8af1461016e578063597e1fb51461019e5780638da5cb5b146101bc5780639811c7c1146101da5761010b565b80630121b93f14610110578063360026171461012c57806343d726d6146101485780634eda77e114610152575b600080fd5b61012a60048036038101906101259190610a4f565b61034a565b005b61014660048036038101906101419190610a4f565b610480565b005b61015061051d565b005b61016c60048036038101906101679190610a4f565b610592565b005b61018860048036038101906101839190610a4f565b610712565b6040516101959190610ab8565b60405180910390f35b6101a6610751565b6040516101b39190610ad3565b60405180910390f35b6101c4610764565b6040516101d19190610ab8565b60405180910390f35b6101f460048036038101906101ef9190610a4f565b610788565b6040516102019190610b09565b60405180910390f35b610224600480360381019061021f9190610a22565b6107a0565b6040516102319190610aee565b60405180910390f35b610254600480360381019061024f9190610a4f565b6107b8565b6040516102619190610b09565b60405180910390f35b610284600480360381019061027f9190610a4f565b6107dc565b6040516102919190610b09565b60405180910390f35b6102a26107f9565b6040516102af9190610b09565b60405180910390f35b6102d260048036038101906102cd9190610a4f565b610806565b6040516102df9190610ab8565b60405180910390f35b6102f061084e565b6040516102fd9190610b09565b60405180910390f35b61030e610854565b60405161031b9190610b09565b60405180910390f35b61033e60048036038101906103399190610a22565b610861565b005b610348610983565b005b7fffffffffffffffffffffffffffffffffffffffffffffffffffffffffffffffff600660003373ffffffffffffffffffffffffffffffffffffffff1673ffffffffffffffffffffffffffffffffffffffff16815260200190815260200160002054141561047d57600080600090505b6003805490508110156104045782600382815481106103db576103da610c78565b5b906000526020600020015414156103f157600191505b80806103fc90610c00565b9150506103b9565b50801561047b57600160046000848152602001908152602001600020600082825461042f9190610b24565b9250508190555081600660003373ffffffffffffffffffffffffffffffffffffffff1673ffffffffffffffffffffffffffffffffffffffff168152602001908152602001600020819055505b505b50565b60008054906101000a900473ffffffffffffffffffffffffffffffffffffffff1673ffffffffffffffffffffffffffffffffffffffff163373ffffffffffffffffffffffffffffffffffffffff16146104d857600080fd5b60038190806001815401808255809150506001900390600052602060002001600090919091909150556000600460008381526020019081526020016000208190555050565b60008054906101000a900473ffffffffffffffffffffffffffffffffffffffff1673ffffffffffffffffffffffffffffffffffffffff163373ffffffffffffffffffffffffffffffffffffffff161461057557600080fd5b6001600260006101000a81548160ff021916908315150217905550565b6000600660003373ffffffffffffffffffffffffffffffffffffffff1673ffffffffffffffffffffffffffffffffffffffff168152602001908152602001600020541461070f57600080600090505b60038054905081101561062c57826003828154811061060357610602610c78565b5b9060005260206000200154141561061957600191505b808061062490610c00565b9150506105e1565b50801561070d57600160046000600660003373ffffffffffffffffffffffffffffffffffffffff1673ffffffffffffffffffffffffffffffffffffffff16815260200190815260200160002054815260200190815260200160002060008282546106969190610b7a565b9250508190555060016004600084815260200190815260200160002060008282546106c19190610b24565b9250508190555081600660003373ffffffffffffffffffffffffffffffffffffffff1673ffffffffffffffffffffffffffffffffffffffff168152602001908152602001600020819055505b505b50565b6005818154811061072257600080fd5b906000526020600020016000915054906101000a900473ffffffffffffffffffffffffffffffffffffffff1681565b600260009054906101000a900460ff1681565b60008054906101000a900473ffffffffffffffffffffffffffffffffffffffff1681565b60046020528060005260406000206000915090505481565b60066020528060005260406000206000915090505481565b600381815481106107c857600080fd5b906000526020600020016000915090505481565b600060046000838152602001908152602001600020549050919050565b6000600580549050905090565b60006005828154811061081c5761081b610c78565b5b9060005260206000200160009054906101000a900473ffffffffffffffffffffffffffffffffffffffff169050919050565b60015481565b6000600380549050905090565b60008054906101000a900473ffffffffffffffffffffffffffffffffffffffff1673ffffffffffffffffffffffffffffffffffffffff163373ffffffffffffffffffffffffffffffffffffffff16146108b957600080fd5b6005819080600181540180825580915050600190039060005260206000200160009091909190916101000a81548173ffffffffffffffffffffffffffffffffffffffff021916908373ffffffffffffffffffffffffffffffffffffffff1602179055507fffffffffffffffffffffffffffffffffffffffffffffffffffffffffffffffff600660008373ffffffffffffffffffffffffffffffffffffffff1673ffffffffffffffffffffffffffffffffffffffff1681526020019081526020016000208190555050565b60008054906101000a900473ffffffffffffffffffffffffffffffffffffffff1673ffffffffffffffffffffffffffffffffffffffff163373ffffffffffffffffffffffffffffffffffffffff16146109db57600080fd5b6000600260006101000a81548160ff021916908315150217905550565b600081359050610a0781610cac565b92915050565b600081359050610a1c81610cc3565b92915050565b600060208284031215610a3857610a37610ca7565b5b6000610a46848285016109f8565b91505092915050565b600060208284031215610a6557610a64610ca7565b5b6000610a7384828501610a0d565b91505092915050565b610a8581610bae565b82525050565b610a9481610bc0565b82525050565b610aa381610bcc565b82525050565b610ab281610bf6565b82525050565b6000602082019050610acd6000830184610a7c565b92915050565b6000602082019050610ae86000830184610a8b565b92915050565b6000602082019050610b036000830184610a9a565b92915050565b6000602082019050610b1e6000830184610aa9565b92915050565b6000610b2f82610bf6565b9150610b3a83610bf6565b9250827fffffffffffffffffffffffffffffffffffffffffffffffffffffffffffffffff03821115610b6f57610b6e610c49565b5b828201905092915050565b6000610b8582610bf6565b9150610b9083610bf6565b925082821015610ba357610ba2610c49565b5b828203905092915050565b6000610bb982610bd6565b9050919050565b60008115159050919050565b6000819050919050565b600073ffffffffffffffffffffffffffffffffffffffff82169050919050565b6000819050919050565b6000610c0b82610bf6565b91507fffffffffffffffffffffffffffffffffffffffffffffffffffffffffffffffff821415610c3e57610c3d610c49565b5b600182019050919050565b7f4e487b7100000000000000000000000000000000000000000000000000000000600052601160045260246000fd5b7f4e487b7100000000000000000000000000000000000000000000000000000000600052603260045260246000fd5b600080fd5b610cb581610bae565b8114610cc057600080fd5b50565b610ccc81610bf6565b8114610cd757600080fd5b5056fea264697066735822122063c93ef0bd276eaf590bd313dc12d4c15472e2753b964c62a4c829baecfb541b64736f6c63430008070033",
					"opcodes": "PUSH1 0x80 PUSH1 0x40 MSTORE PUSH1 0x1 PUSH1 0x2 PUSH1 0x0 PUSH2 0x100 EXP DUP2 SLOAD DUP2 PUSH1 0xFF MUL NOT AND SWAP1 DUP4 ISZERO ISZERO MUL OR SWAP1 SSTORE POP CALLVALUE DUP1 ISZERO PUSH2 0x2B JUMPI PUSH1 0x0 DUP1 REVERT JUMPDEST POP CALLER PUSH1 0x0 DUP1 PUSH2 0x100 EXP DUP2 SLOAD DUP2 PUSH20 0xFFFFFFFFFFFFFFFFFFFFFFFFFFFFFFFFFFFFFFFF MUL NOT AND SWAP1 DUP4 PUSH20 0xFFFFFFFFFFFFFFFFFFFFFFFFFFFFFFFFFFFFFFFF AND MUL OR SWAP1 SSTORE POP PUSH2 0xD10 DUP1 PUSH2 0x7B PUSH1 0x0 CODECOPY PUSH1 0x0 RETURN INVALID PUSH1 0x80 PUSH1 0x40 MSTORE CALLVALUE DUP1 ISZERO PUSH2 0x10 JUMPI PUSH1 0x0 DUP1 REVERT JUMPDEST POP PUSH1 0x4 CALLDATASIZE LT PUSH2 0x10B JUMPI PUSH1 0x0 CALLDATALOAD PUSH1 0xE0 SHR DUP1 PUSH4 0xAF0DBE54 GT PUSH2 0xA2 JUMPI DUP1 PUSH4 0xD83B2C05 GT PUSH2 0x71 JUMPI DUP1 PUSH4 0xD83B2C05 EQ PUSH2 0x2B8 JUMPI DUP1 PUSH4 0xDFBF53AE EQ PUSH2 0x2E8 JUMPI DUP1 PUSH4 0xE318E7D5 EQ PUSH2 0x306 JUMPI DUP1 PUSH4 0xF4AB9ADF EQ PUSH2 0x324 JUMPI DUP1 PUSH4 0xFCFFF16F EQ PUSH2 0x340 JUMPI PUSH2 0x10B JUMP JUMPDEST DUP1 PUSH4 0xAF0DBE54 EQ PUSH2 0x20A JUMPI DUP1 PUSH4 0xC29E1A56 EQ PUSH2 0x23A JUMPI DUP1 PUSH4 0xC71F4253 EQ PUSH2 0x26A JUMPI DUP1 PUSH4 0xCDCBC3C2 EQ PUSH2 0x29A JUMPI PUSH2 0x10B JUMP JUMPDEST DUP1 PUSH4 0x50E2E8AF GT PUSH2 0xDE JUMPI DUP1 PUSH4 0x50E2E8AF EQ PUSH2 0x16E JUMPI DUP1 PUSH4 0x597E1FB5 EQ PUSH2 0x19E JUMPI DUP1 PUSH4 0x8DA5CB5B EQ PUSH2 0x1BC JUMPI DUP1 PUSH4 0x9811C7C1 EQ PUSH2 0x1DA JUMPI PUSH2 0x10B JUMP JUMPDEST DUP1 PUSH4 0x121B93F EQ PUSH2 0x110 JUMPI DUP1 PUSH4 0x36002617 EQ PUSH2 0x12C JUMPI DUP1 PUSH4 0x43D726D6 EQ PUSH2 0x148 JUMPI DUP1 PUSH4 0x4EDA77E1 EQ PUSH2 0x152 JUMPI JUMPDEST PUSH1 0x0 DUP1 REVERT JUMPDEST PUSH2 0x12A PUSH1 0x4 DUP1 CALLDATASIZE SUB DUP2 ADD SWAP1 PUSH2 0x125 SWAP2 SWAP1 PUSH2 0xA4F JUMP JUMPDEST PUSH2 0x34A JUMP JUMPDEST STOP JUMPDEST PUSH2 0x146 PUSH1 0x4 DUP1 CALLDATASIZE SUB DUP2 ADD SWAP1 PUSH2 0x141 SWAP2 SWAP1 PUSH2 0xA4F JUMP JUMPDEST PUSH2 0x480 JUMP JUMPDEST STOP JUMPDEST PUSH2 0x150 PUSH2 0x51D JUMP JUMPDEST STOP JUMPDEST PUSH2 0x16C PUSH1 0x4 DUP1 CALLDATASIZE SUB DUP2 ADD SWAP1 PUSH2 0x167 SWAP2 SWAP1 PUSH2 0xA4F JUMP JUMPDEST PUSH2 0x592 JUMP JUMPDEST STOP JUMPDEST PUSH2 0x188 PUSH1 0x4 DUP1 CALLDATASIZE SUB DUP2 ADD SWAP1 PUSH2 0x183 SWAP2 SWAP1 PUSH2 0xA4F JUMP JUMPDEST PUSH2 0x712 JUMP JUMPDEST PUSH1 0x40 MLOAD PUSH2 0x195 SWAP2 SWAP1 PUSH2 0xAB8 JUMP JUMPDEST PUSH1 0x40 MLOAD DUP1 SWAP2 SUB SWAP1 RETURN JUMPDEST PUSH2 0x1A6 PUSH2 0x751 JUMP JUMPDEST PUSH1 0x40 MLOAD PUSH2 0x1B3 SWAP2 SWAP1 PUSH2 0xAD3 JUMP JUMPDEST PUSH1 0x40 MLOAD DUP1 SWAP2 SUB SWAP1 RETURN JUMPDEST PUSH2 0x1C4 PUSH2 0x764 JUMP JUMPDEST PUSH1 0x40 MLOAD PUSH2 0x1D1 SWAP2 SWAP1 PUSH2 0xAB8 JUMP JUMPDEST PUSH1 0x40 MLOAD DUP1 SWAP2 SUB SWAP1 RETURN JUMPDEST PUSH2 0x1F4 PUSH1 0x4 DUP1 CALLDATASIZE SUB DUP2 ADD SWAP1 PUSH2 0x1EF SWAP2 SWAP1 PUSH2 0xA4F JUMP JUMPDEST PUSH2 0x788 JUMP JUMPDEST PUSH1 0x40 MLOAD PUSH2 0x201 SWAP2 SWAP1 PUSH2 0xB09 JUMP JUMPDEST PUSH1 0x40 MLOAD DUP1 SWAP2 SUB SWAP1 RETURN JUMPDEST PUSH2 0x224 PUSH1 0x4 DUP1 CALLDATASIZE SUB DUP2 ADD SWAP1 PUSH2 0x21F SWAP2 SWAP1 PUSH2 0xA22 JUMP JUMPDEST PUSH2 0x7A0 JUMP JUMPDEST PUSH1 0x40 MLOAD PUSH2 0x231 SWAP2 SWAP1 PUSH2 0xAEE JUMP JUMPDEST PUSH1 0x40 MLOAD DUP1 SWAP2 SUB SWAP1 RETURN JUMPDEST PUSH2 0x254 PUSH1 0x4 DUP1 CALLDATASIZE SUB DUP2 ADD SWAP1 PUSH2 0x24F SWAP2 SWAP1 PUSH2 0xA4F JUMP JUMPDEST PUSH2 0x7B8 JUMP JUMPDEST PUSH1 0x40 MLOAD PUSH2 0x261 SWAP2 SWAP1 PUSH2 0xB09 JUMP JUMPDEST PUSH1 0x40 MLOAD DUP1 SWAP2 SUB SWAP1 RETURN JUMPDEST PUSH2 0x284 PUSH1 0x4 DUP1 CALLDATASIZE SUB DUP2 ADD SWAP1 PUSH2 0x27F SWAP2 SWAP1 PUSH2 0xA4F JUMP JUMPDEST PUSH2 0x7DC JUMP JUMPDEST PUSH1 0x40 MLOAD PUSH2 0x291 SWAP2 SWAP1 PUSH2 0xB09 JUMP JUMPDEST PUSH1 0x40 MLOAD DUP1 SWAP2 SUB SWAP1 RETURN JUMPDEST PUSH2 0x2A2 PUSH2 0x7F9 JUMP JUMPDEST PUSH1 0x40 MLOAD PUSH2 0x2AF SWAP2 SWAP1 PUSH2 0xB09 JUMP JUMPDEST PUSH1 0x40 MLOAD DUP1 SWAP2 SUB SWAP1 RETURN JUMPDEST PUSH2 0x2D2 PUSH1 0x4 DUP1 CALLDATASIZE SUB DUP2 ADD SWAP1 PUSH2 0x2CD SWAP2 SWAP1 PUSH2 0xA4F JUMP JUMPDEST PUSH2 0x806 JUMP JUMPDEST PUSH1 0x40 MLOAD PUSH2 0x2DF SWAP2 SWAP1 PUSH2 0xAB8 JUMP JUMPDEST PUSH1 0x40 MLOAD DUP1 SWAP2 SUB SWAP1 RETURN JUMPDEST PUSH2 0x2F0 PUSH2 0x84E JUMP JUMPDEST PUSH1 0x40 MLOAD PUSH2 0x2FD SWAP2 SWAP1 PUSH2 0xB09 JUMP JUMPDEST PUSH1 0x40 MLOAD DUP1 SWAP2 SUB SWAP1 RETURN JUMPDEST PUSH2 0x30E PUSH2 0x854 JUMP JUMPDEST PUSH1 0x40 MLOAD PUSH2 0x31B SWAP2 SWAP1 PUSH2 0xB09 JUMP JUMPDEST PUSH1 0x40 MLOAD DUP1 SWAP2 SUB SWAP1 RETURN JUMPDEST PUSH2 0x33E PUSH1 0x4 DUP1 CALLDATASIZE SUB DUP2 ADD SWAP1 PUSH2 0x339 SWAP2 SWAP1 PUSH2 0xA22 JUMP JUMPDEST PUSH2 0x861 JUMP JUMPDEST STOP JUMPDEST PUSH2 0x348 PUSH2 0x983 JUMP JUMPDEST STOP JUMPDEST PUSH32 0xFFFFFFFFFFFFFFFFFFFFFFFFFFFFFFFFFFFFFFFFFFFFFFFFFFFFFFFFFFFFFFFF PUSH1 0x6 PUSH1 0x0 CALLER PUSH20 0xFFFFFFFFFFFFFFFFFFFFFFFFFFFFFFFFFFFFFFFF AND PUSH20 0xFFFFFFFFFFFFFFFFFFFFFFFFFFFFFFFFFFFFFFFF AND DUP2 MSTORE PUSH1 0x20 ADD SWAP1 DUP2 MSTORE PUSH1 0x20 ADD PUSH1 0x0 KECCAK256 SLOAD EQ ISZERO PUSH2 0x47D JUMPI PUSH1 0x0 DUP1 PUSH1 0x0 SWAP1 POP JUMPDEST PUSH1 0x3 DUP1 SLOAD SWAP1 POP DUP2 LT ISZERO PUSH2 0x404 JUMPI DUP3 PUSH1 0x3 DUP3 DUP2 SLOAD DUP2 LT PUSH2 0x3DB JUMPI PUSH2 0x3DA PUSH2 0xC78 JUMP JUMPDEST JUMPDEST SWAP1 PUSH1 0x0 MSTORE PUSH1 0x20 PUSH1 0x0 KECCAK256 ADD SLOAD EQ ISZERO PUSH2 0x3F1 JUMPI PUSH1 0x1 SWAP2 POP JUMPDEST DUP1 DUP1 PUSH2 0x3FC SWAP1 PUSH2 0xC00 JUMP JUMPDEST SWAP2 POP POP PUSH2 0x3B9 JUMP JUMPDEST POP DUP1 ISZERO PUSH2 0x47B JUMPI PUSH1 0x1 PUSH1 0x4 PUSH1 0x0 DUP5 DUP2 MSTORE PUSH1 0x20 ADD SWAP1 DUP2 MSTORE PUSH1 0x20 ADD PUSH1 0x0 KECCAK256 PUSH1 0x0 DUP3 DUP3 SLOAD PUSH2 0x42F SWAP2 SWAP1 PUSH2 0xB24 JUMP JUMPDEST SWAP3 POP POP DUP2 SWAP1 SSTORE POP DUP2 PUSH1 0x6 PUSH1 0x0 CALLER PUSH20 0xFFFFFFFFFFFFFFFFFFFFFFFFFFFFFFFFFFFFFFFF AND PUSH20 0xFFFFFFFFFFFFFFFFFFFFFFFFFFFFFFFFFFFFFFFF AND DUP2 MSTORE PUSH1 0x20 ADD SWAP1 DUP2 MSTORE PUSH1 0x20 ADD PUSH1 0x0 KECCAK256 DUP2 SWAP1 SSTORE POP JUMPDEST POP JUMPDEST POP JUMP JUMPDEST PUSH1 0x0 DUP1 SLOAD SWAP1 PUSH2 0x100 EXP SWAP1 DIV PUSH20 0xFFFFFFFFFFFFFFFFFFFFFFFFFFFFFFFFFFFFFFFF AND PUSH20 0xFFFFFFFFFFFFFFFFFFFFFFFFFFFFFFFFFFFFFFFF AND CALLER PUSH20 0xFFFFFFFFFFFFFFFFFFFFFFFFFFFFFFFFFFFFFFFF AND EQ PUSH2 0x4D8 JUMPI PUSH1 0x0 DUP1 REVERT JUMPDEST PUSH1 0x3 DUP2 SWAP1 DUP1 PUSH1 0x1 DUP2 SLOAD ADD DUP1 DUP3 SSTORE DUP1 SWAP2 POP POP PUSH1 0x1 SWAP1 SUB SWAP1 PUSH1 0x0 MSTORE PUSH1 0x20 PUSH1 0x0 KECCAK256 ADD PUSH1 0x0 SWAP1 SWAP2 SWAP1 SWAP2 SWAP1 SWAP2 POP SSTORE PUSH1 0x0 PUSH1 0x4 PUSH1 0x0 DUP4 DUP2 MSTORE PUSH1 0x20 ADD SWAP1 DUP2 MSTORE PUSH1 0x20 ADD PUSH1 0x0 KECCAK256 DUP2 SWAP1 SSTORE POP POP JUMP JUMPDEST PUSH1 0x0 DUP1 SLOAD SWAP1 PUSH2 0x100 EXP SWAP1 DIV PUSH20 0xFFFFFFFFFFFFFFFFFFFFFFFFFFFFFFFFFFFFFFFF AND PUSH20 0xFFFFFFFFFFFFFFFFFFFFFFFFFFFFFFFFFFFFFFFF AND CALLER PUSH20 0xFFFFFFFFFFFFFFFFFFFFFFFFFFFFFFFFFFFFFFFF AND EQ PUSH2 0x575 JUMPI PUSH1 0x0 DUP1 REVERT JUMPDEST PUSH1 0x1 PUSH1 0x2 PUSH1 0x0 PUSH2 0x100 EXP DUP2 SLOAD DUP2 PUSH1 0xFF MUL NOT AND SWAP1 DUP4 ISZERO ISZERO MUL OR SWAP1 SSTORE POP JUMP JUMPDEST PUSH1 0x0 PUSH1 0x6 PUSH1 0x0 CALLER PUSH20 0xFFFFFFFFFFFFFFFFFFFFFFFFFFFFFFFFFFFFFFFF AND PUSH20 0xFFFFFFFFFFFFFFFFFFFFFFFFFFFFFFFFFFFFFFFF AND DUP2 MSTORE PUSH1 0x20 ADD SWAP1 DUP2 MSTORE PUSH1 0x20 ADD PUSH1 0x0 KECCAK256 SLOAD EQ PUSH2 0x70F JUMPI PUSH1 0x0 DUP1 PUSH1 0x0 SWAP1 POP JUMPDEST PUSH1 0x3 DUP1 SLOAD SWAP1 POP DUP2 LT ISZERO PUSH2 0x62C JUMPI DUP3 PUSH1 0x3 DUP3 DUP2 SLOAD DUP2 LT PUSH2 0x603 JUMPI PUSH2 0x602 PUSH2 0xC78 JUMP JUMPDEST JUMPDEST SWAP1 PUSH1 0x0 MSTORE PUSH1 0x20 PUSH1 0x0 KECCAK256 ADD SLOAD EQ ISZERO PUSH2 0x619 JUMPI PUSH1 0x1 SWAP2 POP JUMPDEST DUP1 DUP1 PUSH2 0x624 SWAP1 PUSH2 0xC00 JUMP JUMPDEST SWAP2 POP POP PUSH2 0x5E1 JUMP JUMPDEST POP DUP1 ISZERO PUSH2 0x70D JUMPI PUSH1 0x1 PUSH1 0x4 PUSH1 0x0 PUSH1 0x6 PUSH1 0x0 CALLER PUSH20 0xFFFFFFFFFFFFFFFFFFFFFFFFFFFFFFFFFFFFFFFF AND PUSH20 0xFFFFFFFFFFFFFFFFFFFFFFFFFFFFFFFFFFFFFFFF AND DUP2 MSTORE PUSH1 0x20 ADD SWAP1 DUP2 MSTORE PUSH1 0x20 ADD PUSH1 0x0 KECCAK256 SLOAD DUP2 MSTORE PUSH1 0x20 ADD SWAP1 DUP2 MSTORE PUSH1 0x20 ADD PUSH1 0x0 KECCAK256 PUSH1 0x0 DUP3 DUP3 SLOAD PUSH2 0x696 SWAP2 SWAP1 PUSH2 0xB7A JUMP JUMPDEST SWAP3 POP POP DUP2 SWAP1 SSTORE POP PUSH1 0x1 PUSH1 0x4 PUSH1 0x0 DUP5 DUP2 MSTORE PUSH1 0x20 ADD SWAP1 DUP2 MSTORE PUSH1 0x20 ADD PUSH1 0x0 KECCAK256 PUSH1 0x0 DUP3 DUP3 SLOAD PUSH2 0x6C1 SWAP2 SWAP1 PUSH2 0xB24 JUMP JUMPDEST SWAP3 POP POP DUP2 SWAP1 SSTORE POP DUP2 PUSH1 0x6 PUSH1 0x0 CALLER PUSH20 0xFFFFFFFFFFFFFFFFFFFFFFFFFFFFFFFFFFFFFFFF AND PUSH20 0xFFFFFFFFFFFFFFFFFFFFFFFFFFFFFFFFFFFFFFFF AND DUP2 MSTORE PUSH1 0x20 ADD SWAP1 DUP2 MSTORE PUSH1 0x20 ADD PUSH1 0x0 KECCAK256 DUP2 SWAP1 SSTORE POP JUMPDEST POP JUMPDEST POP JUMP JUMPDEST PUSH1 0x5 DUP2 DUP2 SLOAD DUP2 LT PUSH2 0x722 JUMPI PUSH1 0x0 DUP1 REVERT JUMPDEST SWAP1 PUSH1 0x0 MSTORE PUSH1 0x20 PUSH1 0x0 KECCAK256 ADD PUSH1 0x0 SWAP2 POP SLOAD SWAP1 PUSH2 0x100 EXP SWAP1 DIV PUSH20 0xFFFFFFFFFFFFFFFFFFFFFFFFFFFFFFFFFFFFFFFF AND DUP2 JUMP JUMPDEST PUSH1 0x2 PUSH1 0x0 SWAP1 SLOAD SWAP1 PUSH2 0x100 EXP SWAP1 DIV PUSH1 0xFF AND DUP2 JUMP JUMPDEST PUSH1 0x0 DUP1 SLOAD SWAP1 PUSH2 0x100 EXP SWAP1 DIV PUSH20 0xFFFFFFFFFFFFFFFFFFFFFFFFFFFFFFFFFFFFFFFF AND DUP2 JUMP JUMPDEST PUSH1 0x4 PUSH1 0x20 MSTORE DUP1 PUSH1 0x0 MSTORE PUSH1 0x40 PUSH1 0x0 KECCAK256 PUSH1 0x0 SWAP2 POP SWAP1 POP SLOAD DUP2 JUMP JUMPDEST PUSH1 0x6 PUSH1 0x20 MSTORE DUP1 PUSH1 0x0 MSTORE PUSH1 0x40 PUSH1 0x0 KECCAK256 PUSH1 0x0 SWAP2 POP SWAP1 POP SLOAD DUP2 JUMP JUMPDEST PUSH1 0x3 DUP2 DUP2 SLOAD DUP2 LT PUSH2 0x7C8 JUMPI PUSH1 0x0 DUP1 REVERT JUMPDEST SWAP1 PUSH1 0x0 MSTORE PUSH1 0x20 PUSH1 0x0 KECCAK256 ADD PUSH1 0x0 SWAP2 POP SWAP1 POP SLOAD DUP2 JUMP JUMPDEST PUSH1 0x0 PUSH1 0x4 PUSH1 0x0 DUP4 DUP2 MSTORE PUSH1 0x20 ADD SWAP1 DUP2 MSTORE PUSH1 0x20 ADD PUSH1 0x0 KECCAK256 SLOAD SWAP1 POP SWAP2 SWAP1 POP JUMP JUMPDEST PUSH1 0x0 PUSH1 0x5 DUP1 SLOAD SWAP1 POP SWAP1 POP SWAP1 JUMP JUMPDEST PUSH1 0x0 PUSH1 0x5 DUP3 DUP2 SLOAD DUP2 LT PUSH2 0x81C JUMPI PUSH2 0x81B PUSH2 0xC78 JUMP JUMPDEST JUMPDEST SWAP1 PUSH1 0x0 MSTORE PUSH1 0x20 PUSH1 0x0 KECCAK256 ADD PUSH1 0x0 SWAP1 SLOAD SWAP1 PUSH2 0x100 EXP SWAP1 DIV PUSH20 0xFFFFFFFFFFFFFFFFFFFFFFFFFFFFFFFFFFFFFFFF AND SWAP1 POP SWAP2 SWAP1 POP JUMP JUMPDEST PUSH1 0x1 SLOAD DUP2 JUMP JUMPDEST PUSH1 0x0 PUSH1 0x3 DUP1 SLOAD SWAP1 POP SWAP1 POP SWAP1 JUMP JUMPDEST PUSH1 0x0 DUP1 SLOAD SWAP1 PUSH2 0x100 EXP SWAP1 DIV PUSH20 0xFFFFFFFFFFFFFFFFFFFFFFFFFFFFFFFFFFFFFFFF AND PUSH20 0xFFFFFFFFFFFFFFFFFFFFFFFFFFFFFFFFFFFFFFFF AND CALLER PUSH20 0xFFFFFFFFFFFFFFFFFFFFFFFFFFFFFFFFFFFFFFFF AND EQ PUSH2 0x8B9 JUMPI PUSH1 0x0 DUP1 REVERT JUMPDEST PUSH1 0x5 DUP2 SWAP1 DUP1 PUSH1 0x1 DUP2 SLOAD ADD DUP1 DUP3 SSTORE DUP1 SWAP2 POP POP PUSH1 0x1 SWAP1 SUB SWAP1 PUSH1 0x0 MSTORE PUSH1 0x20 PUSH1 0x0 KECCAK256 ADD PUSH1 0x0 SWAP1 SWAP2 SWAP1 SWAP2 SWAP1 SWAP2 PUSH2 0x100 EXP DUP2 SLOAD DUP2 PUSH20 0xFFFFFFFFFFFFFFFFFFFFFFFFFFFFFFFFFFFFFFFF MUL NOT AND SWAP1 DUP4 PUSH20 0xFFFFFFFFFFFFFFFFFFFFFFFFFFFFFFFFFFFFFFFF AND MUL OR SWAP1 SSTORE POP PUSH32 0xFFFFFFFFFFFFFFFFFFFFFFFFFFFFFFFFFFFFFFFFFFFFFFFFFFFFFFFFFFFFFFFF PUSH1 0x6 PUSH1 0x0 DUP4 PUSH20 0xFFFFFFFFFFFFFFFFFFFFFFFFFFFFFFFFFFFFFFFF AND PUSH20 0xFFFFFFFFFFFFFFFFFFFFFFFFFFFFFFFFFFFFFFFF AND DUP2 MSTORE PUSH1 0x20 ADD SWAP1 DUP2 MSTORE PUSH1 0x20 ADD PUSH1 0x0 KECCAK256 DUP2 SWAP1 SSTORE POP POP JUMP JUMPDEST PUSH1 0x0 DUP1 SLOAD SWAP1 PUSH2 0x100 EXP SWAP1 DIV PUSH20 0xFFFFFFFFFFFFFFFFFFFFFFFFFFFFFFFFFFFFFFFF AND PUSH20 0xFFFFFFFFFFFFFFFFFFFFFFFFFFFFFFFFFFFFFFFF AND CALLER PUSH20 0xFFFFFFFFFFFFFFFFFFFFFFFFFFFFFFFFFFFFFFFF AND EQ PUSH2 0x9DB JUMPI PUSH1 0x0 DUP1 REVERT JUMPDEST PUSH1 0x0 PUSH1 0x2 PUSH1 0x0 PUSH2 0x100 EXP DUP2 SLOAD DUP2 PUSH1 0xFF MUL NOT AND SWAP1 DUP4 ISZERO ISZERO MUL OR SWAP1 SSTORE POP JUMP JUMPDEST PUSH1 0x0 DUP2 CALLDATALOAD SWAP1 POP PUSH2 0xA07 DUP2 PUSH2 0xCAC JUMP JUMPDEST SWAP3 SWAP2 POP POP JUMP JUMPDEST PUSH1 0x0 DUP2 CALLDATALOAD SWAP1 POP PUSH2 0xA1C DUP2 PUSH2 0xCC3 JUMP JUMPDEST SWAP3 SWAP2 POP POP JUMP JUMPDEST PUSH1 0x0 PUSH1 0x20 DUP3 DUP5 SUB SLT ISZERO PUSH2 0xA38 JUMPI PUSH2 0xA37 PUSH2 0xCA7 JUMP JUMPDEST JUMPDEST PUSH1 0x0 PUSH2 0xA46 DUP5 DUP3 DUP6 ADD PUSH2 0x9F8 JUMP JUMPDEST SWAP2 POP POP SWAP3 SWAP2 POP POP JUMP JUMPDEST PUSH1 0x0 PUSH1 0x20 DUP3 DUP5 SUB SLT ISZERO PUSH2 0xA65 JUMPI PUSH2 0xA64 PUSH2 0xCA7 JUMP JUMPDEST JUMPDEST PUSH1 0x0 PUSH2 0xA73 DUP5 DUP3 DUP6 ADD PUSH2 0xA0D JUMP JUMPDEST SWAP2 POP POP SWAP3 SWAP2 POP POP JUMP JUMPDEST PUSH2 0xA85 DUP2 PUSH2 0xBAE JUMP JUMPDEST DUP3 MSTORE POP POP JUMP JUMPDEST PUSH2 0xA94 DUP2 PUSH2 0xBC0 JUMP JUMPDEST DUP3 MSTORE POP POP JUMP JUMPDEST PUSH2 0xAA3 DUP2 PUSH2 0xBCC JUMP JUMPDEST DUP3 MSTORE POP POP JUMP JUMPDEST PUSH2 0xAB2 DUP2 PUSH2 0xBF6 JUMP JUMPDEST DUP3 MSTORE POP POP JUMP JUMPDEST PUSH1 0x0 PUSH1 0x20 DUP3 ADD SWAP1 POP PUSH2 0xACD PUSH1 0x0 DUP4 ADD DUP5 PUSH2 0xA7C JUMP JUMPDEST SWAP3 SWAP2 POP POP JUMP JUMPDEST PUSH1 0x0 PUSH1 0x20 DUP3 ADD SWAP1 POP PUSH2 0xAE8 PUSH1 0x0 DUP4 ADD DUP5 PUSH2 0xA8B JUMP JUMPDEST SWAP3 SWAP2 POP POP JUMP JUMPDEST PUSH1 0x0 PUSH1 0x20 DUP3 ADD SWAP1 POP PUSH2 0xB03 PUSH1 0x0 DUP4 ADD DUP5 PUSH2 0xA9A JUMP JUMPDEST SWAP3 SWAP2 POP POP JUMP JUMPDEST PUSH1 0x0 PUSH1 0x20 DUP3 ADD SWAP1 POP PUSH2 0xB1E PUSH1 0x0 DUP4 ADD DUP5 PUSH2 0xAA9 JUMP JUMPDEST SWAP3 SWAP2 POP POP JUMP JUMPDEST PUSH1 0x0 PUSH2 0xB2F DUP3 PUSH2 0xBF6 JUMP JUMPDEST SWAP2 POP PUSH2 0xB3A DUP4 PUSH2 0xBF6 JUMP JUMPDEST SWAP3 POP DUP3 PUSH32 0xFFFFFFFFFFFFFFFFFFFFFFFFFFFFFFFFFFFFFFFFFFFFFFFFFFFFFFFFFFFFFFFF SUB DUP3 GT ISZERO PUSH2 0xB6F JUMPI PUSH2 0xB6E PUSH2 0xC49 JUMP JUMPDEST JUMPDEST DUP3 DUP3 ADD SWAP1 POP SWAP3 SWAP2 POP POP JUMP JUMPDEST PUSH1 0x0 PUSH2 0xB85 DUP3 PUSH2 0xBF6 JUMP JUMPDEST SWAP2 POP PUSH2 0xB90 DUP4 PUSH2 0xBF6 JUMP JUMPDEST SWAP3 POP DUP3 DUP3 LT ISZERO PUSH2 0xBA3 JUMPI PUSH2 0xBA2 PUSH2 0xC49 JUMP JUMPDEST JUMPDEST DUP3 DUP3 SUB SWAP1 POP SWAP3 SWAP2 POP POP JUMP JUMPDEST PUSH1 0x0 PUSH2 0xBB9 DUP3 PUSH2 0xBD6 JUMP JUMPDEST SWAP1 POP SWAP2 SWAP1 POP JUMP JUMPDEST PUSH1 0x0 DUP2 ISZERO ISZERO SWAP1 POP SWAP2 SWAP1 POP JUMP JUMPDEST PUSH1 0x0 DUP2 SWAP1 POP SWAP2 SWAP1 POP JUMP JUMPDEST PUSH1 0x0 PUSH20 0xFFFFFFFFFFFFFFFFFFFFFFFFFFFFFFFFFFFFFFFF DUP3 AND SWAP1 POP SWAP2 SWAP1 POP JUMP JUMPDEST PUSH1 0x0 DUP2 SWAP1 POP SWAP2 SWAP1 POP JUMP JUMPDEST PUSH1 0x0 PUSH2 0xC0B DUP3 PUSH2 0xBF6 JUMP JUMPDEST SWAP2 POP PUSH32 0xFFFFFFFFFFFFFFFFFFFFFFFFFFFFFFFFFFFFFFFFFFFFFFFFFFFFFFFFFFFFFFFF DUP3 EQ ISZERO PUSH2 0xC3E JUMPI PUSH2 0xC3D PUSH2 0xC49 JUMP JUMPDEST JUMPDEST PUSH1 0x1 DUP3 ADD SWAP1 POP SWAP2 SWAP1 POP JUMP JUMPDEST PUSH32 0x4E487B7100000000000000000000000000000000000000000000000000000000 PUSH1 0x0 MSTORE PUSH1 0x11 PUSH1 0x4 MSTORE PUSH1 0x24 PUSH1 0x0 REVERT JUMPDEST PUSH32 0x4E487B7100000000000000000000000000000000000000000000000000000000 PUSH1 0x0 MSTORE PUSH1 0x32 PUSH1 0x4 MSTORE PUSH1 0x24 PUSH1 0x0 REVERT JUMPDEST PUSH1 0x0 DUP1 REVERT JUMPDEST PUSH2 0xCB5 DUP2 PUSH2 0xBAE JUMP JUMPDEST DUP2 EQ PUSH2 0xCC0 JUMPI PUSH1 0x0 DUP1 REVERT JUMPDEST POP JUMP JUMPDEST PUSH2 0xCCC DUP2 PUSH2 0xBF6 JUMP JUMPDEST DUP2 EQ PUSH2 0xCD7 JUMPI PUSH1 0x0 DUP1 REVERT JUMPDEST POP JUMP INVALID LOG2 PUSH5 0x6970667358 0x22 SLT KECCAK256 PUSH4 0xC93EF0BD 0x27 PUSH15 0xAF590BD313DC12D4C15472E2753B96 0x4C PUSH3 0xA4C829 0xBA 0xEC 0xFB SLOAD SHL PUSH5 0x736F6C6343 STOP ADDMOD SMOD STOP CALLER "
				},
				"gasEstimates": {
					"creation": {
						"codeDepositCost": "668800",
						"executionCost": "49235",
						"totalCost": "718035"
					},
					"external": {
						"addTarget(uint256)": "54134",
						"addVoter(address)": "73493",
						"close()": "26646",
						"closed()": "2516",
						"getNumberOfVotes(uint256)": "infinite",
						"getTargetArrayLength()": "2511",
						"getVoterAddress(uint256)": "4989",
						"getVoterArrayLength()": "2534",
						"open()": "26688",
						"owner()": "2578",
						"revote(uint256)": "infinite",
						"target(uint256)": "infinite",
						"targetList(uint256)": "infinite",
						"vote(uint256)": "infinite",
						"voter(address)": "2837",
						"voterList(uint256)": "4979",
						"winner()": "2473"
					}
				},
				"methodIdentifiers": {
					"addTarget(uint256)": "36002617",
					"addVoter(address)": "f4ab9adf",
					"close()": "43d726d6",
					"closed()": "597e1fb5",
					"getNumberOfVotes(uint256)": "c71f4253",
					"getTargetArrayLength()": "e318e7d5",
					"getVoterAddress(uint256)": "d83b2c05",
					"getVoterArrayLength()": "cdcbc3c2",
					"open()": "fcfff16f",
					"owner()": "8da5cb5b",
					"revote(uint256)": "4eda77e1",
					"target(uint256)": "9811c7c1",
					"targetList(uint256)": "c29e1a56",
					"vote(uint256)": "0121b93f",
					"voter(address)": "af0dbe54",
					"voterList(uint256)": "50e2e8af",
					"winner()": "dfbf53ae"
				}
			},
			"storageLayout": {
				"storage": [
					{
						"astId": 3,
						"contract": "contracts/Vote.sol:Vote",
						"label": "owner",
						"offset": 0,
						"slot": "0",
						"type": "t_address"
					},
					{
						"astId": 5,
						"contract": "contracts/Vote.sol:Vote",
						"label": "winner",
						"offset": 0,
						"slot": "1",
						"type": "t_uint256"
					},
					{
						"astId": 8,
						"contract": "contracts/Vote.sol:Vote",
						"label": "closed",
						"offset": 0,
						"slot": "2",
						"type": "t_bool"
					},
					{
						"astId": 11,
						"contract": "contracts/Vote.sol:Vote",
						"label": "targetList",
						"offset": 0,
						"slot": "3",
						"type": "t_array(t_uint256)dyn_storage"
					},
					{
						"astId": 15,
						"contract": "contracts/Vote.sol:Vote",
						"label": "target",
						"offset": 0,
						"slot": "4",
						"type": "t_mapping(t_uint256,t_uint256)"
					},
					{
						"astId": 18,
						"contract": "contracts/Vote.sol:Vote",
						"label": "voterList",
						"offset": 0,
						"slot": "5",
						"type": "t_array(t_address)dyn_storage"
					},
					{
						"astId": 22,
						"contract": "contracts/Vote.sol:Vote",
						"label": "voter",
						"offset": 0,
						"slot": "6",
						"type": "t_mapping(t_address,t_int256)"
					}
				],
				"types": {
					"t_address": {
						"encoding": "inplace",
						"label": "address",
						"numberOfBytes": "20"
					},
					"t_array(t_address)dyn_storage": {
						"base": "t_address",
						"encoding": "dynamic_array",
						"label": "address[]",
						"numberOfBytes": "32"
					},
					"t_array(t_uint256)dyn_storage": {
						"base": "t_uint256",
						"encoding": "dynamic_array",
						"label": "uint256[]",
						"numberOfBytes": "32"
					},
					"t_bool": {
						"encoding": "inplace",
						"label": "bool",
						"numberOfBytes": "1"
					},
					"t_int256": {
						"encoding": "inplace",
						"label": "int256",
						"numberOfBytes": "32"
					},
					"t_mapping(t_address,t_int256)": {
						"encoding": "mapping",
						"key": "t_address",
						"label": "mapping(address => int256)",
						"numberOfBytes": "32",
						"value": "t_int256"
					},
					"t_mapping(t_uint256,t_uint256)": {
						"encoding": "mapping",
						"key": "t_uint256",
						"label": "mapping(uint256 => uint256)",
						"numberOfBytes": "32",
						"value": "t_uint256"
					},
					"t_uint256": {
						"encoding": "inplace",
						"label": "uint256",
						"numberOfBytes": "32"
					}
				}
			},
			"userdoc": {
				"kind": "user",
				"methods": {},
				"version": 1
			}
		}
	}
}