{
	"contracts/Vote.sol": {
		"Vote": {
			"abi": [
				{
					"inputs": [],
					"stateMutability": "nonpayable",
					"type": "constructor"
				},
				{
					"inputs": [
						{
							"internalType": "uint256",
							"name": "_targetID",
							"type": "uint256"
						}
					],
					"name": "addTarget",
					"outputs": [],
					"stateMutability": "nonpayable",
					"type": "function"
				},
				{
					"inputs": [
						{
							"internalType": "address",
							"name": "_voter",
							"type": "address"
						}
					],
					"name": "addVoter",
					"outputs": [],
					"stateMutability": "nonpayable",
					"type": "function"
				},
				{
					"inputs": [],
					"name": "close",
					"outputs": [],
					"stateMutability": "nonpayable",
					"type": "function"
				},
				{
					"inputs": [],
					"name": "closed",
					"outputs": [
						{
							"internalType": "bool",
							"name": "",
							"type": "bool"
						}
					],
					"stateMutability": "view",
					"type": "function"
				},
				{
					"inputs": [
						{
							"internalType": "uint256",
							"name": "i",
							"type": "uint256"
						}
					],
					"name": "getNumberOfVotes",
					"outputs": [
						{
							"internalType": "uint256",
							"name": "",
							"type": "uint256"
						}
					],
					"stateMutability": "view",
					"type": "function"
				},
				{
					"inputs": [],
					"name": "getTargetArrayLength",
					"outputs": [
						{
							"internalType": "uint256",
							"name": "",
							"type": "uint256"
						}
					],
					"stateMutability": "view",
					"type": "function"
				},
				{
					"inputs": [
						{
							"internalType": "address",
							"name": "_voter",
							"type": "address"
						}
					],
					"name": "getVotedTarget",
					"outputs": [
						{
							"internalType": "int256",
							"name": "",
							"type": "int256"
						}
					],
					"stateMutability": "view",
					"type": "function"
				},
				{
					"inputs": [
						{
							"internalType": "uint256",
							"name": "i",
							"type": "uint256"
						}
					],
					"name": "getVoterAddress",
					"outputs": [
						{
							"internalType": "address",
							"name": "",
							"type": "address"
						}
					],
					"stateMutability": "view",
					"type": "function"
				},
				{
					"inputs": [],
					"name": "getVoterArrayLength",
					"outputs": [
						{
							"internalType": "uint256",
							"name": "",
							"type": "uint256"
						}
					],
					"stateMutability": "view",
					"type": "function"
				},
				{
					"inputs": [],
					"name": "open",
					"outputs": [],
					"stateMutability": "nonpayable",
					"type": "function"
				},
				{
					"inputs": [],
					"name": "owner",
					"outputs": [
						{
							"internalType": "address",
							"name": "",
							"type": "address"
						}
					],
					"stateMutability": "view",
					"type": "function"
				},
				{
					"inputs": [
						{
							"internalType": "uint256",
							"name": "_target",
							"type": "uint256"
						}
					],
					"name": "revote",
					"outputs": [],
					"stateMutability": "nonpayable",
					"type": "function"
				},
				{
					"inputs": [
						{
							"internalType": "uint256",
							"name": "",
							"type": "uint256"
						}
					],
					"name": "target",
					"outputs": [
						{
							"internalType": "uint256",
							"name": "",
							"type": "uint256"
						}
					],
					"stateMutability": "view",
					"type": "function"
				},
				{
					"inputs": [
						{
							"internalType": "uint256",
							"name": "",
							"type": "uint256"
						}
					],
					"name": "targetList",
					"outputs": [
						{
							"internalType": "uint256",
							"name": "",
							"type": "uint256"
						}
					],
					"stateMutability": "view",
					"type": "function"
				},
				{
					"inputs": [
						{
							"internalType": "uint256",
							"name": "_target",
							"type": "uint256"
						}
					],
					"name": "vote",
					"outputs": [],
					"stateMutability": "nonpayable",
					"type": "function"
				},
				{
					"inputs": [
						{
							"internalType": "address",
							"name": "",
							"type": "address"
						}
					],
					"name": "voter",
					"outputs": [
						{
							"internalType": "int256",
							"name": "",
							"type": "int256"
						}
					],
					"stateMutability": "view",
					"type": "function"
				},
				{
					"inputs": [
						{
							"internalType": "uint256",
							"name": "",
							"type": "uint256"
						}
					],
					"name": "voterList",
					"outputs": [
						{
							"internalType": "address",
							"name": "",
							"type": "address"
						}
					],
					"stateMutability": "view",
					"type": "function"
				},
				{
					"inputs": [],
					"name": "winner",
					"outputs": [
						{
							"internalType": "uint256",
							"name": "",
							"type": "uint256"
						}
					],
					"stateMutability": "view",
					"type": "function"
				}
			],
			"devdoc": {
				"kind": "dev",
				"methods": {},
				"version": 1
			},
			"evm": {
				"assembly": "    /* \"contracts/Vote.sol\":143:2763  contract Vote {... */\n  mstore(0x40, 0x80)\n    /* \"contracts/Vote.sol\":333:337  true */\n  0x01\n    /* \"contracts/Vote.sol\":312:337  bool public closed = true */\n  0x02\n  exp(0x0100, 0x00)\n  dup2\n  sload\n  dup2\n  0xff\n  mul\n  not\n  and\n  swap1\n  dup4\n  iszero\n  iszero\n  mul\n  or\n  swap1\n  sstore\n  pop\n    /* \"contracts/Vote.sol\":1164:1204  constructor() {... */\n  callvalue\n  dup1\n  iszero\n  tag_1\n  jumpi\n  0x00\n  dup1\n  revert\ntag_1:\n  pop\n    /* \"contracts/Vote.sol\":1190:1200  msg.sender */\n  caller\n    /* \"contracts/Vote.sol\":1182:1187  owner */\n  0x00\n  dup1\n    /* \"contracts/Vote.sol\":1182:1200  owner = msg.sender */\n  0x0100\n  exp\n  dup2\n  sload\n  dup2\n  0xffffffffffffffffffffffffffffffffffffffff\n  mul\n  not\n  and\n  swap1\n  dup4\n  0xffffffffffffffffffffffffffffffffffffffff\n  and\n  mul\n  or\n  swap1\n  sstore\n  pop\n    /* \"contracts/Vote.sol\":143:2763  contract Vote {... */\n  dataSize(sub_0)\n  dup1\n  dataOffset(sub_0)\n  0x00\n  codecopy\n  0x00\n  return\nstop\n\nsub_0: assembly {\n        /* \"contracts/Vote.sol\":143:2763  contract Vote {... */\n      mstore(0x40, 0x80)\n      callvalue\n      dup1\n      iszero\n      tag_1\n      jumpi\n      0x00\n      dup1\n      revert\n    tag_1:\n      pop\n      jumpi(tag_2, lt(calldatasize, 0x04))\n      shr(0xe0, calldataload(0x00))\n      dup1\n      0xaf0dbe54\n      gt\n      tag_21\n      jumpi\n      dup1\n      0xd83b2c05\n      gt\n      tag_22\n      jumpi\n      dup1\n      0xd83b2c05\n      eq\n      tag_16\n      jumpi\n      dup1\n      0xdfbf53ae\n      eq\n      tag_17\n      jumpi\n      dup1\n      0xe318e7d5\n      eq\n      tag_18\n      jumpi\n      dup1\n      0xf4ab9adf\n      eq\n      tag_19\n      jumpi\n      dup1\n      0xfcfff16f\n      eq\n      tag_20\n      jumpi\n      jump(tag_2)\n    tag_22:\n      dup1\n      0xaf0dbe54\n      eq\n      tag_12\n      jumpi\n      dup1\n      0xc29e1a56\n      eq\n      tag_13\n      jumpi\n      dup1\n      0xc71f4253\n      eq\n      tag_14\n      jumpi\n      dup1\n      0xcdcbc3c2\n      eq\n      tag_15\n      jumpi\n      jump(tag_2)\n    tag_21:\n      dup1\n      0x4eda77e1\n      gt\n      tag_23\n      jumpi\n      dup1\n      0x4eda77e1\n      eq\n      tag_7\n      jumpi\n      dup1\n      0x50e2e8af\n      eq\n      tag_8\n      jumpi\n      dup1\n      0x597e1fb5\n      eq\n      tag_9\n      jumpi\n      dup1\n      0x8da5cb5b\n      eq\n      tag_10\n      jumpi\n      dup1\n      0x9811c7c1\n      eq\n      tag_11\n      jumpi\n      jump(tag_2)\n    tag_23:\n      dup1\n      0x0121b93f\n      eq\n      tag_3\n      jumpi\n      dup1\n      0x1b9ebe54\n      eq\n      tag_4\n      jumpi\n      dup1\n      0x36002617\n      eq\n      tag_5\n      jumpi\n      dup1\n      0x43d726d6\n      eq\n      tag_6\n      jumpi\n    tag_2:\n      0x00\n      dup1\n      revert\n        /* \"contracts/Vote.sol\":1924:2219  function vote(uint _target) public {... */\n    tag_3:\n      tag_24\n      0x04\n      dup1\n      calldatasize\n      sub\n      dup2\n      add\n      swap1\n      tag_25\n      swap2\n      swap1\n      tag_26\n      jump\t// in\n    tag_25:\n      tag_27\n      jump\t// in\n    tag_24:\n      stop\n        /* \"contracts/Vote.sol\":1828:1921  function getVotedTarget(address _voter) public view returns (int){... */\n    tag_4:\n      tag_28\n      0x04\n      dup1\n      calldatasize\n      sub\n      dup2\n      add\n      swap1\n      tag_29\n      swap2\n      swap1\n      tag_30\n      jump\t// in\n    tag_29:\n      tag_31\n      jump\t// in\n    tag_28:\n      mload(0x40)\n      tag_32\n      swap2\n      swap1\n      tag_33\n      jump\t// in\n    tag_32:\n      mload(0x40)\n      dup1\n      swap2\n      sub\n      swap1\n      return\n        /* \"contracts/Vote.sol\":1206:1342  function addTarget(uint _targetID) public{... */\n    tag_5:\n      tag_34\n      0x04\n      dup1\n      calldatasize\n      sub\n      dup2\n      add\n      swap1\n      tag_35\n      swap2\n      swap1\n      tag_26\n      jump\t// in\n    tag_35:\n      tag_36\n      jump\t// in\n    tag_34:\n      stop\n        /* \"contracts/Vote.sol\":2605:2682  function close() public {... */\n    tag_6:\n      tag_37\n      tag_38\n      jump\t// in\n    tag_37:\n      stop\n        /* \"contracts/Vote.sol\":2264:2602  function revote(uint _target) public {... */\n    tag_7:\n      tag_39\n      0x04\n      dup1\n      calldatasize\n      sub\n      dup2\n      add\n      swap1\n      tag_40\n      swap2\n      swap1\n      tag_26\n      jump\t// in\n    tag_40:\n      tag_41\n      jump\t// in\n    tag_39:\n      stop\n        /* \"contracts/Vote.sol\":538:564  address[] public voterList */\n    tag_8:\n      tag_42\n      0x04\n      dup1\n      calldatasize\n      sub\n      dup2\n      add\n      swap1\n      tag_43\n      swap2\n      swap1\n      tag_26\n      jump\t// in\n    tag_43:\n      tag_44\n      jump\t// in\n    tag_42:\n      mload(0x40)\n      tag_45\n      swap2\n      swap1\n      tag_46\n      jump\t// in\n    tag_45:\n      mload(0x40)\n      dup1\n      swap2\n      sub\n      swap1\n      return\n        /* \"contracts/Vote.sol\":312:337  bool public closed = true */\n    tag_9:\n      tag_47\n      tag_48\n      jump\t// in\n    tag_47:\n      mload(0x40)\n      tag_49\n      swap2\n      swap1\n      tag_50\n      jump\t// in\n    tag_49:\n      mload(0x40)\n      dup1\n      swap2\n      sub\n      swap1\n      return\n        /* \"contracts/Vote.sol\":160:180  address public owner */\n    tag_10:\n      tag_51\n      tag_52\n      jump\t// in\n    tag_51:\n      mload(0x40)\n      tag_53\n      swap2\n      swap1\n      tag_46\n      jump\t// in\n    tag_53:\n      mload(0x40)\n      dup1\n      swap2\n      sub\n      swap1\n      return\n        /* \"contracts/Vote.sol\":466:501  mapping(uint => uint) public target */\n    tag_11:\n      tag_54\n      0x04\n      dup1\n      calldatasize\n      sub\n      dup2\n      add\n      swap1\n      tag_55\n      swap2\n      swap1\n      tag_26\n      jump\t// in\n    tag_55:\n      tag_56\n      jump\t// in\n    tag_54:\n      mload(0x40)\n      tag_57\n      swap2\n      swap1\n      tag_58\n      jump\t// in\n    tag_57:\n      mload(0x40)\n      dup1\n      swap2\n      sub\n      swap1\n      return\n        /* \"contracts/Vote.sol\":624:660  mapping(address => int) public voter */\n    tag_12:\n      tag_59\n      0x04\n      dup1\n      calldatasize\n      sub\n      dup2\n      add\n      swap1\n      tag_60\n      swap2\n      swap1\n      tag_30\n      jump\t// in\n    tag_60:\n      tag_61\n      jump\t// in\n    tag_59:\n      mload(0x40)\n      tag_62\n      swap2\n      swap1\n      tag_33\n      jump\t// in\n    tag_62:\n      mload(0x40)\n      dup1\n      swap2\n      sub\n      swap1\n      return\n        /* \"contracts/Vote.sol\":396:420  uint[] public targetList */\n    tag_13:\n      tag_63\n      0x04\n      dup1\n      calldatasize\n      sub\n      dup2\n      add\n      swap1\n      tag_64\n      swap2\n      swap1\n      tag_26\n      jump\t// in\n    tag_64:\n      tag_65\n      jump\t// in\n    tag_63:\n      mload(0x40)\n      tag_66\n      swap2\n      swap1\n      tag_58\n      jump\t// in\n    tag_66:\n      mload(0x40)\n      dup1\n      swap2\n      sub\n      swap1\n      return\n        /* \"contracts/Vote.sol\":1344:1427  function getNumberOfVotes(uint i) public view returns(uint){... */\n    tag_14:\n      tag_67\n      0x04\n      dup1\n      calldatasize\n      sub\n      dup2\n      add\n      swap1\n      tag_68\n      swap2\n      swap1\n      tag_26\n      jump\t// in\n    tag_68:\n      tag_69\n      jump\t// in\n    tag_67:\n      mload(0x40)\n      tag_70\n      swap2\n      swap1\n      tag_58\n      jump\t// in\n    tag_70:\n      mload(0x40)\n      dup1\n      swap2\n      sub\n      swap1\n      return\n        /* \"contracts/Vote.sol\":1648:1735  function getVoterArrayLength() public view returns(uint){... */\n    tag_15:\n      tag_71\n      tag_72\n      jump\t// in\n    tag_71:\n      mload(0x40)\n      tag_73\n      swap2\n      swap1\n      tag_58\n      jump\t// in\n    tag_73:\n      mload(0x40)\n      dup1\n      swap2\n      sub\n      swap1\n      return\n        /* \"contracts/Vote.sol\":1737:1826  function getVoterAddress(uint i) public view returns (address){... */\n    tag_16:\n      tag_74\n      0x04\n      dup1\n      calldatasize\n      sub\n      dup2\n      add\n      swap1\n      tag_75\n      swap2\n      swap1\n      tag_26\n      jump\t// in\n    tag_75:\n      tag_76\n      jump\t// in\n    tag_74:\n      mload(0x40)\n      tag_77\n      swap2\n      swap1\n      tag_46\n      jump\t// in\n    tag_77:\n      mload(0x40)\n      dup1\n      swap2\n      sub\n      swap1\n      return\n        /* \"contracts/Vote.sol\":254:272  uint public winner */\n    tag_17:\n      tag_78\n      tag_79\n      jump\t// in\n    tag_78:\n      mload(0x40)\n      tag_80\n      swap2\n      swap1\n      tag_58\n      jump\t// in\n    tag_80:\n      mload(0x40)\n      dup1\n      swap2\n      sub\n      swap1\n      return\n        /* \"contracts/Vote.sol\":1429:1518  function getTargetArrayLength() public view returns(uint){... */\n    tag_18:\n      tag_81\n      tag_82\n      jump\t// in\n    tag_81:\n      mload(0x40)\n      tag_83\n      swap2\n      swap1\n      tag_58\n      jump\t// in\n    tag_83:\n      mload(0x40)\n      dup1\n      swap2\n      sub\n      swap1\n      return\n        /* \"contracts/Vote.sol\":1521:1646  function addVoter(address _voter) public {... */\n    tag_19:\n      tag_84\n      0x04\n      dup1\n      calldatasize\n      sub\n      dup2\n      add\n      swap1\n      tag_85\n      swap2\n      swap1\n      tag_30\n      jump\t// in\n    tag_85:\n      tag_86\n      jump\t// in\n    tag_84:\n      stop\n        /* \"contracts/Vote.sol\":2684:2761  function open() public {... */\n    tag_20:\n      tag_87\n      tag_88\n      jump\t// in\n    tag_87:\n      stop\n        /* \"contracts/Vote.sol\":1924:2219  function vote(uint _target) public {... */\n    tag_27:\n        /* \"contracts/Vote.sol\":1988:1990  -1 */\n      0xffffffffffffffffffffffffffffffffffffffffffffffffffffffffffffffff\n        /* \"contracts/Vote.sol\":1967:1972  voter */\n      0x06\n        /* \"contracts/Vote.sol\":1967:1984  voter[msg.sender] */\n      0x00\n        /* \"contracts/Vote.sol\":1973:1983  msg.sender */\n      caller\n        /* \"contracts/Vote.sol\":1967:1984  voter[msg.sender] */\n      0xffffffffffffffffffffffffffffffffffffffff\n      and\n      0xffffffffffffffffffffffffffffffffffffffff\n      and\n      dup2\n      mstore\n      0x20\n      add\n      swap1\n      dup2\n      mstore\n      0x20\n      add\n      0x00\n      keccak256\n      sload\n        /* \"contracts/Vote.sol\":1967:1990  voter[msg.sender] == -1 */\n      eq\n        /* \"contracts/Vote.sol\":1963:2216  if (voter[msg.sender] == -1) {... */\n      iszero\n      tag_90\n      jumpi\n        /* \"contracts/Vote.sol\":1997:2008  bool _exist */\n      0x00\n        /* \"contracts/Vote.sol\":2018:2024  uint i */\n      dup1\n        /* \"contracts/Vote.sol\":2027:2028  0 */\n      0x00\n        /* \"contracts/Vote.sol\":2018:2028  uint i = 0 */\n      swap1\n      pop\n        /* \"contracts/Vote.sol\":2013:2126  for (uint i = 0; i < targetList.length; i++) {... */\n    tag_91:\n        /* \"contracts/Vote.sol\":2034:2044  targetList */\n      0x03\n        /* \"contracts/Vote.sol\":2034:2051  targetList.length */\n      dup1\n      sload\n      swap1\n      pop\n        /* \"contracts/Vote.sol\":2030:2031  i */\n      dup2\n        /* \"contracts/Vote.sol\":2030:2051  i < targetList.length */\n      lt\n        /* \"contracts/Vote.sol\":2013:2126  for (uint i = 0; i < targetList.length; i++) {... */\n      iszero\n      tag_92\n      jumpi\n        /* \"contracts/Vote.sol\":2085:2092  _target */\n      dup3\n        /* \"contracts/Vote.sol\":2068:2078  targetList */\n      0x03\n        /* \"contracts/Vote.sol\":2079:2080  i */\n      dup3\n        /* \"contracts/Vote.sol\":2068:2081  targetList[i] */\n      dup2\n      sload\n      dup2\n      lt\n      tag_94\n      jumpi\n      tag_95\n      tag_96\n      jump\t// in\n    tag_95:\n    tag_94:\n      swap1\n      0x00\n      mstore\n      keccak256(0x00, 0x20)\n      add\n      sload\n        /* \"contracts/Vote.sol\":2068:2092  targetList[i] == _target */\n      eq\n        /* \"contracts/Vote.sol\":2064:2121  if (targetList[i] == _target) {... */\n      iszero\n      tag_98\n      jumpi\n        /* \"contracts/Vote.sol\":2110:2114  true */\n      0x01\n        /* \"contracts/Vote.sol\":2101:2114  _exist = true */\n      swap2\n      pop\n        /* \"contracts/Vote.sol\":2064:2121  if (targetList[i] == _target) {... */\n    tag_98:\n        /* \"contracts/Vote.sol\":2053:2056  i++ */\n      dup1\n      dup1\n      tag_99\n      swap1\n      tag_100\n      jump\t// in\n    tag_99:\n      swap2\n      pop\n      pop\n        /* \"contracts/Vote.sol\":2013:2126  for (uint i = 0; i < targetList.length; i++) {... */\n      jump(tag_91)\n    tag_92:\n      pop\n        /* \"contracts/Vote.sol\":2134:2140  _exist */\n      dup1\n        /* \"contracts/Vote.sol\":2130:2212  if (_exist) {... */\n      iszero\n      tag_101\n      jumpi\n        /* \"contracts/Vote.sol\":2167:2168  1 */\n      0x01\n        /* \"contracts/Vote.sol\":2148:2154  target */\n      0x04\n        /* \"contracts/Vote.sol\":2148:2163  target[_target] */\n      0x00\n        /* \"contracts/Vote.sol\":2155:2162  _target */\n      dup5\n        /* \"contracts/Vote.sol\":2148:2163  target[_target] */\n      dup2\n      mstore\n      0x20\n      add\n      swap1\n      dup2\n      mstore\n      0x20\n      add\n      0x00\n      keccak256\n      0x00\n        /* \"contracts/Vote.sol\":2148:2168  target[_target] += 1 */\n      dup3\n      dup3\n      sload\n      tag_102\n      swap2\n      swap1\n      tag_103\n      jump\t// in\n    tag_102:\n      swap3\n      pop\n      pop\n      dup2\n      swap1\n      sstore\n      pop\n        /* \"contracts/Vote.sol\":2198:2205  _target */\n      dup2\n        /* \"contracts/Vote.sol\":2174:2179  voter */\n      0x06\n        /* \"contracts/Vote.sol\":2174:2191  voter[msg.sender] */\n      0x00\n        /* \"contracts/Vote.sol\":2180:2190  msg.sender */\n      caller\n        /* \"contracts/Vote.sol\":2174:2191  voter[msg.sender] */\n      0xffffffffffffffffffffffffffffffffffffffff\n      and\n      0xffffffffffffffffffffffffffffffffffffffff\n      and\n      dup2\n      mstore\n      0x20\n      add\n      swap1\n      dup2\n      mstore\n      0x20\n      add\n      0x00\n      keccak256\n        /* \"contracts/Vote.sol\":2174:2206  voter[msg.sender] = int(_target) */\n      dup2\n      swap1\n      sstore\n      pop\n        /* \"contracts/Vote.sol\":2130:2212  if (_exist) {... */\n    tag_101:\n        /* \"contracts/Vote.sol\":1992:2216  {... */\n      pop\n        /* \"contracts/Vote.sol\":1963:2216  if (voter[msg.sender] == -1) {... */\n    tag_90:\n        /* \"contracts/Vote.sol\":1924:2219  function vote(uint _target) public {... */\n      pop\n      jump\t// out\n        /* \"contracts/Vote.sol\":1828:1921  function getVotedTarget(address _voter) public view returns (int){... */\n    tag_31:\n        /* \"contracts/Vote.sol\":1889:1892  int */\n      0x00\n        /* \"contracts/Vote.sol\":1904:1909  voter */\n      0x06\n        /* \"contracts/Vote.sol\":1904:1917  voter[_voter] */\n      0x00\n        /* \"contracts/Vote.sol\":1910:1916  _voter */\n      dup4\n        /* \"contracts/Vote.sol\":1904:1917  voter[_voter] */\n      0xffffffffffffffffffffffffffffffffffffffff\n      and\n      0xffffffffffffffffffffffffffffffffffffffff\n      and\n      dup2\n      mstore\n      0x20\n      add\n      swap1\n      dup2\n      mstore\n      0x20\n      add\n      0x00\n      keccak256\n      sload\n        /* \"contracts/Vote.sol\":1897:1917  return voter[_voter] */\n      swap1\n      pop\n        /* \"contracts/Vote.sol\":1828:1921  function getVotedTarget(address _voter) public view returns (int){... */\n      swap2\n      swap1\n      pop\n      jump\t// out\n        /* \"contracts/Vote.sol\":1206:1342  function addTarget(uint _targetID) public{... */\n    tag_36:\n        /* \"contracts/Vote.sol\":1273:1278  owner */\n      0x00\n      dup1\n      sload\n      swap1\n      0x0100\n      exp\n      swap1\n      div\n      0xffffffffffffffffffffffffffffffffffffffff\n      and\n        /* \"contracts/Vote.sol\":1259:1278  msg.sender == owner */\n      0xffffffffffffffffffffffffffffffffffffffff\n      and\n        /* \"contracts/Vote.sol\":1259:1269  msg.sender */\n      caller\n        /* \"contracts/Vote.sol\":1259:1278  msg.sender == owner */\n      0xffffffffffffffffffffffffffffffffffffffff\n      and\n      eq\n        /* \"contracts/Vote.sol\":1251:1279  require(msg.sender == owner) */\n      tag_106\n      jumpi\n      0x00\n      dup1\n      revert\n    tag_106:\n        /* \"contracts/Vote.sol\":1283:1293  targetList */\n      0x03\n        /* \"contracts/Vote.sol\":1299:1308  _targetID */\n      dup2\n        /* \"contracts/Vote.sol\":1283:1309  targetList.push(_targetID) */\n      swap1\n      dup1\n      0x01\n      dup2\n      sload\n      add\n      dup1\n      dup3\n      sstore\n      dup1\n      swap2\n      pop\n      pop\n      0x01\n      swap1\n      sub\n      swap1\n      0x00\n      mstore\n      keccak256(0x00, 0x20)\n      add\n      0x00\n      swap1\n      swap2\n      swap1\n      swap2\n      swap1\n      swap2\n      pop\n      sstore\n        /* \"contracts/Vote.sol\":1336:1337  0 */\n      0x00\n        /* \"contracts/Vote.sol\":1313:1319  target */\n      0x04\n        /* \"contracts/Vote.sol\":1313:1330  target[_targetID] */\n      0x00\n        /* \"contracts/Vote.sol\":1320:1329  _targetID */\n      dup4\n        /* \"contracts/Vote.sol\":1313:1330  target[_targetID] */\n      dup2\n      mstore\n      0x20\n      add\n      swap1\n      dup2\n      mstore\n      0x20\n      add\n      0x00\n      keccak256\n        /* \"contracts/Vote.sol\":1313:1338  target[_targetID]=uint(0) */\n      dup2\n      swap1\n      sstore\n      pop\n        /* \"contracts/Vote.sol\":1206:1342  function addTarget(uint _targetID) public{... */\n      pop\n      jump\t// out\n        /* \"contracts/Vote.sol\":2605:2682  function close() public {... */\n    tag_38:\n        /* \"contracts/Vote.sol\":2655:2660  owner */\n      0x00\n      dup1\n      sload\n      swap1\n      0x0100\n      exp\n      swap1\n      div\n      0xffffffffffffffffffffffffffffffffffffffff\n      and\n        /* \"contracts/Vote.sol\":2641:2660  msg.sender == owner */\n      0xffffffffffffffffffffffffffffffffffffffff\n      and\n        /* \"contracts/Vote.sol\":2641:2651  msg.sender */\n      caller\n        /* \"contracts/Vote.sol\":2641:2660  msg.sender == owner */\n      0xffffffffffffffffffffffffffffffffffffffff\n      and\n      eq\n        /* \"contracts/Vote.sol\":2633:2661  require(msg.sender == owner) */\n      tag_109\n      jumpi\n      0x00\n      dup1\n      revert\n    tag_109:\n        /* \"contracts/Vote.sol\":2674:2678  true */\n      0x01\n        /* \"contracts/Vote.sol\":2665:2671  closed */\n      0x02\n      0x00\n        /* \"contracts/Vote.sol\":2665:2678  closed = true */\n      0x0100\n      exp\n      dup2\n      sload\n      dup2\n      0xff\n      mul\n      not\n      and\n      swap1\n      dup4\n      iszero\n      iszero\n      mul\n      or\n      swap1\n      sstore\n      pop\n        /* \"contracts/Vote.sol\":2605:2682  function close() public {... */\n      jump\t// out\n        /* \"contracts/Vote.sol\":2264:2602  function revote(uint _target) public {... */\n    tag_41:\n        /* \"contracts/Vote.sol\":2330:2331  0 */\n      0x00\n        /* \"contracts/Vote.sol\":2309:2314  voter */\n      0x06\n        /* \"contracts/Vote.sol\":2309:2326  voter[msg.sender] */\n      0x00\n        /* \"contracts/Vote.sol\":2315:2325  msg.sender */\n      caller\n        /* \"contracts/Vote.sol\":2309:2326  voter[msg.sender] */\n      0xffffffffffffffffffffffffffffffffffffffff\n      and\n      0xffffffffffffffffffffffffffffffffffffffff\n      and\n      dup2\n      mstore\n      0x20\n      add\n      swap1\n      dup2\n      mstore\n      0x20\n      add\n      0x00\n      keccak256\n      sload\n        /* \"contracts/Vote.sol\":2309:2331  voter[msg.sender] != 0 */\n      eq\n        /* \"contracts/Vote.sol\":2305:2599  if (voter[msg.sender] != 0) {... */\n      tag_111\n      jumpi\n        /* \"contracts/Vote.sol\":2338:2349  bool _exist */\n      0x00\n        /* \"contracts/Vote.sol\":2359:2365  uint i */\n      dup1\n        /* \"contracts/Vote.sol\":2368:2369  0 */\n      0x00\n        /* \"contracts/Vote.sol\":2359:2369  uint i = 0 */\n      swap1\n      pop\n        /* \"contracts/Vote.sol\":2354:2467  for (uint i = 0; i < targetList.length; i++) {... */\n    tag_112:\n        /* \"contracts/Vote.sol\":2375:2385  targetList */\n      0x03\n        /* \"contracts/Vote.sol\":2375:2392  targetList.length */\n      dup1\n      sload\n      swap1\n      pop\n        /* \"contracts/Vote.sol\":2371:2372  i */\n      dup2\n        /* \"contracts/Vote.sol\":2371:2392  i < targetList.length */\n      lt\n        /* \"contracts/Vote.sol\":2354:2467  for (uint i = 0; i < targetList.length; i++) {... */\n      iszero\n      tag_113\n      jumpi\n        /* \"contracts/Vote.sol\":2426:2433  _target */\n      dup3\n        /* \"contracts/Vote.sol\":2409:2419  targetList */\n      0x03\n        /* \"contracts/Vote.sol\":2420:2421  i */\n      dup3\n        /* \"contracts/Vote.sol\":2409:2422  targetList[i] */\n      dup2\n      sload\n      dup2\n      lt\n      tag_115\n      jumpi\n      tag_116\n      tag_96\n      jump\t// in\n    tag_116:\n    tag_115:\n      swap1\n      0x00\n      mstore\n      keccak256(0x00, 0x20)\n      add\n      sload\n        /* \"contracts/Vote.sol\":2409:2433  targetList[i] == _target */\n      eq\n        /* \"contracts/Vote.sol\":2405:2462  if (targetList[i] == _target) {... */\n      iszero\n      tag_118\n      jumpi\n        /* \"contracts/Vote.sol\":2451:2455  true */\n      0x01\n        /* \"contracts/Vote.sol\":2442:2455  _exist = true */\n      swap2\n      pop\n        /* \"contracts/Vote.sol\":2405:2462  if (targetList[i] == _target) {... */\n    tag_118:\n        /* \"contracts/Vote.sol\":2394:2397  i++ */\n      dup1\n      dup1\n      tag_119\n      swap1\n      tag_100\n      jump\t// in\n    tag_119:\n      swap2\n      pop\n      pop\n        /* \"contracts/Vote.sol\":2354:2467  for (uint i = 0; i < targetList.length; i++) {... */\n      jump(tag_112)\n    tag_113:\n      pop\n        /* \"contracts/Vote.sol\":2475:2481  _exist */\n      dup1\n        /* \"contracts/Vote.sol\":2471:2595  if (_exist) {... */\n      iszero\n      tag_120\n      jumpi\n        /* \"contracts/Vote.sol\":2524:2525  1 */\n      0x01\n        /* \"contracts/Vote.sol\":2489:2495  target */\n      0x04\n        /* \"contracts/Vote.sol\":2489:2520  target[uint(voter[msg.sender])] */\n      0x00\n        /* \"contracts/Vote.sol\":2501:2506  voter */\n      0x06\n        /* \"contracts/Vote.sol\":2501:2518  voter[msg.sender] */\n      0x00\n        /* \"contracts/Vote.sol\":2507:2517  msg.sender */\n      caller\n        /* \"contracts/Vote.sol\":2501:2518  voter[msg.sender] */\n      0xffffffffffffffffffffffffffffffffffffffff\n      and\n      0xffffffffffffffffffffffffffffffffffffffff\n      and\n      dup2\n      mstore\n      0x20\n      add\n      swap1\n      dup2\n      mstore\n      0x20\n      add\n      0x00\n      keccak256\n      sload\n        /* \"contracts/Vote.sol\":2489:2520  target[uint(voter[msg.sender])] */\n      dup2\n      mstore\n      0x20\n      add\n      swap1\n      dup2\n      mstore\n      0x20\n      add\n      0x00\n      keccak256\n      0x00\n        /* \"contracts/Vote.sol\":2489:2525  target[uint(voter[msg.sender])] -= 1 */\n      dup3\n      dup3\n      sload\n      tag_121\n      swap2\n      swap1\n      tag_122\n      jump\t// in\n    tag_121:\n      swap3\n      pop\n      pop\n      dup2\n      swap1\n      sstore\n      pop\n        /* \"contracts/Vote.sol\":2550:2551  1 */\n      0x01\n        /* \"contracts/Vote.sol\":2531:2537  target */\n      0x04\n        /* \"contracts/Vote.sol\":2531:2546  target[_target] */\n      0x00\n        /* \"contracts/Vote.sol\":2538:2545  _target */\n      dup5\n        /* \"contracts/Vote.sol\":2531:2546  target[_target] */\n      dup2\n      mstore\n      0x20\n      add\n      swap1\n      dup2\n      mstore\n      0x20\n      add\n      0x00\n      keccak256\n      0x00\n        /* \"contracts/Vote.sol\":2531:2551  target[_target] += 1 */\n      dup3\n      dup3\n      sload\n      tag_123\n      swap2\n      swap1\n      tag_103\n      jump\t// in\n    tag_123:\n      swap3\n      pop\n      pop\n      dup2\n      swap1\n      sstore\n      pop\n        /* \"contracts/Vote.sol\":2581:2588  _target */\n      dup2\n        /* \"contracts/Vote.sol\":2557:2562  voter */\n      0x06\n        /* \"contracts/Vote.sol\":2557:2574  voter[msg.sender] */\n      0x00\n        /* \"contracts/Vote.sol\":2563:2573  msg.sender */\n      caller\n        /* \"contracts/Vote.sol\":2557:2574  voter[msg.sender] */\n      0xffffffffffffffffffffffffffffffffffffffff\n      and\n      0xffffffffffffffffffffffffffffffffffffffff\n      and\n      dup2\n      mstore\n      0x20\n      add\n      swap1\n      dup2\n      mstore\n      0x20\n      add\n      0x00\n      keccak256\n        /* \"contracts/Vote.sol\":2557:2589  voter[msg.sender] = int(_target) */\n      dup2\n      swap1\n      sstore\n      pop\n        /* \"contracts/Vote.sol\":2471:2595  if (_exist) {... */\n    tag_120:\n        /* \"contracts/Vote.sol\":2333:2599  {... */\n      pop\n        /* \"contracts/Vote.sol\":2305:2599  if (voter[msg.sender] != 0) {... */\n    tag_111:\n        /* \"contracts/Vote.sol\":2264:2602  function revote(uint _target) public {... */\n      pop\n      jump\t// out\n        /* \"contracts/Vote.sol\":538:564  address[] public voterList */\n    tag_44:\n      0x05\n      dup2\n      dup2\n      sload\n      dup2\n      lt\n      tag_124\n      jumpi\n      0x00\n      dup1\n      revert\n    tag_124:\n      swap1\n      0x00\n      mstore\n      keccak256(0x00, 0x20)\n      add\n      0x00\n      swap2\n      pop\n      sload\n      swap1\n      0x0100\n      exp\n      swap1\n      div\n      0xffffffffffffffffffffffffffffffffffffffff\n      and\n      dup2\n      jump\t// out\n        /* \"contracts/Vote.sol\":312:337  bool public closed = true */\n    tag_48:\n      0x02\n      0x00\n      swap1\n      sload\n      swap1\n      0x0100\n      exp\n      swap1\n      div\n      0xff\n      and\n      dup2\n      jump\t// out\n        /* \"contracts/Vote.sol\":160:180  address public owner */\n    tag_52:\n      0x00\n      dup1\n      sload\n      swap1\n      0x0100\n      exp\n      swap1\n      div\n      0xffffffffffffffffffffffffffffffffffffffff\n      and\n      dup2\n      jump\t// out\n        /* \"contracts/Vote.sol\":466:501  mapping(uint => uint) public target */\n    tag_56:\n      mstore(0x20, 0x04)\n      dup1\n      0x00\n      mstore\n      keccak256(0x00, 0x40)\n      0x00\n      swap2\n      pop\n      swap1\n      pop\n      sload\n      dup2\n      jump\t// out\n        /* \"contracts/Vote.sol\":624:660  mapping(address => int) public voter */\n    tag_61:\n      mstore(0x20, 0x06)\n      dup1\n      0x00\n      mstore\n      keccak256(0x00, 0x40)\n      0x00\n      swap2\n      pop\n      swap1\n      pop\n      sload\n      dup2\n      jump\t// out\n        /* \"contracts/Vote.sol\":396:420  uint[] public targetList */\n    tag_65:\n      0x03\n      dup2\n      dup2\n      sload\n      dup2\n      lt\n      tag_126\n      jumpi\n      0x00\n      dup1\n      revert\n    tag_126:\n      swap1\n      0x00\n      mstore\n      keccak256(0x00, 0x20)\n      add\n      0x00\n      swap2\n      pop\n      swap1\n      pop\n      sload\n      dup2\n      jump\t// out\n        /* \"contracts/Vote.sol\":1344:1427  function getNumberOfVotes(uint i) public view returns(uint){... */\n    tag_69:\n        /* \"contracts/Vote.sol\":1398:1402  uint */\n      0x00\n        /* \"contracts/Vote.sol\":1414:1420  target */\n      0x04\n        /* \"contracts/Vote.sol\":1414:1423  target[i] */\n      0x00\n        /* \"contracts/Vote.sol\":1421:1422  i */\n      dup4\n        /* \"contracts/Vote.sol\":1414:1423  target[i] */\n      dup2\n      mstore\n      0x20\n      add\n      swap1\n      dup2\n      mstore\n      0x20\n      add\n      0x00\n      keccak256\n      sload\n        /* \"contracts/Vote.sol\":1407:1423  return target[i] */\n      swap1\n      pop\n        /* \"contracts/Vote.sol\":1344:1427  function getNumberOfVotes(uint i) public view returns(uint){... */\n      swap2\n      swap1\n      pop\n      jump\t// out\n        /* \"contracts/Vote.sol\":1648:1735  function getVoterArrayLength() public view returns(uint){... */\n    tag_72:\n        /* \"contracts/Vote.sol\":1699:1703  uint */\n      0x00\n        /* \"contracts/Vote.sol\":1715:1724  voterList */\n      0x05\n        /* \"contracts/Vote.sol\":1715:1731  voterList.length */\n      dup1\n      sload\n      swap1\n      pop\n        /* \"contracts/Vote.sol\":1708:1731  return voterList.length */\n      swap1\n      pop\n        /* \"contracts/Vote.sol\":1648:1735  function getVoterArrayLength() public view returns(uint){... */\n      swap1\n      jump\t// out\n        /* \"contracts/Vote.sol\":1737:1826  function getVoterAddress(uint i) public view returns (address){... */\n    tag_76:\n        /* \"contracts/Vote.sol\":1791:1798  address */\n      0x00\n        /* \"contracts/Vote.sol\":1810:1819  voterList */\n      0x05\n        /* \"contracts/Vote.sol\":1820:1821  i */\n      dup3\n        /* \"contracts/Vote.sol\":1810:1822  voterList[i] */\n      dup2\n      sload\n      dup2\n      lt\n      tag_131\n      jumpi\n      tag_132\n      tag_96\n      jump\t// in\n    tag_132:\n    tag_131:\n      swap1\n      0x00\n      mstore\n      keccak256(0x00, 0x20)\n      add\n      0x00\n      swap1\n      sload\n      swap1\n      0x0100\n      exp\n      swap1\n      div\n      0xffffffffffffffffffffffffffffffffffffffff\n      and\n        /* \"contracts/Vote.sol\":1803:1822  return voterList[i] */\n      swap1\n      pop\n        /* \"contracts/Vote.sol\":1737:1826  function getVoterAddress(uint i) public view returns (address){... */\n      swap2\n      swap1\n      pop\n      jump\t// out\n        /* \"contracts/Vote.sol\":254:272  uint public winner */\n    tag_79:\n      sload(0x01)\n      dup2\n      jump\t// out\n        /* \"contracts/Vote.sol\":1429:1518  function getTargetArrayLength() public view returns(uint){... */\n    tag_82:\n        /* \"contracts/Vote.sol\":1481:1485  uint */\n      0x00\n        /* \"contracts/Vote.sol\":1497:1507  targetList */\n      0x03\n        /* \"contracts/Vote.sol\":1497:1514  targetList.length */\n      dup1\n      sload\n      swap1\n      pop\n        /* \"contracts/Vote.sol\":1490:1514  return targetList.length */\n      swap1\n      pop\n        /* \"contracts/Vote.sol\":1429:1518  function getTargetArrayLength() public view returns(uint){... */\n      swap1\n      jump\t// out\n        /* \"contracts/Vote.sol\":1521:1646  function addVoter(address _voter) public {... */\n    tag_86:\n        /* \"contracts/Vote.sol\":1588:1593  owner */\n      0x00\n      dup1\n      sload\n      swap1\n      0x0100\n      exp\n      swap1\n      div\n      0xffffffffffffffffffffffffffffffffffffffff\n      and\n        /* \"contracts/Vote.sol\":1574:1593  msg.sender == owner */\n      0xffffffffffffffffffffffffffffffffffffffff\n      and\n        /* \"contracts/Vote.sol\":1574:1584  msg.sender */\n      caller\n        /* \"contracts/Vote.sol\":1574:1593  msg.sender == owner */\n      0xffffffffffffffffffffffffffffffffffffffff\n      and\n      eq\n        /* \"contracts/Vote.sol\":1566:1594  require(msg.sender == owner) */\n      tag_136\n      jumpi\n      0x00\n      dup1\n      revert\n    tag_136:\n        /* \"contracts/Vote.sol\":1599:1608  voterList */\n      0x05\n        /* \"contracts/Vote.sol\":1614:1620  _voter */\n      dup2\n        /* \"contracts/Vote.sol\":1599:1621  voterList.push(_voter) */\n      swap1\n      dup1\n      0x01\n      dup2\n      sload\n      add\n      dup1\n      dup3\n      sstore\n      dup1\n      swap2\n      pop\n      pop\n      0x01\n      swap1\n      sub\n      swap1\n      0x00\n      mstore\n      keccak256(0x00, 0x20)\n      add\n      0x00\n      swap1\n      swap2\n      swap1\n      swap2\n      swap1\n      swap2\n      0x0100\n      exp\n      dup2\n      sload\n      dup2\n      0xffffffffffffffffffffffffffffffffffffffff\n      mul\n      not\n      and\n      swap1\n      dup4\n      0xffffffffffffffffffffffffffffffffffffffff\n      and\n      mul\n      or\n      swap1\n      sstore\n      pop\n        /* \"contracts/Vote.sol\":1640:1642  -1 */\n      0xffffffffffffffffffffffffffffffffffffffffffffffffffffffffffffffff\n        /* \"contracts/Vote.sol\":1626:1631  voter */\n      0x06\n        /* \"contracts/Vote.sol\":1626:1639  voter[_voter] */\n      0x00\n        /* \"contracts/Vote.sol\":1632:1638  _voter */\n      dup4\n        /* \"contracts/Vote.sol\":1626:1639  voter[_voter] */\n      0xffffffffffffffffffffffffffffffffffffffff\n      and\n      0xffffffffffffffffffffffffffffffffffffffff\n      and\n      dup2\n      mstore\n      0x20\n      add\n      swap1\n      dup2\n      mstore\n      0x20\n      add\n      0x00\n      keccak256\n        /* \"contracts/Vote.sol\":1626:1642  voter[_voter]=-1 */\n      dup2\n      swap1\n      sstore\n      pop\n        /* \"contracts/Vote.sol\":1521:1646  function addVoter(address _voter) public {... */\n      pop\n      jump\t// out\n        /* \"contracts/Vote.sol\":2684:2761  function open() public {... */\n    tag_88:\n        /* \"contracts/Vote.sol\":2733:2738  owner */\n      0x00\n      dup1\n      sload\n      swap1\n      0x0100\n      exp\n      swap1\n      div\n      0xffffffffffffffffffffffffffffffffffffffff\n      and\n        /* \"contracts/Vote.sol\":2719:2738  msg.sender == owner */\n      0xffffffffffffffffffffffffffffffffffffffff\n      and\n        /* \"contracts/Vote.sol\":2719:2729  msg.sender */\n      caller\n        /* \"contracts/Vote.sol\":2719:2738  msg.sender == owner */\n      0xffffffffffffffffffffffffffffffffffffffff\n      and\n      eq\n        /* \"contracts/Vote.sol\":2711:2739  require(msg.sender == owner) */\n      tag_139\n      jumpi\n      0x00\n      dup1\n      revert\n    tag_139:\n        /* \"contracts/Vote.sol\":2752:2757  false */\n      0x00\n        /* \"contracts/Vote.sol\":2743:2749  closed */\n      0x02\n      0x00\n        /* \"contracts/Vote.sol\":2743:2757  closed = false */\n      0x0100\n      exp\n      dup2\n      sload\n      dup2\n      0xff\n      mul\n      not\n      and\n      swap1\n      dup4\n      iszero\n      iszero\n      mul\n      or\n      swap1\n      sstore\n      pop\n        /* \"contracts/Vote.sol\":2684:2761  function open() public {... */\n      jump\t// out\n        /* \"#utility.yul\":7:146   */\n    tag_141:\n        /* \"#utility.yul\":53:58   */\n      0x00\n        /* \"#utility.yul\":91:97   */\n      dup2\n        /* \"#utility.yul\":78:98   */\n      calldataload\n        /* \"#utility.yul\":69:98   */\n      swap1\n      pop\n        /* \"#utility.yul\":107:140   */\n      tag_143\n        /* \"#utility.yul\":134:139   */\n      dup2\n        /* \"#utility.yul\":107:140   */\n      tag_144\n      jump\t// in\n    tag_143:\n        /* \"#utility.yul\":7:146   */\n      swap3\n      swap2\n      pop\n      pop\n      jump\t// out\n        /* \"#utility.yul\":152:291   */\n    tag_145:\n        /* \"#utility.yul\":198:203   */\n      0x00\n        /* \"#utility.yul\":236:242   */\n      dup2\n        /* \"#utility.yul\":223:243   */\n      calldataload\n        /* \"#utility.yul\":214:243   */\n      swap1\n      pop\n        /* \"#utility.yul\":252:285   */\n      tag_147\n        /* \"#utility.yul\":279:284   */\n      dup2\n        /* \"#utility.yul\":252:285   */\n      tag_148\n      jump\t// in\n    tag_147:\n        /* \"#utility.yul\":152:291   */\n      swap3\n      swap2\n      pop\n      pop\n      jump\t// out\n        /* \"#utility.yul\":297:626   */\n    tag_30:\n        /* \"#utility.yul\":356:362   */\n      0x00\n        /* \"#utility.yul\":405:407   */\n      0x20\n        /* \"#utility.yul\":393:402   */\n      dup3\n        /* \"#utility.yul\":384:391   */\n      dup5\n        /* \"#utility.yul\":380:403   */\n      sub\n        /* \"#utility.yul\":376:408   */\n      slt\n        /* \"#utility.yul\":373:492   */\n      iszero\n      tag_150\n      jumpi\n        /* \"#utility.yul\":411:490   */\n      tag_151\n      tag_152\n      jump\t// in\n    tag_151:\n        /* \"#utility.yul\":373:492   */\n    tag_150:\n        /* \"#utility.yul\":531:532   */\n      0x00\n        /* \"#utility.yul\":556:609   */\n      tag_153\n        /* \"#utility.yul\":601:608   */\n      dup5\n        /* \"#utility.yul\":592:598   */\n      dup3\n        /* \"#utility.yul\":581:590   */\n      dup6\n        /* \"#utility.yul\":577:599   */\n      add\n        /* \"#utility.yul\":556:609   */\n      tag_141\n      jump\t// in\n    tag_153:\n        /* \"#utility.yul\":546:609   */\n      swap2\n      pop\n        /* \"#utility.yul\":502:619   */\n      pop\n        /* \"#utility.yul\":297:626   */\n      swap3\n      swap2\n      pop\n      pop\n      jump\t// out\n        /* \"#utility.yul\":632:961   */\n    tag_26:\n        /* \"#utility.yul\":691:697   */\n      0x00\n        /* \"#utility.yul\":740:742   */\n      0x20\n        /* \"#utility.yul\":728:737   */\n      dup3\n        /* \"#utility.yul\":719:726   */\n      dup5\n        /* \"#utility.yul\":715:738   */\n      sub\n        /* \"#utility.yul\":711:743   */\n      slt\n        /* \"#utility.yul\":708:827   */\n      iszero\n      tag_155\n      jumpi\n        /* \"#utility.yul\":746:825   */\n      tag_156\n      tag_152\n      jump\t// in\n    tag_156:\n        /* \"#utility.yul\":708:827   */\n    tag_155:\n        /* \"#utility.yul\":866:867   */\n      0x00\n        /* \"#utility.yul\":891:944   */\n      tag_157\n        /* \"#utility.yul\":936:943   */\n      dup5\n        /* \"#utility.yul\":927:933   */\n      dup3\n        /* \"#utility.yul\":916:925   */\n      dup6\n        /* \"#utility.yul\":912:934   */\n      add\n        /* \"#utility.yul\":891:944   */\n      tag_145\n      jump\t// in\n    tag_157:\n        /* \"#utility.yul\":881:944   */\n      swap2\n      pop\n        /* \"#utility.yul\":837:954   */\n      pop\n        /* \"#utility.yul\":632:961   */\n      swap3\n      swap2\n      pop\n      pop\n      jump\t// out\n        /* \"#utility.yul\":967:1085   */\n    tag_158:\n        /* \"#utility.yul\":1054:1078   */\n      tag_160\n        /* \"#utility.yul\":1072:1077   */\n      dup2\n        /* \"#utility.yul\":1054:1078   */\n      tag_161\n      jump\t// in\n    tag_160:\n        /* \"#utility.yul\":1049:1052   */\n      dup3\n        /* \"#utility.yul\":1042:1079   */\n      mstore\n        /* \"#utility.yul\":967:1085   */\n      pop\n      pop\n      jump\t// out\n        /* \"#utility.yul\":1091:1200   */\n    tag_162:\n        /* \"#utility.yul\":1172:1193   */\n      tag_164\n        /* \"#utility.yul\":1187:1192   */\n      dup2\n        /* \"#utility.yul\":1172:1193   */\n      tag_165\n      jump\t// in\n    tag_164:\n        /* \"#utility.yul\":1167:1170   */\n      dup3\n        /* \"#utility.yul\":1160:1194   */\n      mstore\n        /* \"#utility.yul\":1091:1200   */\n      pop\n      pop\n      jump\t// out\n        /* \"#utility.yul\":1206:1321   */\n    tag_166:\n        /* \"#utility.yul\":1291:1314   */\n      tag_168\n        /* \"#utility.yul\":1308:1313   */\n      dup2\n        /* \"#utility.yul\":1291:1314   */\n      tag_169\n      jump\t// in\n    tag_168:\n        /* \"#utility.yul\":1286:1289   */\n      dup3\n        /* \"#utility.yul\":1279:1315   */\n      mstore\n        /* \"#utility.yul\":1206:1321   */\n      pop\n      pop\n      jump\t// out\n        /* \"#utility.yul\":1327:1445   */\n    tag_170:\n        /* \"#utility.yul\":1414:1438   */\n      tag_172\n        /* \"#utility.yul\":1432:1437   */\n      dup2\n        /* \"#utility.yul\":1414:1438   */\n      tag_173\n      jump\t// in\n    tag_172:\n        /* \"#utility.yul\":1409:1412   */\n      dup3\n        /* \"#utility.yul\":1402:1439   */\n      mstore\n        /* \"#utility.yul\":1327:1445   */\n      pop\n      pop\n      jump\t// out\n        /* \"#utility.yul\":1451:1673   */\n    tag_46:\n        /* \"#utility.yul\":1544:1548   */\n      0x00\n        /* \"#utility.yul\":1582:1584   */\n      0x20\n        /* \"#utility.yul\":1571:1580   */\n      dup3\n        /* \"#utility.yul\":1567:1585   */\n      add\n        /* \"#utility.yul\":1559:1585   */\n      swap1\n      pop\n        /* \"#utility.yul\":1595:1666   */\n      tag_175\n        /* \"#utility.yul\":1663:1664   */\n      0x00\n        /* \"#utility.yul\":1652:1661   */\n      dup4\n        /* \"#utility.yul\":1648:1665   */\n      add\n        /* \"#utility.yul\":1639:1645   */\n      dup5\n        /* \"#utility.yul\":1595:1666   */\n      tag_158\n      jump\t// in\n    tag_175:\n        /* \"#utility.yul\":1451:1673   */\n      swap3\n      swap2\n      pop\n      pop\n      jump\t// out\n        /* \"#utility.yul\":1679:1889   */\n    tag_50:\n        /* \"#utility.yul\":1766:1770   */\n      0x00\n        /* \"#utility.yul\":1804:1806   */\n      0x20\n        /* \"#utility.yul\":1793:1802   */\n      dup3\n        /* \"#utility.yul\":1789:1807   */\n      add\n        /* \"#utility.yul\":1781:1807   */\n      swap1\n      pop\n        /* \"#utility.yul\":1817:1882   */\n      tag_177\n        /* \"#utility.yul\":1879:1880   */\n      0x00\n        /* \"#utility.yul\":1868:1877   */\n      dup4\n        /* \"#utility.yul\":1864:1881   */\n      add\n        /* \"#utility.yul\":1855:1861   */\n      dup5\n        /* \"#utility.yul\":1817:1882   */\n      tag_162\n      jump\t// in\n    tag_177:\n        /* \"#utility.yul\":1679:1889   */\n      swap3\n      swap2\n      pop\n      pop\n      jump\t// out\n        /* \"#utility.yul\":1895:2113   */\n    tag_33:\n        /* \"#utility.yul\":1986:1990   */\n      0x00\n        /* \"#utility.yul\":2024:2026   */\n      0x20\n        /* \"#utility.yul\":2013:2022   */\n      dup3\n        /* \"#utility.yul\":2009:2027   */\n      add\n        /* \"#utility.yul\":2001:2027   */\n      swap1\n      pop\n        /* \"#utility.yul\":2037:2106   */\n      tag_179\n        /* \"#utility.yul\":2103:2104   */\n      0x00\n        /* \"#utility.yul\":2092:2101   */\n      dup4\n        /* \"#utility.yul\":2088:2105   */\n      add\n        /* \"#utility.yul\":2079:2085   */\n      dup5\n        /* \"#utility.yul\":2037:2106   */\n      tag_166\n      jump\t// in\n    tag_179:\n        /* \"#utility.yul\":1895:2113   */\n      swap3\n      swap2\n      pop\n      pop\n      jump\t// out\n        /* \"#utility.yul\":2119:2341   */\n    tag_58:\n        /* \"#utility.yul\":2212:2216   */\n      0x00\n        /* \"#utility.yul\":2250:2252   */\n      0x20\n        /* \"#utility.yul\":2239:2248   */\n      dup3\n        /* \"#utility.yul\":2235:2253   */\n      add\n        /* \"#utility.yul\":2227:2253   */\n      swap1\n      pop\n        /* \"#utility.yul\":2263:2334   */\n      tag_181\n        /* \"#utility.yul\":2331:2332   */\n      0x00\n        /* \"#utility.yul\":2320:2329   */\n      dup4\n        /* \"#utility.yul\":2316:2333   */\n      add\n        /* \"#utility.yul\":2307:2313   */\n      dup5\n        /* \"#utility.yul\":2263:2334   */\n      tag_170\n      jump\t// in\n    tag_181:\n        /* \"#utility.yul\":2119:2341   */\n      swap3\n      swap2\n      pop\n      pop\n      jump\t// out\n        /* \"#utility.yul\":2428:2733   */\n    tag_103:\n        /* \"#utility.yul\":2468:2471   */\n      0x00\n        /* \"#utility.yul\":2487:2507   */\n      tag_185\n        /* \"#utility.yul\":2505:2506   */\n      dup3\n        /* \"#utility.yul\":2487:2507   */\n      tag_173\n      jump\t// in\n    tag_185:\n        /* \"#utility.yul\":2482:2507   */\n      swap2\n      pop\n        /* \"#utility.yul\":2521:2541   */\n      tag_186\n        /* \"#utility.yul\":2539:2540   */\n      dup4\n        /* \"#utility.yul\":2521:2541   */\n      tag_173\n      jump\t// in\n    tag_186:\n        /* \"#utility.yul\":2516:2541   */\n      swap3\n      pop\n        /* \"#utility.yul\":2675:2676   */\n      dup3\n        /* \"#utility.yul\":2607:2673   */\n      0xffffffffffffffffffffffffffffffffffffffffffffffffffffffffffffffff\n        /* \"#utility.yul\":2603:2677   */\n      sub\n        /* \"#utility.yul\":2600:2601   */\n      dup3\n        /* \"#utility.yul\":2597:2678   */\n      gt\n        /* \"#utility.yul\":2594:2701   */\n      iszero\n      tag_187\n      jumpi\n        /* \"#utility.yul\":2681:2699   */\n      tag_188\n      tag_189\n      jump\t// in\n    tag_188:\n        /* \"#utility.yul\":2594:2701   */\n    tag_187:\n        /* \"#utility.yul\":2725:2726   */\n      dup3\n        /* \"#utility.yul\":2722:2723   */\n      dup3\n        /* \"#utility.yul\":2718:2727   */\n      add\n        /* \"#utility.yul\":2711:2727   */\n      swap1\n      pop\n        /* \"#utility.yul\":2428:2733   */\n      swap3\n      swap2\n      pop\n      pop\n      jump\t// out\n        /* \"#utility.yul\":2739:2930   */\n    tag_122:\n        /* \"#utility.yul\":2779:2783   */\n      0x00\n        /* \"#utility.yul\":2799:2819   */\n      tag_191\n        /* \"#utility.yul\":2817:2818   */\n      dup3\n        /* \"#utility.yul\":2799:2819   */\n      tag_173\n      jump\t// in\n    tag_191:\n        /* \"#utility.yul\":2794:2819   */\n      swap2\n      pop\n        /* \"#utility.yul\":2833:2853   */\n      tag_192\n        /* \"#utility.yul\":2851:2852   */\n      dup4\n        /* \"#utility.yul\":2833:2853   */\n      tag_173\n      jump\t// in\n    tag_192:\n        /* \"#utility.yul\":2828:2853   */\n      swap3\n      pop\n        /* \"#utility.yul\":2872:2873   */\n      dup3\n        /* \"#utility.yul\":2869:2870   */\n      dup3\n        /* \"#utility.yul\":2866:2874   */\n      lt\n        /* \"#utility.yul\":2863:2897   */\n      iszero\n      tag_193\n      jumpi\n        /* \"#utility.yul\":2877:2895   */\n      tag_194\n      tag_189\n      jump\t// in\n    tag_194:\n        /* \"#utility.yul\":2863:2897   */\n    tag_193:\n        /* \"#utility.yul\":2922:2923   */\n      dup3\n        /* \"#utility.yul\":2919:2920   */\n      dup3\n        /* \"#utility.yul\":2915:2924   */\n      sub\n        /* \"#utility.yul\":2907:2924   */\n      swap1\n      pop\n        /* \"#utility.yul\":2739:2930   */\n      swap3\n      swap2\n      pop\n      pop\n      jump\t// out\n        /* \"#utility.yul\":2936:3032   */\n    tag_161:\n        /* \"#utility.yul\":2973:2980   */\n      0x00\n        /* \"#utility.yul\":3002:3026   */\n      tag_196\n        /* \"#utility.yul\":3020:3025   */\n      dup3\n        /* \"#utility.yul\":3002:3026   */\n      tag_197\n      jump\t// in\n    tag_196:\n        /* \"#utility.yul\":2991:3026   */\n      swap1\n      pop\n        /* \"#utility.yul\":2936:3032   */\n      swap2\n      swap1\n      pop\n      jump\t// out\n        /* \"#utility.yul\":3038:3128   */\n    tag_165:\n        /* \"#utility.yul\":3072:3079   */\n      0x00\n        /* \"#utility.yul\":3115:3120   */\n      dup2\n        /* \"#utility.yul\":3108:3121   */\n      iszero\n        /* \"#utility.yul\":3101:3122   */\n      iszero\n        /* \"#utility.yul\":3090:3122   */\n      swap1\n      pop\n        /* \"#utility.yul\":3038:3128   */\n      swap2\n      swap1\n      pop\n      jump\t// out\n        /* \"#utility.yul\":3134:3210   */\n    tag_169:\n        /* \"#utility.yul\":3170:3177   */\n      0x00\n        /* \"#utility.yul\":3199:3204   */\n      dup2\n        /* \"#utility.yul\":3188:3204   */\n      swap1\n      pop\n        /* \"#utility.yul\":3134:3210   */\n      swap2\n      swap1\n      pop\n      jump\t// out\n        /* \"#utility.yul\":3216:3342   */\n    tag_197:\n        /* \"#utility.yul\":3253:3260   */\n      0x00\n        /* \"#utility.yul\":3293:3335   */\n      0xffffffffffffffffffffffffffffffffffffffff\n        /* \"#utility.yul\":3286:3291   */\n      dup3\n        /* \"#utility.yul\":3282:3336   */\n      and\n        /* \"#utility.yul\":3271:3336   */\n      swap1\n      pop\n        /* \"#utility.yul\":3216:3342   */\n      swap2\n      swap1\n      pop\n      jump\t// out\n        /* \"#utility.yul\":3348:3425   */\n    tag_173:\n        /* \"#utility.yul\":3385:3392   */\n      0x00\n        /* \"#utility.yul\":3414:3419   */\n      dup2\n        /* \"#utility.yul\":3403:3419   */\n      swap1\n      pop\n        /* \"#utility.yul\":3348:3425   */\n      swap2\n      swap1\n      pop\n      jump\t// out\n        /* \"#utility.yul\":3431:3664   */\n    tag_100:\n        /* \"#utility.yul\":3470:3473   */\n      0x00\n        /* \"#utility.yul\":3493:3517   */\n      tag_203\n        /* \"#utility.yul\":3511:3516   */\n      dup3\n        /* \"#utility.yul\":3493:3517   */\n      tag_173\n      jump\t// in\n    tag_203:\n        /* \"#utility.yul\":3484:3517   */\n      swap2\n      pop\n        /* \"#utility.yul\":3539:3605   */\n      0xffffffffffffffffffffffffffffffffffffffffffffffffffffffffffffffff\n        /* \"#utility.yul\":3532:3537   */\n      dup3\n        /* \"#utility.yul\":3529:3606   */\n      eq\n        /* \"#utility.yul\":3526:3629   */\n      iszero\n      tag_204\n      jumpi\n        /* \"#utility.yul\":3609:3627   */\n      tag_205\n      tag_189\n      jump\t// in\n    tag_205:\n        /* \"#utility.yul\":3526:3629   */\n    tag_204:\n        /* \"#utility.yul\":3656:3657   */\n      0x01\n        /* \"#utility.yul\":3649:3654   */\n      dup3\n        /* \"#utility.yul\":3645:3658   */\n      add\n        /* \"#utility.yul\":3638:3658   */\n      swap1\n      pop\n        /* \"#utility.yul\":3431:3664   */\n      swap2\n      swap1\n      pop\n      jump\t// out\n        /* \"#utility.yul\":3670:3850   */\n    tag_189:\n        /* \"#utility.yul\":3718:3795   */\n      0x4e487b7100000000000000000000000000000000000000000000000000000000\n        /* \"#utility.yul\":3715:3716   */\n      0x00\n        /* \"#utility.yul\":3708:3796   */\n      mstore\n        /* \"#utility.yul\":3815:3819   */\n      0x11\n        /* \"#utility.yul\":3812:3813   */\n      0x04\n        /* \"#utility.yul\":3805:3820   */\n      mstore\n        /* \"#utility.yul\":3839:3843   */\n      0x24\n        /* \"#utility.yul\":3836:3837   */\n      0x00\n        /* \"#utility.yul\":3829:3844   */\n      revert\n        /* \"#utility.yul\":3856:4036   */\n    tag_96:\n        /* \"#utility.yul\":3904:3981   */\n      0x4e487b7100000000000000000000000000000000000000000000000000000000\n        /* \"#utility.yul\":3901:3902   */\n      0x00\n        /* \"#utility.yul\":3894:3982   */\n      mstore\n        /* \"#utility.yul\":4001:4005   */\n      0x32\n        /* \"#utility.yul\":3998:3999   */\n      0x04\n        /* \"#utility.yul\":3991:4006   */\n      mstore\n        /* \"#utility.yul\":4025:4029   */\n      0x24\n        /* \"#utility.yul\":4022:4023   */\n      0x00\n        /* \"#utility.yul\":4015:4030   */\n      revert\n        /* \"#utility.yul\":4165:4282   */\n    tag_152:\n        /* \"#utility.yul\":4274:4275   */\n      0x00\n        /* \"#utility.yul\":4271:4272   */\n      dup1\n        /* \"#utility.yul\":4264:4276   */\n      revert\n        /* \"#utility.yul\":4288:4410   */\n    tag_144:\n        /* \"#utility.yul\":4361:4385   */\n      tag_212\n        /* \"#utility.yul\":4379:4384   */\n      dup2\n        /* \"#utility.yul\":4361:4385   */\n      tag_161\n      jump\t// in\n    tag_212:\n        /* \"#utility.yul\":4354:4359   */\n      dup2\n        /* \"#utility.yul\":4351:4386   */\n      eq\n        /* \"#utility.yul\":4341:4404   */\n      tag_213\n      jumpi\n        /* \"#utility.yul\":4400:4401   */\n      0x00\n        /* \"#utility.yul\":4397:4398   */\n      dup1\n        /* \"#utility.yul\":4390:4402   */\n      revert\n        /* \"#utility.yul\":4341:4404   */\n    tag_213:\n        /* \"#utility.yul\":4288:4410   */\n      pop\n      jump\t// out\n        /* \"#utility.yul\":4416:4538   */\n    tag_148:\n        /* \"#utility.yul\":4489:4513   */\n      tag_215\n        /* \"#utility.yul\":4507:4512   */\n      dup2\n        /* \"#utility.yul\":4489:4513   */\n      tag_173\n      jump\t// in\n    tag_215:\n        /* \"#utility.yul\":4482:4487   */\n      dup2\n        /* \"#utility.yul\":4479:4514   */\n      eq\n        /* \"#utility.yul\":4469:4532   */\n      tag_216\n      jumpi\n        /* \"#utility.yul\":4528:4529   */\n      0x00\n        /* \"#utility.yul\":4525:4526   */\n      dup1\n        /* \"#utility.yul\":4518:4530   */\n      revert\n        /* \"#utility.yul\":4469:4532   */\n    tag_216:\n        /* \"#utility.yul\":4416:4538   */\n      pop\n      jump\t// out\n\n    auxdata: 0xa2646970667358221220ae304f8f0a8ea985200d0d87a5b41449a642cb6a21b24a3d019e66a6526eca7e64736f6c63430008070033\n}\n",
				"bytecode": {
					"linkReferences": {},
					"object": "60806040526001600260006101000a81548160ff02191690831515021790555034801561002b57600080fd5b50336000806101000a81548173ffffffffffffffffffffffffffffffffffffffff021916908373ffffffffffffffffffffffffffffffffffffffff160217905550610d948061007b6000396000f3fe608060405234801561001057600080fd5b50600436106101165760003560e01c8063af0dbe54116100a2578063d83b2c0511610071578063d83b2c05146102f3578063dfbf53ae14610323578063e318e7d514610341578063f4ab9adf1461035f578063fcfff16f1461037b57610116565b8063af0dbe5414610245578063c29e1a5614610275578063c71f4253146102a5578063cdcbc3c2146102d557610116565b80634eda77e1116100e95780634eda77e11461018d57806350e2e8af146101a9578063597e1fb5146101d95780638da5cb5b146101f75780639811c7c11461021557610116565b80630121b93f1461011b5780631b9ebe5414610137578063360026171461016757806343d726d614610183575b600080fd5b61013560048036038101906101309190610ad3565b610385565b005b610151600480360381019061014c9190610aa6565b6104bb565b60405161015e9190610b72565b60405180910390f35b610181600480360381019061017c9190610ad3565b610504565b005b61018b6105a1565b005b6101a760048036038101906101a29190610ad3565b610616565b005b6101c360048036038101906101be9190610ad3565b610796565b6040516101d09190610b3c565b60405180910390f35b6101e16107d5565b6040516101ee9190610b57565b60405180910390f35b6101ff6107e8565b60405161020c9190610b3c565b60405180910390f35b61022f600480360381019061022a9190610ad3565b61080c565b60405161023c9190610b8d565b60405180910390f35b61025f600480360381019061025a9190610aa6565b610824565b60405161026c9190610b72565b60405180910390f35b61028f600480360381019061028a9190610ad3565b61083c565b60405161029c9190610b8d565b60405180910390f35b6102bf60048036038101906102ba9190610ad3565b610860565b6040516102cc9190610b8d565b60405180910390f35b6102dd61087d565b6040516102ea9190610b8d565b60405180910390f35b61030d60048036038101906103089190610ad3565b61088a565b60405161031a9190610b3c565b60405180910390f35b61032b6108d2565b6040516103389190610b8d565b60405180910390f35b6103496108d8565b6040516103569190610b8d565b60405180910390f35b61037960048036038101906103749190610aa6565b6108e5565b005b610383610a07565b005b7fffffffffffffffffffffffffffffffffffffffffffffffffffffffffffffffff600660003373ffffffffffffffffffffffffffffffffffffffff1673ffffffffffffffffffffffffffffffffffffffff1681526020019081526020016000205414156104b857600080600090505b60038054905081101561043f57826003828154811061041657610415610cfc565b5b9060005260206000200154141561042c57600191505b808061043790610c84565b9150506103f4565b5080156104b657600160046000848152602001908152602001600020600082825461046a9190610ba8565b9250508190555081600660003373ffffffffffffffffffffffffffffffffffffffff1673ffffffffffffffffffffffffffffffffffffffff168152602001908152602001600020819055505b505b50565b6000600660008373ffffffffffffffffffffffffffffffffffffffff1673ffffffffffffffffffffffffffffffffffffffff168152602001908152602001600020549050919050565b60008054906101000a900473ffffffffffffffffffffffffffffffffffffffff1673ffffffffffffffffffffffffffffffffffffffff163373ffffffffffffffffffffffffffffffffffffffff161461055c57600080fd5b60038190806001815401808255809150506001900390600052602060002001600090919091909150556000600460008381526020019081526020016000208190555050565b60008054906101000a900473ffffffffffffffffffffffffffffffffffffffff1673ffffffffffffffffffffffffffffffffffffffff163373ffffffffffffffffffffffffffffffffffffffff16146105f957600080fd5b6001600260006101000a81548160ff021916908315150217905550565b6000600660003373ffffffffffffffffffffffffffffffffffffffff1673ffffffffffffffffffffffffffffffffffffffff168152602001908152602001600020541461079357600080600090505b6003805490508110156106b057826003828154811061068757610686610cfc565b5b9060005260206000200154141561069d57600191505b80806106a890610c84565b915050610665565b50801561079157600160046000600660003373ffffffffffffffffffffffffffffffffffffffff1673ffffffffffffffffffffffffffffffffffffffff168152602001908152602001600020548152602001908152602001600020600082825461071a9190610bfe565b9250508190555060016004600084815260200190815260200160002060008282546107459190610ba8565b9250508190555081600660003373ffffffffffffffffffffffffffffffffffffffff1673ffffffffffffffffffffffffffffffffffffffff168152602001908152602001600020819055505b505b50565b600581815481106107a657600080fd5b906000526020600020016000915054906101000a900473ffffffffffffffffffffffffffffffffffffffff1681565b600260009054906101000a900460ff1681565b60008054906101000a900473ffffffffffffffffffffffffffffffffffffffff1681565b60046020528060005260406000206000915090505481565b60066020528060005260406000206000915090505481565b6003818154811061084c57600080fd5b906000526020600020016000915090505481565b600060046000838152602001908152602001600020549050919050565b6000600580549050905090565b6000600582815481106108a05761089f610cfc565b5b9060005260206000200160009054906101000a900473ffffffffffffffffffffffffffffffffffffffff169050919050565b60015481565b6000600380549050905090565b60008054906101000a900473ffffffffffffffffffffffffffffffffffffffff1673ffffffffffffffffffffffffffffffffffffffff163373ffffffffffffffffffffffffffffffffffffffff161461093d57600080fd5b6005819080600181540180825580915050600190039060005260206000200160009091909190916101000a81548173ffffffffffffffffffffffffffffffffffffffff021916908373ffffffffffffffffffffffffffffffffffffffff1602179055507fffffffffffffffffffffffffffffffffffffffffffffffffffffffffffffffff600660008373ffffffffffffffffffffffffffffffffffffffff1673ffffffffffffffffffffffffffffffffffffffff1681526020019081526020016000208190555050565b60008054906101000a900473ffffffffffffffffffffffffffffffffffffffff1673ffffffffffffffffffffffffffffffffffffffff163373ffffffffffffffffffffffffffffffffffffffff1614610a5f57600080fd5b6000600260006101000a81548160ff021916908315150217905550565b600081359050610a8b81610d30565b92915050565b600081359050610aa081610d47565b92915050565b600060208284031215610abc57610abb610d2b565b5b6000610aca84828501610a7c565b91505092915050565b600060208284031215610ae957610ae8610d2b565b5b6000610af784828501610a91565b91505092915050565b610b0981610c32565b82525050565b610b1881610c44565b82525050565b610b2781610c50565b82525050565b610b3681610c7a565b82525050565b6000602082019050610b516000830184610b00565b92915050565b6000602082019050610b6c6000830184610b0f565b92915050565b6000602082019050610b876000830184610b1e565b92915050565b6000602082019050610ba26000830184610b2d565b92915050565b6000610bb382610c7a565b9150610bbe83610c7a565b9250827fffffffffffffffffffffffffffffffffffffffffffffffffffffffffffffffff03821115610bf357610bf2610ccd565b5b828201905092915050565b6000610c0982610c7a565b9150610c1483610c7a565b925082821015610c2757610c26610ccd565b5b828203905092915050565b6000610c3d82610c5a565b9050919050565b60008115159050919050565b6000819050919050565b600073ffffffffffffffffffffffffffffffffffffffff82169050919050565b6000819050919050565b6000610c8f82610c7a565b91507fffffffffffffffffffffffffffffffffffffffffffffffffffffffffffffffff821415610cc257610cc1610ccd565b5b600182019050919050565b7f4e487b7100000000000000000000000000000000000000000000000000000000600052601160045260246000fd5b7f4e487b7100000000000000000000000000000000000000000000000000000000600052603260045260246000fd5b600080fd5b610d3981610c32565b8114610d4457600080fd5b50565b610d5081610c7a565b8114610d5b57600080fd5b5056fea2646970667358221220ae304f8f0a8ea985200d0d87a5b41449a642cb6a21b24a3d019e66a6526eca7e64736f6c63430008070033",
					"opcodes": "PUSH1 0x80 PUSH1 0x40 MSTORE PUSH1 0x1 PUSH1 0x2 PUSH1 0x0 PUSH2 0x100 EXP DUP2 SLOAD DUP2 PUSH1 0xFF MUL NOT AND SWAP1 DUP4 ISZERO ISZERO MUL OR SWAP1 SSTORE POP CALLVALUE DUP1 ISZERO PUSH2 0x2B JUMPI PUSH1 0x0 DUP1 REVERT JUMPDEST POP CALLER PUSH1 0x0 DUP1 PUSH2 0x100 EXP DUP2 SLOAD DUP2 PUSH20 0xFFFFFFFFFFFFFFFFFFFFFFFFFFFFFFFFFFFFFFFF MUL NOT AND SWAP1 DUP4 PUSH20 0xFFFFFFFFFFFFFFFFFFFFFFFFFFFFFFFFFFFFFFFF AND MUL OR SWAP1 SSTORE POP PUSH2 0xD94 DUP1 PUSH2 0x7B PUSH1 0x0 CODECOPY PUSH1 0x0 RETURN INVALID PUSH1 0x80 PUSH1 0x40 MSTORE CALLVALUE DUP1 ISZERO PUSH2 0x10 JUMPI PUSH1 0x0 DUP1 REVERT JUMPDEST POP PUSH1 0x4 CALLDATASIZE LT PUSH2 0x116 JUMPI PUSH1 0x0 CALLDATALOAD PUSH1 0xE0 SHR DUP1 PUSH4 0xAF0DBE54 GT PUSH2 0xA2 JUMPI DUP1 PUSH4 0xD83B2C05 GT PUSH2 0x71 JUMPI DUP1 PUSH4 0xD83B2C05 EQ PUSH2 0x2F3 JUMPI DUP1 PUSH4 0xDFBF53AE EQ PUSH2 0x323 JUMPI DUP1 PUSH4 0xE318E7D5 EQ PUSH2 0x341 JUMPI DUP1 PUSH4 0xF4AB9ADF EQ PUSH2 0x35F JUMPI DUP1 PUSH4 0xFCFFF16F EQ PUSH2 0x37B JUMPI PUSH2 0x116 JUMP JUMPDEST DUP1 PUSH4 0xAF0DBE54 EQ PUSH2 0x245 JUMPI DUP1 PUSH4 0xC29E1A56 EQ PUSH2 0x275 JUMPI DUP1 PUSH4 0xC71F4253 EQ PUSH2 0x2A5 JUMPI DUP1 PUSH4 0xCDCBC3C2 EQ PUSH2 0x2D5 JUMPI PUSH2 0x116 JUMP JUMPDEST DUP1 PUSH4 0x4EDA77E1 GT PUSH2 0xE9 JUMPI DUP1 PUSH4 0x4EDA77E1 EQ PUSH2 0x18D JUMPI DUP1 PUSH4 0x50E2E8AF EQ PUSH2 0x1A9 JUMPI DUP1 PUSH4 0x597E1FB5 EQ PUSH2 0x1D9 JUMPI DUP1 PUSH4 0x8DA5CB5B EQ PUSH2 0x1F7 JUMPI DUP1 PUSH4 0x9811C7C1 EQ PUSH2 0x215 JUMPI PUSH2 0x116 JUMP JUMPDEST DUP1 PUSH4 0x121B93F EQ PUSH2 0x11B JUMPI DUP1 PUSH4 0x1B9EBE54 EQ PUSH2 0x137 JUMPI DUP1 PUSH4 0x36002617 EQ PUSH2 0x167 JUMPI DUP1 PUSH4 0x43D726D6 EQ PUSH2 0x183 JUMPI JUMPDEST PUSH1 0x0 DUP1 REVERT JUMPDEST PUSH2 0x135 PUSH1 0x4 DUP1 CALLDATASIZE SUB DUP2 ADD SWAP1 PUSH2 0x130 SWAP2 SWAP1 PUSH2 0xAD3 JUMP JUMPDEST PUSH2 0x385 JUMP JUMPDEST STOP JUMPDEST PUSH2 0x151 PUSH1 0x4 DUP1 CALLDATASIZE SUB DUP2 ADD SWAP1 PUSH2 0x14C SWAP2 SWAP1 PUSH2 0xAA6 JUMP JUMPDEST PUSH2 0x4BB JUMP JUMPDEST PUSH1 0x40 MLOAD PUSH2 0x15E SWAP2 SWAP1 PUSH2 0xB72 JUMP JUMPDEST PUSH1 0x40 MLOAD DUP1 SWAP2 SUB SWAP1 RETURN JUMPDEST PUSH2 0x181 PUSH1 0x4 DUP1 CALLDATASIZE SUB DUP2 ADD SWAP1 PUSH2 0x17C SWAP2 SWAP1 PUSH2 0xAD3 JUMP JUMPDEST PUSH2 0x504 JUMP JUMPDEST STOP JUMPDEST PUSH2 0x18B PUSH2 0x5A1 JUMP JUMPDEST STOP JUMPDEST PUSH2 0x1A7 PUSH1 0x4 DUP1 CALLDATASIZE SUB DUP2 ADD SWAP1 PUSH2 0x1A2 SWAP2 SWAP1 PUSH2 0xAD3 JUMP JUMPDEST PUSH2 0x616 JUMP JUMPDEST STOP JUMPDEST PUSH2 0x1C3 PUSH1 0x4 DUP1 CALLDATASIZE SUB DUP2 ADD SWAP1 PUSH2 0x1BE SWAP2 SWAP1 PUSH2 0xAD3 JUMP JUMPDEST PUSH2 0x796 JUMP JUMPDEST PUSH1 0x40 MLOAD PUSH2 0x1D0 SWAP2 SWAP1 PUSH2 0xB3C JUMP JUMPDEST PUSH1 0x40 MLOAD DUP1 SWAP2 SUB SWAP1 RETURN JUMPDEST PUSH2 0x1E1 PUSH2 0x7D5 JUMP JUMPDEST PUSH1 0x40 MLOAD PUSH2 0x1EE SWAP2 SWAP1 PUSH2 0xB57 JUMP JUMPDEST PUSH1 0x40 MLOAD DUP1 SWAP2 SUB SWAP1 RETURN JUMPDEST PUSH2 0x1FF PUSH2 0x7E8 JUMP JUMPDEST PUSH1 0x40 MLOAD PUSH2 0x20C SWAP2 SWAP1 PUSH2 0xB3C JUMP JUMPDEST PUSH1 0x40 MLOAD DUP1 SWAP2 SUB SWAP1 RETURN JUMPDEST PUSH2 0x22F PUSH1 0x4 DUP1 CALLDATASIZE SUB DUP2 ADD SWAP1 PUSH2 0x22A SWAP2 SWAP1 PUSH2 0xAD3 JUMP JUMPDEST PUSH2 0x80C JUMP JUMPDEST PUSH1 0x40 MLOAD PUSH2 0x23C SWAP2 SWAP1 PUSH2 0xB8D JUMP JUMPDEST PUSH1 0x40 MLOAD DUP1 SWAP2 SUB SWAP1 RETURN JUMPDEST PUSH2 0x25F PUSH1 0x4 DUP1 CALLDATASIZE SUB DUP2 ADD SWAP1 PUSH2 0x25A SWAP2 SWAP1 PUSH2 0xAA6 JUMP JUMPDEST PUSH2 0x824 JUMP JUMPDEST PUSH1 0x40 MLOAD PUSH2 0x26C SWAP2 SWAP1 PUSH2 0xB72 JUMP JUMPDEST PUSH1 0x40 MLOAD DUP1 SWAP2 SUB SWAP1 RETURN JUMPDEST PUSH2 0x28F PUSH1 0x4 DUP1 CALLDATASIZE SUB DUP2 ADD SWAP1 PUSH2 0x28A SWAP2 SWAP1 PUSH2 0xAD3 JUMP JUMPDEST PUSH2 0x83C JUMP JUMPDEST PUSH1 0x40 MLOAD PUSH2 0x29C SWAP2 SWAP1 PUSH2 0xB8D JUMP JUMPDEST PUSH1 0x40 MLOAD DUP1 SWAP2 SUB SWAP1 RETURN JUMPDEST PUSH2 0x2BF PUSH1 0x4 DUP1 CALLDATASIZE SUB DUP2 ADD SWAP1 PUSH2 0x2BA SWAP2 SWAP1 PUSH2 0xAD3 JUMP JUMPDEST PUSH2 0x860 JUMP JUMPDEST PUSH1 0x40 MLOAD PUSH2 0x2CC SWAP2 SWAP1 PUSH2 0xB8D JUMP JUMPDEST PUSH1 0x40 MLOAD DUP1 SWAP2 SUB SWAP1 RETURN JUMPDEST PUSH2 0x2DD PUSH2 0x87D JUMP JUMPDEST PUSH1 0x40 MLOAD PUSH2 0x2EA SWAP2 SWAP1 PUSH2 0xB8D JUMP JUMPDEST PUSH1 0x40 MLOAD DUP1 SWAP2 SUB SWAP1 RETURN JUMPDEST PUSH2 0x30D PUSH1 0x4 DUP1 CALLDATASIZE SUB DUP2 ADD SWAP1 PUSH2 0x308 SWAP2 SWAP1 PUSH2 0xAD3 JUMP JUMPDEST PUSH2 0x88A JUMP JUMPDEST PUSH1 0x40 MLOAD PUSH2 0x31A SWAP2 SWAP1 PUSH2 0xB3C JUMP JUMPDEST PUSH1 0x40 MLOAD DUP1 SWAP2 SUB SWAP1 RETURN JUMPDEST PUSH2 0x32B PUSH2 0x8D2 JUMP JUMPDEST PUSH1 0x40 MLOAD PUSH2 0x338 SWAP2 SWAP1 PUSH2 0xB8D JUMP JUMPDEST PUSH1 0x40 MLOAD DUP1 SWAP2 SUB SWAP1 RETURN JUMPDEST PUSH2 0x349 PUSH2 0x8D8 JUMP JUMPDEST PUSH1 0x40 MLOAD PUSH2 0x356 SWAP2 SWAP1 PUSH2 0xB8D JUMP JUMPDEST PUSH1 0x40 MLOAD DUP1 SWAP2 SUB SWAP1 RETURN JUMPDEST PUSH2 0x379 PUSH1 0x4 DUP1 CALLDATASIZE SUB DUP2 ADD SWAP1 PUSH2 0x374 SWAP2 SWAP1 PUSH2 0xAA6 JUMP JUMPDEST PUSH2 0x8E5 JUMP JUMPDEST STOP JUMPDEST PUSH2 0x383 PUSH2 0xA07 JUMP JUMPDEST STOP JUMPDEST PUSH32 0xFFFFFFFFFFFFFFFFFFFFFFFFFFFFFFFFFFFFFFFFFFFFFFFFFFFFFFFFFFFFFFFF PUSH1 0x6 PUSH1 0x0 CALLER PUSH20 0xFFFFFFFFFFFFFFFFFFFFFFFFFFFFFFFFFFFFFFFF AND PUSH20 0xFFFFFFFFFFFFFFFFFFFFFFFFFFFFFFFFFFFFFFFF AND DUP2 MSTORE PUSH1 0x20 ADD SWAP1 DUP2 MSTORE PUSH1 0x20 ADD PUSH1 0x0 KECCAK256 SLOAD EQ ISZERO PUSH2 0x4B8 JUMPI PUSH1 0x0 DUP1 PUSH1 0x0 SWAP1 POP JUMPDEST PUSH1 0x3 DUP1 SLOAD SWAP1 POP DUP2 LT ISZERO PUSH2 0x43F JUMPI DUP3 PUSH1 0x3 DUP3 DUP2 SLOAD DUP2 LT PUSH2 0x416 JUMPI PUSH2 0x415 PUSH2 0xCFC JUMP JUMPDEST JUMPDEST SWAP1 PUSH1 0x0 MSTORE PUSH1 0x20 PUSH1 0x0 KECCAK256 ADD SLOAD EQ ISZERO PUSH2 0x42C JUMPI PUSH1 0x1 SWAP2 POP JUMPDEST DUP1 DUP1 PUSH2 0x437 SWAP1 PUSH2 0xC84 JUMP JUMPDEST SWAP2 POP POP PUSH2 0x3F4 JUMP JUMPDEST POP DUP1 ISZERO PUSH2 0x4B6 JUMPI PUSH1 0x1 PUSH1 0x4 PUSH1 0x0 DUP5 DUP2 MSTORE PUSH1 0x20 ADD SWAP1 DUP2 MSTORE PUSH1 0x20 ADD PUSH1 0x0 KECCAK256 PUSH1 0x0 DUP3 DUP3 SLOAD PUSH2 0x46A SWAP2 SWAP1 PUSH2 0xBA8 JUMP JUMPDEST SWAP3 POP POP DUP2 SWAP1 SSTORE POP DUP2 PUSH1 0x6 PUSH1 0x0 CALLER PUSH20 0xFFFFFFFFFFFFFFFFFFFFFFFFFFFFFFFFFFFFFFFF AND PUSH20 0xFFFFFFFFFFFFFFFFFFFFFFFFFFFFFFFFFFFFFFFF AND DUP2 MSTORE PUSH1 0x20 ADD SWAP1 DUP2 MSTORE PUSH1 0x20 ADD PUSH1 0x0 KECCAK256 DUP2 SWAP1 SSTORE POP JUMPDEST POP JUMPDEST POP JUMP JUMPDEST PUSH1 0x0 PUSH1 0x6 PUSH1 0x0 DUP4 PUSH20 0xFFFFFFFFFFFFFFFFFFFFFFFFFFFFFFFFFFFFFFFF AND PUSH20 0xFFFFFFFFFFFFFFFFFFFFFFFFFFFFFFFFFFFFFFFF AND DUP2 MSTORE PUSH1 0x20 ADD SWAP1 DUP2 MSTORE PUSH1 0x20 ADD PUSH1 0x0 KECCAK256 SLOAD SWAP1 POP SWAP2 SWAP1 POP JUMP JUMPDEST PUSH1 0x0 DUP1 SLOAD SWAP1 PUSH2 0x100 EXP SWAP1 DIV PUSH20 0xFFFFFFFFFFFFFFFFFFFFFFFFFFFFFFFFFFFFFFFF AND PUSH20 0xFFFFFFFFFFFFFFFFFFFFFFFFFFFFFFFFFFFFFFFF AND CALLER PUSH20 0xFFFFFFFFFFFFFFFFFFFFFFFFFFFFFFFFFFFFFFFF AND EQ PUSH2 0x55C JUMPI PUSH1 0x0 DUP1 REVERT JUMPDEST PUSH1 0x3 DUP2 SWAP1 DUP1 PUSH1 0x1 DUP2 SLOAD ADD DUP1 DUP3 SSTORE DUP1 SWAP2 POP POP PUSH1 0x1 SWAP1 SUB SWAP1 PUSH1 0x0 MSTORE PUSH1 0x20 PUSH1 0x0 KECCAK256 ADD PUSH1 0x0 SWAP1 SWAP2 SWAP1 SWAP2 SWAP1 SWAP2 POP SSTORE PUSH1 0x0 PUSH1 0x4 PUSH1 0x0 DUP4 DUP2 MSTORE PUSH1 0x20 ADD SWAP1 DUP2 MSTORE PUSH1 0x20 ADD PUSH1 0x0 KECCAK256 DUP2 SWAP1 SSTORE POP POP JUMP JUMPDEST PUSH1 0x0 DUP1 SLOAD SWAP1 PUSH2 0x100 EXP SWAP1 DIV PUSH20 0xFFFFFFFFFFFFFFFFFFFFFFFFFFFFFFFFFFFFFFFF AND PUSH20 0xFFFFFFFFFFFFFFFFFFFFFFFFFFFFFFFFFFFFFFFF AND CALLER PUSH20 0xFFFFFFFFFFFFFFFFFFFFFFFFFFFFFFFFFFFFFFFF AND EQ PUSH2 0x5F9 JUMPI PUSH1 0x0 DUP1 REVERT JUMPDEST PUSH1 0x1 PUSH1 0x2 PUSH1 0x0 PUSH2 0x100 EXP DUP2 SLOAD DUP2 PUSH1 0xFF MUL NOT AND SWAP1 DUP4 ISZERO ISZERO MUL OR SWAP1 SSTORE POP JUMP JUMPDEST PUSH1 0x0 PUSH1 0x6 PUSH1 0x0 CALLER PUSH20 0xFFFFFFFFFFFFFFFFFFFFFFFFFFFFFFFFFFFFFFFF AND PUSH20 0xFFFFFFFFFFFFFFFFFFFFFFFFFFFFFFFFFFFFFFFF AND DUP2 MSTORE PUSH1 0x20 ADD SWAP1 DUP2 MSTORE PUSH1 0x20 ADD PUSH1 0x0 KECCAK256 SLOAD EQ PUSH2 0x793 JUMPI PUSH1 0x0 DUP1 PUSH1 0x0 SWAP1 POP JUMPDEST PUSH1 0x3 DUP1 SLOAD SWAP1 POP DUP2 LT ISZERO PUSH2 0x6B0 JUMPI DUP3 PUSH1 0x3 DUP3 DUP2 SLOAD DUP2 LT PUSH2 0x687 JUMPI PUSH2 0x686 PUSH2 0xCFC JUMP JUMPDEST JUMPDEST SWAP1 PUSH1 0x0 MSTORE PUSH1 0x20 PUSH1 0x0 KECCAK256 ADD SLOAD EQ ISZERO PUSH2 0x69D JUMPI PUSH1 0x1 SWAP2 POP JUMPDEST DUP1 DUP1 PUSH2 0x6A8 SWAP1 PUSH2 0xC84 JUMP JUMPDEST SWAP2 POP POP PUSH2 0x665 JUMP JUMPDEST POP DUP1 ISZERO PUSH2 0x791 JUMPI PUSH1 0x1 PUSH1 0x4 PUSH1 0x0 PUSH1 0x6 PUSH1 0x0 CALLER PUSH20 0xFFFFFFFFFFFFFFFFFFFFFFFFFFFFFFFFFFFFFFFF AND PUSH20 0xFFFFFFFFFFFFFFFFFFFFFFFFFFFFFFFFFFFFFFFF AND DUP2 MSTORE PUSH1 0x20 ADD SWAP1 DUP2 MSTORE PUSH1 0x20 ADD PUSH1 0x0 KECCAK256 SLOAD DUP2 MSTORE PUSH1 0x20 ADD SWAP1 DUP2 MSTORE PUSH1 0x20 ADD PUSH1 0x0 KECCAK256 PUSH1 0x0 DUP3 DUP3 SLOAD PUSH2 0x71A SWAP2 SWAP1 PUSH2 0xBFE JUMP JUMPDEST SWAP3 POP POP DUP2 SWAP1 SSTORE POP PUSH1 0x1 PUSH1 0x4 PUSH1 0x0 DUP5 DUP2 MSTORE PUSH1 0x20 ADD SWAP1 DUP2 MSTORE PUSH1 0x20 ADD PUSH1 0x0 KECCAK256 PUSH1 0x0 DUP3 DUP3 SLOAD PUSH2 0x745 SWAP2 SWAP1 PUSH2 0xBA8 JUMP JUMPDEST SWAP3 POP POP DUP2 SWAP1 SSTORE POP DUP2 PUSH1 0x6 PUSH1 0x0 CALLER PUSH20 0xFFFFFFFFFFFFFFFFFFFFFFFFFFFFFFFFFFFFFFFF AND PUSH20 0xFFFFFFFFFFFFFFFFFFFFFFFFFFFFFFFFFFFFFFFF AND DUP2 MSTORE PUSH1 0x20 ADD SWAP1 DUP2 MSTORE PUSH1 0x20 ADD PUSH1 0x0 KECCAK256 DUP2 SWAP1 SSTORE POP JUMPDEST POP JUMPDEST POP JUMP JUMPDEST PUSH1 0x5 DUP2 DUP2 SLOAD DUP2 LT PUSH2 0x7A6 JUMPI PUSH1 0x0 DUP1 REVERT JUMPDEST SWAP1 PUSH1 0x0 MSTORE PUSH1 0x20 PUSH1 0x0 KECCAK256 ADD PUSH1 0x0 SWAP2 POP SLOAD SWAP1 PUSH2 0x100 EXP SWAP1 DIV PUSH20 0xFFFFFFFFFFFFFFFFFFFFFFFFFFFFFFFFFFFFFFFF AND DUP2 JUMP JUMPDEST PUSH1 0x2 PUSH1 0x0 SWAP1 SLOAD SWAP1 PUSH2 0x100 EXP SWAP1 DIV PUSH1 0xFF AND DUP2 JUMP JUMPDEST PUSH1 0x0 DUP1 SLOAD SWAP1 PUSH2 0x100 EXP SWAP1 DIV PUSH20 0xFFFFFFFFFFFFFFFFFFFFFFFFFFFFFFFFFFFFFFFF AND DUP2 JUMP JUMPDEST PUSH1 0x4 PUSH1 0x20 MSTORE DUP1 PUSH1 0x0 MSTORE PUSH1 0x40 PUSH1 0x0 KECCAK256 PUSH1 0x0 SWAP2 POP SWAP1 POP SLOAD DUP2 JUMP JUMPDEST PUSH1 0x6 PUSH1 0x20 MSTORE DUP1 PUSH1 0x0 MSTORE PUSH1 0x40 PUSH1 0x0 KECCAK256 PUSH1 0x0 SWAP2 POP SWAP1 POP SLOAD DUP2 JUMP JUMPDEST PUSH1 0x3 DUP2 DUP2 SLOAD DUP2 LT PUSH2 0x84C JUMPI PUSH1 0x0 DUP1 REVERT JUMPDEST SWAP1 PUSH1 0x0 MSTORE PUSH1 0x20 PUSH1 0x0 KECCAK256 ADD PUSH1 0x0 SWAP2 POP SWAP1 POP SLOAD DUP2 JUMP JUMPDEST PUSH1 0x0 PUSH1 0x4 PUSH1 0x0 DUP4 DUP2 MSTORE PUSH1 0x20 ADD SWAP1 DUP2 MSTORE PUSH1 0x20 ADD PUSH1 0x0 KECCAK256 SLOAD SWAP1 POP SWAP2 SWAP1 POP JUMP JUMPDEST PUSH1 0x0 PUSH1 0x5 DUP1 SLOAD SWAP1 POP SWAP1 POP SWAP1 JUMP JUMPDEST PUSH1 0x0 PUSH1 0x5 DUP3 DUP2 SLOAD DUP2 LT PUSH2 0x8A0 JUMPI PUSH2 0x89F PUSH2 0xCFC JUMP JUMPDEST JUMPDEST SWAP1 PUSH1 0x0 MSTORE PUSH1 0x20 PUSH1 0x0 KECCAK256 ADD PUSH1 0x0 SWAP1 SLOAD SWAP1 PUSH2 0x100 EXP SWAP1 DIV PUSH20 0xFFFFFFFFFFFFFFFFFFFFFFFFFFFFFFFFFFFFFFFF AND SWAP1 POP SWAP2 SWAP1 POP JUMP JUMPDEST PUSH1 0x1 SLOAD DUP2 JUMP JUMPDEST PUSH1 0x0 PUSH1 0x3 DUP1 SLOAD SWAP1 POP SWAP1 POP SWAP1 JUMP JUMPDEST PUSH1 0x0 DUP1 SLOAD SWAP1 PUSH2 0x100 EXP SWAP1 DIV PUSH20 0xFFFFFFFFFFFFFFFFFFFFFFFFFFFFFFFFFFFFFFFF AND PUSH20 0xFFFFFFFFFFFFFFFFFFFFFFFFFFFFFFFFFFFFFFFF AND CALLER PUSH20 0xFFFFFFFFFFFFFFFFFFFFFFFFFFFFFFFFFFFFFFFF AND EQ PUSH2 0x93D JUMPI PUSH1 0x0 DUP1 REVERT JUMPDEST PUSH1 0x5 DUP2 SWAP1 DUP1 PUSH1 0x1 DUP2 SLOAD ADD DUP1 DUP3 SSTORE DUP1 SWAP2 POP POP PUSH1 0x1 SWAP1 SUB SWAP1 PUSH1 0x0 MSTORE PUSH1 0x20 PUSH1 0x0 KECCAK256 ADD PUSH1 0x0 SWAP1 SWAP2 SWAP1 SWAP2 SWAP1 SWAP2 PUSH2 0x100 EXP DUP2 SLOAD DUP2 PUSH20 0xFFFFFFFFFFFFFFFFFFFFFFFFFFFFFFFFFFFFFFFF MUL NOT AND SWAP1 DUP4 PUSH20 0xFFFFFFFFFFFFFFFFFFFFFFFFFFFFFFFFFFFFFFFF AND MUL OR SWAP1 SSTORE POP PUSH32 0xFFFFFFFFFFFFFFFFFFFFFFFFFFFFFFFFFFFFFFFFFFFFFFFFFFFFFFFFFFFFFFFF PUSH1 0x6 PUSH1 0x0 DUP4 PUSH20 0xFFFFFFFFFFFFFFFFFFFFFFFFFFFFFFFFFFFFFFFF AND PUSH20 0xFFFFFFFFFFFFFFFFFFFFFFFFFFFFFFFFFFFFFFFF AND DUP2 MSTORE PUSH1 0x20 ADD SWAP1 DUP2 MSTORE PUSH1 0x20 ADD PUSH1 0x0 KECCAK256 DUP2 SWAP1 SSTORE POP POP JUMP JUMPDEST PUSH1 0x0 DUP1 SLOAD SWAP1 PUSH2 0x100 EXP SWAP1 DIV PUSH20 0xFFFFFFFFFFFFFFFFFFFFFFFFFFFFFFFFFFFFFFFF AND PUSH20 0xFFFFFFFFFFFFFFFFFFFFFFFFFFFFFFFFFFFFFFFF AND CALLER PUSH20 0xFFFFFFFFFFFFFFFFFFFFFFFFFFFFFFFFFFFFFFFF AND EQ PUSH2 0xA5F JUMPI PUSH1 0x0 DUP1 REVERT JUMPDEST PUSH1 0x0 PUSH1 0x2 PUSH1 0x0 PUSH2 0x100 EXP DUP2 SLOAD DUP2 PUSH1 0xFF MUL NOT AND SWAP1 DUP4 ISZERO ISZERO MUL OR SWAP1 SSTORE POP JUMP JUMPDEST PUSH1 0x0 DUP2 CALLDATALOAD SWAP1 POP PUSH2 0xA8B DUP2 PUSH2 0xD30 JUMP JUMPDEST SWAP3 SWAP2 POP POP JUMP JUMPDEST PUSH1 0x0 DUP2 CALLDATALOAD SWAP1 POP PUSH2 0xAA0 DUP2 PUSH2 0xD47 JUMP JUMPDEST SWAP3 SWAP2 POP POP JUMP JUMPDEST PUSH1 0x0 PUSH1 0x20 DUP3 DUP5 SUB SLT ISZERO PUSH2 0xABC JUMPI PUSH2 0xABB PUSH2 0xD2B JUMP JUMPDEST JUMPDEST PUSH1 0x0 PUSH2 0xACA DUP5 DUP3 DUP6 ADD PUSH2 0xA7C JUMP JUMPDEST SWAP2 POP POP SWAP3 SWAP2 POP POP JUMP JUMPDEST PUSH1 0x0 PUSH1 0x20 DUP3 DUP5 SUB SLT ISZERO PUSH2 0xAE9 JUMPI PUSH2 0xAE8 PUSH2 0xD2B JUMP JUMPDEST JUMPDEST PUSH1 0x0 PUSH2 0xAF7 DUP5 DUP3 DUP6 ADD PUSH2 0xA91 JUMP JUMPDEST SWAP2 POP POP SWAP3 SWAP2 POP POP JUMP JUMPDEST PUSH2 0xB09 DUP2 PUSH2 0xC32 JUMP JUMPDEST DUP3 MSTORE POP POP JUMP JUMPDEST PUSH2 0xB18 DUP2 PUSH2 0xC44 JUMP JUMPDEST DUP3 MSTORE POP POP JUMP JUMPDEST PUSH2 0xB27 DUP2 PUSH2 0xC50 JUMP JUMPDEST DUP3 MSTORE POP POP JUMP JUMPDEST PUSH2 0xB36 DUP2 PUSH2 0xC7A JUMP JUMPDEST DUP3 MSTORE POP POP JUMP JUMPDEST PUSH1 0x0 PUSH1 0x20 DUP3 ADD SWAP1 POP PUSH2 0xB51 PUSH1 0x0 DUP4 ADD DUP5 PUSH2 0xB00 JUMP JUMPDEST SWAP3 SWAP2 POP POP JUMP JUMPDEST PUSH1 0x0 PUSH1 0x20 DUP3 ADD SWAP1 POP PUSH2 0xB6C PUSH1 0x0 DUP4 ADD DUP5 PUSH2 0xB0F JUMP JUMPDEST SWAP3 SWAP2 POP POP JUMP JUMPDEST PUSH1 0x0 PUSH1 0x20 DUP3 ADD SWAP1 POP PUSH2 0xB87 PUSH1 0x0 DUP4 ADD DUP5 PUSH2 0xB1E JUMP JUMPDEST SWAP3 SWAP2 POP POP JUMP JUMPDEST PUSH1 0x0 PUSH1 0x20 DUP3 ADD SWAP1 POP PUSH2 0xBA2 PUSH1 0x0 DUP4 ADD DUP5 PUSH2 0xB2D JUMP JUMPDEST SWAP3 SWAP2 POP POP JUMP JUMPDEST PUSH1 0x0 PUSH2 0xBB3 DUP3 PUSH2 0xC7A JUMP JUMPDEST SWAP2 POP PUSH2 0xBBE DUP4 PUSH2 0xC7A JUMP JUMPDEST SWAP3 POP DUP3 PUSH32 0xFFFFFFFFFFFFFFFFFFFFFFFFFFFFFFFFFFFFFFFFFFFFFFFFFFFFFFFFFFFFFFFF SUB DUP3 GT ISZERO PUSH2 0xBF3 JUMPI PUSH2 0xBF2 PUSH2 0xCCD JUMP JUMPDEST JUMPDEST DUP3 DUP3 ADD SWAP1 POP SWAP3 SWAP2 POP POP JUMP JUMPDEST PUSH1 0x0 PUSH2 0xC09 DUP3 PUSH2 0xC7A JUMP JUMPDEST SWAP2 POP PUSH2 0xC14 DUP4 PUSH2 0xC7A JUMP JUMPDEST SWAP3 POP DUP3 DUP3 LT ISZERO PUSH2 0xC27 JUMPI PUSH2 0xC26 PUSH2 0xCCD JUMP JUMPDEST JUMPDEST DUP3 DUP3 SUB SWAP1 POP SWAP3 SWAP2 POP POP JUMP JUMPDEST PUSH1 0x0 PUSH2 0xC3D DUP3 PUSH2 0xC5A JUMP JUMPDEST SWAP1 POP SWAP2 SWAP1 POP JUMP JUMPDEST PUSH1 0x0 DUP2 ISZERO ISZERO SWAP1 POP SWAP2 SWAP1 POP JUMP JUMPDEST PUSH1 0x0 DUP2 SWAP1 POP SWAP2 SWAP1 POP JUMP JUMPDEST PUSH1 0x0 PUSH20 0xFFFFFFFFFFFFFFFFFFFFFFFFFFFFFFFFFFFFFFFF DUP3 AND SWAP1 POP SWAP2 SWAP1 POP JUMP JUMPDEST PUSH1 0x0 DUP2 SWAP1 POP SWAP2 SWAP1 POP JUMP JUMPDEST PUSH1 0x0 PUSH2 0xC8F DUP3 PUSH2 0xC7A JUMP JUMPDEST SWAP2 POP PUSH32 0xFFFFFFFFFFFFFFFFFFFFFFFFFFFFFFFFFFFFFFFFFFFFFFFFFFFFFFFFFFFFFFFF DUP3 EQ ISZERO PUSH2 0xCC2 JUMPI PUSH2 0xCC1 PUSH2 0xCCD JUMP JUMPDEST JUMPDEST PUSH1 0x1 DUP3 ADD SWAP1 POP SWAP2 SWAP1 POP JUMP JUMPDEST PUSH32 0x4E487B7100000000000000000000000000000000000000000000000000000000 PUSH1 0x0 MSTORE PUSH1 0x11 PUSH1 0x4 MSTORE PUSH1 0x24 PUSH1 0x0 REVERT JUMPDEST PUSH32 0x4E487B7100000000000000000000000000000000000000000000000000000000 PUSH1 0x0 MSTORE PUSH1 0x32 PUSH1 0x4 MSTORE PUSH1 0x24 PUSH1 0x0 REVERT JUMPDEST PUSH1 0x0 DUP1 REVERT JUMPDEST PUSH2 0xD39 DUP2 PUSH2 0xC32 JUMP JUMPDEST DUP2 EQ PUSH2 0xD44 JUMPI PUSH1 0x0 DUP1 REVERT JUMPDEST POP JUMP JUMPDEST PUSH2 0xD50 DUP2 PUSH2 0xC7A JUMP JUMPDEST DUP2 EQ PUSH2 0xD5B JUMPI PUSH1 0x0 DUP1 REVERT JUMPDEST POP JUMP INVALID LOG2 PUSH5 0x6970667358 0x22 SLT KECCAK256 0xAE ADDRESS 0x4F DUP16 EXP DUP15 0xA9 DUP6 KECCAK256 0xD 0xD DUP8 0xA5 0xB4 EQ 0x49 0xA6 TIMESTAMP 0xCB PUSH11 0x21B24A3D019E66A6526ECA PUSH31 0x64736F6C634300080700330000000000000000000000000000000000000000 "
				},
				"gasEstimates": {
					"creation": {
						"codeDepositCost": "695200",
						"executionCost": "49261",
						"totalCost": "744461"
					},
					"external": {
						"addTarget(uint256)": "54156",
						"addVoter(address)": "73493",
						"close()": "26668",
						"closed()": "2538",
						"getNumberOfVotes(uint256)": "infinite",
						"getTargetArrayLength()": "2511",
						"getVotedTarget(address)": "2887",
						"getVoterAddress(uint256)": "4989",
						"getVoterArrayLength()": "2534",
						"open()": "26688",
						"owner()": "2600",
						"revote(uint256)": "infinite",
						"target(uint256)": "infinite",
						"targetList(uint256)": "infinite",
						"vote(uint256)": "infinite",
						"voter(address)": "2837",
						"voterList(uint256)": "5001",
						"winner()": "2473"
					}
				},
				"methodIdentifiers": {
					"addTarget(uint256)": "36002617",
					"addVoter(address)": "f4ab9adf",
					"close()": "43d726d6",
					"closed()": "597e1fb5",
					"getNumberOfVotes(uint256)": "c71f4253",
					"getTargetArrayLength()": "e318e7d5",
					"getVotedTarget(address)": "1b9ebe54",
					"getVoterAddress(uint256)": "d83b2c05",
					"getVoterArrayLength()": "cdcbc3c2",
					"open()": "fcfff16f",
					"owner()": "8da5cb5b",
					"revote(uint256)": "4eda77e1",
					"target(uint256)": "9811c7c1",
					"targetList(uint256)": "c29e1a56",
					"vote(uint256)": "0121b93f",
					"voter(address)": "af0dbe54",
					"voterList(uint256)": "50e2e8af",
					"winner()": "dfbf53ae"
				}
			},
			"storageLayout": {
				"storage": [
					{
						"astId": 3,
						"contract": "contracts/Vote.sol:Vote",
						"label": "owner",
						"offset": 0,
						"slot": "0",
						"type": "t_address"
					},
					{
						"astId": 5,
						"contract": "contracts/Vote.sol:Vote",
						"label": "winner",
						"offset": 0,
						"slot": "1",
						"type": "t_uint256"
					},
					{
						"astId": 8,
						"contract": "contracts/Vote.sol:Vote",
						"label": "closed",
						"offset": 0,
						"slot": "2",
						"type": "t_bool"
					},
					{
						"astId": 11,
						"contract": "contracts/Vote.sol:Vote",
						"label": "targetList",
						"offset": 0,
						"slot": "3",
						"type": "t_array(t_uint256)dyn_storage"
					},
					{
						"astId": 15,
						"contract": "contracts/Vote.sol:Vote",
						"label": "target",
						"offset": 0,
						"slot": "4",
						"type": "t_mapping(t_uint256,t_uint256)"
					},
					{
						"astId": 18,
						"contract": "contracts/Vote.sol:Vote",
						"label": "voterList",
						"offset": 0,
						"slot": "5",
						"type": "t_array(t_address)dyn_storage"
					},
					{
						"astId": 22,
						"contract": "contracts/Vote.sol:Vote",
						"label": "voter",
						"offset": 0,
						"slot": "6",
						"type": "t_mapping(t_address,t_int256)"
					}
				],
				"types": {
					"t_address": {
						"encoding": "inplace",
						"label": "address",
						"numberOfBytes": "20"
					},
					"t_array(t_address)dyn_storage": {
						"base": "t_address",
						"encoding": "dynamic_array",
						"label": "address[]",
						"numberOfBytes": "32"
					},
					"t_array(t_uint256)dyn_storage": {
						"base": "t_uint256",
						"encoding": "dynamic_array",
						"label": "uint256[]",
						"numberOfBytes": "32"
					},
					"t_bool": {
						"encoding": "inplace",
						"label": "bool",
						"numberOfBytes": "1"
					},
					"t_int256": {
						"encoding": "inplace",
						"label": "int256",
						"numberOfBytes": "32"
					},
					"t_mapping(t_address,t_int256)": {
						"encoding": "mapping",
						"key": "t_address",
						"label": "mapping(address => int256)",
						"numberOfBytes": "32",
						"value": "t_int256"
					},
					"t_mapping(t_uint256,t_uint256)": {
						"encoding": "mapping",
						"key": "t_uint256",
						"label": "mapping(uint256 => uint256)",
						"numberOfBytes": "32",
						"value": "t_uint256"
					},
					"t_uint256": {
						"encoding": "inplace",
						"label": "uint256",
						"numberOfBytes": "32"
					}
				}
			},
			"userdoc": {
				"kind": "user",
				"methods": {},
				"version": 1
			}
		}
	}
}