{
	"contracts/Vote.sol": {
		"Vote": {
			"abi": [
				{
					"inputs": [],
					"stateMutability": "nonpayable",
					"type": "constructor"
				},
				{
					"inputs": [
						{
							"internalType": "uint256",
							"name": "_targetID",
							"type": "uint256"
						}
					],
					"name": "addTarget",
					"outputs": [],
					"stateMutability": "nonpayable",
					"type": "function"
				},
				{
					"inputs": [
						{
							"internalType": "address",
							"name": "_voter",
							"type": "address"
						}
					],
					"name": "addVoter",
					"outputs": [],
					"stateMutability": "nonpayable",
					"type": "function"
				},
				{
					"inputs": [],
					"name": "close",
					"outputs": [],
					"stateMutability": "nonpayable",
					"type": "function"
				},
				{
					"inputs": [],
					"name": "closed",
					"outputs": [
						{
							"internalType": "bool",
							"name": "",
							"type": "bool"
						}
					],
					"stateMutability": "view",
					"type": "function"
				},
				{
					"inputs": [
						{
							"internalType": "uint256",
							"name": "i",
							"type": "uint256"
						}
					],
					"name": "getNumberOfVotes",
					"outputs": [
						{
							"internalType": "uint256",
							"name": "",
							"type": "uint256"
						}
					],
					"stateMutability": "view",
					"type": "function"
				},
				{
					"inputs": [],
					"name": "getTargetArrayLength",
					"outputs": [
						{
							"internalType": "uint256",
							"name": "",
							"type": "uint256"
						}
					],
					"stateMutability": "view",
					"type": "function"
				},
				{
					"inputs": [
						{
							"internalType": "uint256",
							"name": "i",
							"type": "uint256"
						}
					],
					"name": "getTargetID",
					"outputs": [
						{
							"internalType": "uint256",
							"name": "",
							"type": "uint256"
						}
					],
					"stateMutability": "view",
					"type": "function"
				},
				{
					"inputs": [
						{
							"internalType": "address",
							"name": "_voter",
							"type": "address"
						}
					],
					"name": "getVotedTarget",
					"outputs": [
						{
							"internalType": "int256",
							"name": "",
							"type": "int256"
						}
					],
					"stateMutability": "view",
					"type": "function"
				},
				{
					"inputs": [
						{
							"internalType": "uint256",
							"name": "i",
							"type": "uint256"
						}
					],
					"name": "getVoterAddress",
					"outputs": [
						{
							"internalType": "address",
							"name": "",
							"type": "address"
						}
					],
					"stateMutability": "view",
					"type": "function"
				},
				{
					"inputs": [],
					"name": "getVoterArrayLength",
					"outputs": [
						{
							"internalType": "uint256",
							"name": "",
							"type": "uint256"
						}
					],
					"stateMutability": "view",
					"type": "function"
				},
				{
					"inputs": [],
					"name": "open",
					"outputs": [],
					"stateMutability": "nonpayable",
					"type": "function"
				},
				{
					"inputs": [],
					"name": "owner",
					"outputs": [
						{
							"internalType": "address",
							"name": "",
							"type": "address"
						}
					],
					"stateMutability": "view",
					"type": "function"
				},
				{
					"inputs": [
						{
							"internalType": "uint256",
							"name": "_target",
							"type": "uint256"
						}
					],
					"name": "revote",
					"outputs": [],
					"stateMutability": "nonpayable",
					"type": "function"
				},
				{
					"inputs": [
						{
							"internalType": "uint256",
							"name": "",
							"type": "uint256"
						}
					],
					"name": "target",
					"outputs": [
						{
							"internalType": "uint256",
							"name": "",
							"type": "uint256"
						}
					],
					"stateMutability": "view",
					"type": "function"
				},
				{
					"inputs": [
						{
							"internalType": "uint256",
							"name": "",
							"type": "uint256"
						}
					],
					"name": "targetList",
					"outputs": [
						{
							"internalType": "uint256",
							"name": "",
							"type": "uint256"
						}
					],
					"stateMutability": "view",
					"type": "function"
				},
				{
					"inputs": [
						{
							"internalType": "uint256",
							"name": "_target",
							"type": "uint256"
						}
					],
					"name": "vote",
					"outputs": [],
					"stateMutability": "nonpayable",
					"type": "function"
				},
				{
					"inputs": [
						{
							"internalType": "address",
							"name": "",
							"type": "address"
						}
					],
					"name": "voter",
					"outputs": [
						{
							"internalType": "int256",
							"name": "",
							"type": "int256"
						}
					],
					"stateMutability": "view",
					"type": "function"
				},
				{
					"inputs": [
						{
							"internalType": "uint256",
							"name": "",
							"type": "uint256"
						}
					],
					"name": "voterList",
					"outputs": [
						{
							"internalType": "address",
							"name": "",
							"type": "address"
						}
					],
					"stateMutability": "view",
					"type": "function"
				},
				{
					"inputs": [],
					"name": "winner",
					"outputs": [
						{
							"internalType": "uint256",
							"name": "",
							"type": "uint256"
						}
					],
					"stateMutability": "view",
					"type": "function"
				}
			],
			"devdoc": {
				"kind": "dev",
				"methods": {},
				"version": 1
			},
			"evm": {
				"assembly": "    /* \"contracts/Vote.sol\":143:2823  contract Vote {... */\n  mstore(0x40, 0x80)\n    /* \"contracts/Vote.sol\":333:337  true */\n  0x01\n    /* \"contracts/Vote.sol\":312:337  bool public closed = true */\n  0x02\n  exp(0x0100, 0x00)\n  dup2\n  sload\n  dup2\n  0xff\n  mul\n  not\n  and\n  swap1\n  dup4\n  iszero\n  iszero\n  mul\n  or\n  swap1\n  sstore\n  pop\n    /* \"contracts/Vote.sol\":1164:1204  constructor() {... */\n  callvalue\n  dup1\n  iszero\n  tag_1\n  jumpi\n  0x00\n  dup1\n  revert\ntag_1:\n  pop\n    /* \"contracts/Vote.sol\":1190:1200  msg.sender */\n  caller\n    /* \"contracts/Vote.sol\":1182:1187  owner */\n  0x00\n  dup1\n    /* \"contracts/Vote.sol\":1182:1200  owner = msg.sender */\n  0x0100\n  exp\n  dup2\n  sload\n  dup2\n  0xffffffffffffffffffffffffffffffffffffffff\n  mul\n  not\n  and\n  swap1\n  dup4\n  0xffffffffffffffffffffffffffffffffffffffff\n  and\n  mul\n  or\n  swap1\n  sstore\n  pop\n    /* \"contracts/Vote.sol\":143:2823  contract Vote {... */\n  dataSize(sub_0)\n  dup1\n  dataOffset(sub_0)\n  0x00\n  codecopy\n  0x00\n  return\nstop\n\nsub_0: assembly {\n        /* \"contracts/Vote.sol\":143:2823  contract Vote {... */\n      mstore(0x40, 0x80)\n      callvalue\n      dup1\n      iszero\n      tag_1\n      jumpi\n      0x00\n      dup1\n      revert\n    tag_1:\n      pop\n      jumpi(tag_2, lt(calldatasize, 0x04))\n      shr(0xe0, calldataload(0x00))\n      dup1\n      0x9811c7c1\n      gt\n      tag_22\n      jumpi\n      dup1\n      0xd83b2c05\n      gt\n      tag_23\n      jumpi\n      dup1\n      0xd83b2c05\n      eq\n      tag_17\n      jumpi\n      dup1\n      0xdfbf53ae\n      eq\n      tag_18\n      jumpi\n      dup1\n      0xe318e7d5\n      eq\n      tag_19\n      jumpi\n      dup1\n      0xf4ab9adf\n      eq\n      tag_20\n      jumpi\n      dup1\n      0xfcfff16f\n      eq\n      tag_21\n      jumpi\n      jump(tag_2)\n    tag_23:\n      dup1\n      0x9811c7c1\n      eq\n      tag_12\n      jumpi\n      dup1\n      0xaf0dbe54\n      eq\n      tag_13\n      jumpi\n      dup1\n      0xc29e1a56\n      eq\n      tag_14\n      jumpi\n      dup1\n      0xc71f4253\n      eq\n      tag_15\n      jumpi\n      dup1\n      0xcdcbc3c2\n      eq\n      tag_16\n      jumpi\n      jump(tag_2)\n    tag_22:\n      dup1\n      0x4eda77e1\n      gt\n      tag_24\n      jumpi\n      dup1\n      0x4eda77e1\n      eq\n      tag_7\n      jumpi\n      dup1\n      0x50e2e8af\n      eq\n      tag_8\n      jumpi\n      dup1\n      0x597e1fb5\n      eq\n      tag_9\n      jumpi\n      dup1\n      0x7736445d\n      eq\n      tag_10\n      jumpi\n      dup1\n      0x8da5cb5b\n      eq\n      tag_11\n      jumpi\n      jump(tag_2)\n    tag_24:\n      dup1\n      0x0121b93f\n      eq\n      tag_3\n      jumpi\n      dup1\n      0x1b9ebe54\n      eq\n      tag_4\n      jumpi\n      dup1\n      0x36002617\n      eq\n      tag_5\n      jumpi\n      dup1\n      0x43d726d6\n      eq\n      tag_6\n      jumpi\n    tag_2:\n      0x00\n      dup1\n      revert\n        /* \"contracts/Vote.sol\":1984:2279  function vote(uint _target) public {... */\n    tag_3:\n      tag_25\n      0x04\n      dup1\n      calldatasize\n      sub\n      dup2\n      add\n      swap1\n      tag_26\n      swap2\n      swap1\n      tag_27\n      jump\t// in\n    tag_26:\n      tag_28\n      jump\t// in\n    tag_25:\n      stop\n        /* \"contracts/Vote.sol\":1888:1981  function getVotedTarget(address _voter) public view returns (int){... */\n    tag_4:\n      tag_29\n      0x04\n      dup1\n      calldatasize\n      sub\n      dup2\n      add\n      swap1\n      tag_30\n      swap2\n      swap1\n      tag_31\n      jump\t// in\n    tag_30:\n      tag_32\n      jump\t// in\n    tag_29:\n      mload(0x40)\n      tag_33\n      swap2\n      swap1\n      tag_34\n      jump\t// in\n    tag_33:\n      mload(0x40)\n      dup1\n      swap2\n      sub\n      swap1\n      return\n        /* \"contracts/Vote.sol\":1206:1342  function addTarget(uint _targetID) public{... */\n    tag_5:\n      tag_35\n      0x04\n      dup1\n      calldatasize\n      sub\n      dup2\n      add\n      swap1\n      tag_36\n      swap2\n      swap1\n      tag_27\n      jump\t// in\n    tag_36:\n      tag_37\n      jump\t// in\n    tag_35:\n      stop\n        /* \"contracts/Vote.sol\":2665:2742  function close() public {... */\n    tag_6:\n      tag_38\n      tag_39\n      jump\t// in\n    tag_38:\n      stop\n        /* \"contracts/Vote.sol\":2324:2662  function revote(uint _target) public {... */\n    tag_7:\n      tag_40\n      0x04\n      dup1\n      calldatasize\n      sub\n      dup2\n      add\n      swap1\n      tag_41\n      swap2\n      swap1\n      tag_27\n      jump\t// in\n    tag_41:\n      tag_42\n      jump\t// in\n    tag_40:\n      stop\n        /* \"contracts/Vote.sol\":538:564  address[] public voterList */\n    tag_8:\n      tag_43\n      0x04\n      dup1\n      calldatasize\n      sub\n      dup2\n      add\n      swap1\n      tag_44\n      swap2\n      swap1\n      tag_27\n      jump\t// in\n    tag_44:\n      tag_45\n      jump\t// in\n    tag_43:\n      mload(0x40)\n      tag_46\n      swap2\n      swap1\n      tag_47\n      jump\t// in\n    tag_46:\n      mload(0x40)\n      dup1\n      swap2\n      sub\n      swap1\n      return\n        /* \"contracts/Vote.sol\":312:337  bool public closed = true */\n    tag_9:\n      tag_48\n      tag_49\n      jump\t// in\n    tag_48:\n      mload(0x40)\n      tag_50\n      swap2\n      swap1\n      tag_51\n      jump\t// in\n    tag_50:\n      mload(0x40)\n      dup1\n      swap2\n      sub\n      swap1\n      return\n        /* \"contracts/Vote.sol\":1520:1579  function getTargetID(uint i) public view returns(uint){... */\n    tag_10:\n      tag_52\n      0x04\n      dup1\n      calldatasize\n      sub\n      dup2\n      add\n      swap1\n      tag_53\n      swap2\n      swap1\n      tag_27\n      jump\t// in\n    tag_53:\n      tag_54\n      jump\t// in\n    tag_52:\n      mload(0x40)\n      tag_55\n      swap2\n      swap1\n      tag_56\n      jump\t// in\n    tag_55:\n      mload(0x40)\n      dup1\n      swap2\n      sub\n      swap1\n      return\n        /* \"contracts/Vote.sol\":160:180  address public owner */\n    tag_11:\n      tag_57\n      tag_58\n      jump\t// in\n    tag_57:\n      mload(0x40)\n      tag_59\n      swap2\n      swap1\n      tag_47\n      jump\t// in\n    tag_59:\n      mload(0x40)\n      dup1\n      swap2\n      sub\n      swap1\n      return\n        /* \"contracts/Vote.sol\":466:501  mapping(uint => uint) public target */\n    tag_12:\n      tag_60\n      0x04\n      dup1\n      calldatasize\n      sub\n      dup2\n      add\n      swap1\n      tag_61\n      swap2\n      swap1\n      tag_27\n      jump\t// in\n    tag_61:\n      tag_62\n      jump\t// in\n    tag_60:\n      mload(0x40)\n      tag_63\n      swap2\n      swap1\n      tag_56\n      jump\t// in\n    tag_63:\n      mload(0x40)\n      dup1\n      swap2\n      sub\n      swap1\n      return\n        /* \"contracts/Vote.sol\":624:660  mapping(address => int) public voter */\n    tag_13:\n      tag_64\n      0x04\n      dup1\n      calldatasize\n      sub\n      dup2\n      add\n      swap1\n      tag_65\n      swap2\n      swap1\n      tag_31\n      jump\t// in\n    tag_65:\n      tag_66\n      jump\t// in\n    tag_64:\n      mload(0x40)\n      tag_67\n      swap2\n      swap1\n      tag_34\n      jump\t// in\n    tag_67:\n      mload(0x40)\n      dup1\n      swap2\n      sub\n      swap1\n      return\n        /* \"contracts/Vote.sol\":396:420  uint[] public targetList */\n    tag_14:\n      tag_68\n      0x04\n      dup1\n      calldatasize\n      sub\n      dup2\n      add\n      swap1\n      tag_69\n      swap2\n      swap1\n      tag_27\n      jump\t// in\n    tag_69:\n      tag_70\n      jump\t// in\n    tag_68:\n      mload(0x40)\n      tag_71\n      swap2\n      swap1\n      tag_56\n      jump\t// in\n    tag_71:\n      mload(0x40)\n      dup1\n      swap2\n      sub\n      swap1\n      return\n        /* \"contracts/Vote.sol\":1344:1427  function getNumberOfVotes(uint i) public view returns(uint){... */\n    tag_15:\n      tag_72\n      0x04\n      dup1\n      calldatasize\n      sub\n      dup2\n      add\n      swap1\n      tag_73\n      swap2\n      swap1\n      tag_27\n      jump\t// in\n    tag_73:\n      tag_74\n      jump\t// in\n    tag_72:\n      mload(0x40)\n      tag_75\n      swap2\n      swap1\n      tag_56\n      jump\t// in\n    tag_75:\n      mload(0x40)\n      dup1\n      swap2\n      sub\n      swap1\n      return\n        /* \"contracts/Vote.sol\":1708:1795  function getVoterArrayLength() public view returns(uint){... */\n    tag_16:\n      tag_76\n      tag_77\n      jump\t// in\n    tag_76:\n      mload(0x40)\n      tag_78\n      swap2\n      swap1\n      tag_56\n      jump\t// in\n    tag_78:\n      mload(0x40)\n      dup1\n      swap2\n      sub\n      swap1\n      return\n        /* \"contracts/Vote.sol\":1797:1886  function getVoterAddress(uint i) public view returns (address){... */\n    tag_17:\n      tag_79\n      0x04\n      dup1\n      calldatasize\n      sub\n      dup2\n      add\n      swap1\n      tag_80\n      swap2\n      swap1\n      tag_27\n      jump\t// in\n    tag_80:\n      tag_81\n      jump\t// in\n    tag_79:\n      mload(0x40)\n      tag_82\n      swap2\n      swap1\n      tag_47\n      jump\t// in\n    tag_82:\n      mload(0x40)\n      dup1\n      swap2\n      sub\n      swap1\n      return\n        /* \"contracts/Vote.sol\":254:272  uint public winner */\n    tag_18:\n      tag_83\n      tag_84\n      jump\t// in\n    tag_83:\n      mload(0x40)\n      tag_85\n      swap2\n      swap1\n      tag_56\n      jump\t// in\n    tag_85:\n      mload(0x40)\n      dup1\n      swap2\n      sub\n      swap1\n      return\n        /* \"contracts/Vote.sol\":1429:1518  function getTargetArrayLength() public view returns(uint){... */\n    tag_19:\n      tag_86\n      tag_87\n      jump\t// in\n    tag_86:\n      mload(0x40)\n      tag_88\n      swap2\n      swap1\n      tag_56\n      jump\t// in\n    tag_88:\n      mload(0x40)\n      dup1\n      swap2\n      sub\n      swap1\n      return\n        /* \"contracts/Vote.sol\":1581:1706  function addVoter(address _voter) public {... */\n    tag_20:\n      tag_89\n      0x04\n      dup1\n      calldatasize\n      sub\n      dup2\n      add\n      swap1\n      tag_90\n      swap2\n      swap1\n      tag_31\n      jump\t// in\n    tag_90:\n      tag_91\n      jump\t// in\n    tag_89:\n      stop\n        /* \"contracts/Vote.sol\":2744:2821  function open() public {... */\n    tag_21:\n      tag_92\n      tag_93\n      jump\t// in\n    tag_92:\n      stop\n        /* \"contracts/Vote.sol\":1984:2279  function vote(uint _target) public {... */\n    tag_28:\n        /* \"contracts/Vote.sol\":2048:2050  -1 */\n      0xffffffffffffffffffffffffffffffffffffffffffffffffffffffffffffffff\n        /* \"contracts/Vote.sol\":2027:2032  voter */\n      0x06\n        /* \"contracts/Vote.sol\":2027:2044  voter[msg.sender] */\n      0x00\n        /* \"contracts/Vote.sol\":2033:2043  msg.sender */\n      caller\n        /* \"contracts/Vote.sol\":2027:2044  voter[msg.sender] */\n      0xffffffffffffffffffffffffffffffffffffffff\n      and\n      0xffffffffffffffffffffffffffffffffffffffff\n      and\n      dup2\n      mstore\n      0x20\n      add\n      swap1\n      dup2\n      mstore\n      0x20\n      add\n      0x00\n      keccak256\n      sload\n        /* \"contracts/Vote.sol\":2027:2050  voter[msg.sender] == -1 */\n      eq\n        /* \"contracts/Vote.sol\":2023:2276  if (voter[msg.sender] == -1) {... */\n      iszero\n      tag_95\n      jumpi\n        /* \"contracts/Vote.sol\":2057:2068  bool _exist */\n      0x00\n        /* \"contracts/Vote.sol\":2078:2084  uint i */\n      dup1\n        /* \"contracts/Vote.sol\":2087:2088  0 */\n      0x00\n        /* \"contracts/Vote.sol\":2078:2088  uint i = 0 */\n      swap1\n      pop\n        /* \"contracts/Vote.sol\":2073:2186  for (uint i = 0; i < targetList.length; i++) {... */\n    tag_96:\n        /* \"contracts/Vote.sol\":2094:2104  targetList */\n      0x03\n        /* \"contracts/Vote.sol\":2094:2111  targetList.length */\n      dup1\n      sload\n      swap1\n      pop\n        /* \"contracts/Vote.sol\":2090:2091  i */\n      dup2\n        /* \"contracts/Vote.sol\":2090:2111  i < targetList.length */\n      lt\n        /* \"contracts/Vote.sol\":2073:2186  for (uint i = 0; i < targetList.length; i++) {... */\n      iszero\n      tag_97\n      jumpi\n        /* \"contracts/Vote.sol\":2145:2152  _target */\n      dup3\n        /* \"contracts/Vote.sol\":2128:2138  targetList */\n      0x03\n        /* \"contracts/Vote.sol\":2139:2140  i */\n      dup3\n        /* \"contracts/Vote.sol\":2128:2141  targetList[i] */\n      dup2\n      sload\n      dup2\n      lt\n      tag_99\n      jumpi\n      tag_100\n      tag_101\n      jump\t// in\n    tag_100:\n    tag_99:\n      swap1\n      0x00\n      mstore\n      keccak256(0x00, 0x20)\n      add\n      sload\n        /* \"contracts/Vote.sol\":2128:2152  targetList[i] == _target */\n      eq\n        /* \"contracts/Vote.sol\":2124:2181  if (targetList[i] == _target) {... */\n      iszero\n      tag_103\n      jumpi\n        /* \"contracts/Vote.sol\":2170:2174  true */\n      0x01\n        /* \"contracts/Vote.sol\":2161:2174  _exist = true */\n      swap2\n      pop\n        /* \"contracts/Vote.sol\":2124:2181  if (targetList[i] == _target) {... */\n    tag_103:\n        /* \"contracts/Vote.sol\":2113:2116  i++ */\n      dup1\n      dup1\n      tag_104\n      swap1\n      tag_105\n      jump\t// in\n    tag_104:\n      swap2\n      pop\n      pop\n        /* \"contracts/Vote.sol\":2073:2186  for (uint i = 0; i < targetList.length; i++) {... */\n      jump(tag_96)\n    tag_97:\n      pop\n        /* \"contracts/Vote.sol\":2194:2200  _exist */\n      dup1\n        /* \"contracts/Vote.sol\":2190:2272  if (_exist) {... */\n      iszero\n      tag_106\n      jumpi\n        /* \"contracts/Vote.sol\":2227:2228  1 */\n      0x01\n        /* \"contracts/Vote.sol\":2208:2214  target */\n      0x04\n        /* \"contracts/Vote.sol\":2208:2223  target[_target] */\n      0x00\n        /* \"contracts/Vote.sol\":2215:2222  _target */\n      dup5\n        /* \"contracts/Vote.sol\":2208:2223  target[_target] */\n      dup2\n      mstore\n      0x20\n      add\n      swap1\n      dup2\n      mstore\n      0x20\n      add\n      0x00\n      keccak256\n      0x00\n        /* \"contracts/Vote.sol\":2208:2228  target[_target] += 1 */\n      dup3\n      dup3\n      sload\n      tag_107\n      swap2\n      swap1\n      tag_108\n      jump\t// in\n    tag_107:\n      swap3\n      pop\n      pop\n      dup2\n      swap1\n      sstore\n      pop\n        /* \"contracts/Vote.sol\":2258:2265  _target */\n      dup2\n        /* \"contracts/Vote.sol\":2234:2239  voter */\n      0x06\n        /* \"contracts/Vote.sol\":2234:2251  voter[msg.sender] */\n      0x00\n        /* \"contracts/Vote.sol\":2240:2250  msg.sender */\n      caller\n        /* \"contracts/Vote.sol\":2234:2251  voter[msg.sender] */\n      0xffffffffffffffffffffffffffffffffffffffff\n      and\n      0xffffffffffffffffffffffffffffffffffffffff\n      and\n      dup2\n      mstore\n      0x20\n      add\n      swap1\n      dup2\n      mstore\n      0x20\n      add\n      0x00\n      keccak256\n        /* \"contracts/Vote.sol\":2234:2266  voter[msg.sender] = int(_target) */\n      dup2\n      swap1\n      sstore\n      pop\n        /* \"contracts/Vote.sol\":2190:2272  if (_exist) {... */\n    tag_106:\n        /* \"contracts/Vote.sol\":2052:2276  {... */\n      pop\n        /* \"contracts/Vote.sol\":2023:2276  if (voter[msg.sender] == -1) {... */\n    tag_95:\n        /* \"contracts/Vote.sol\":1984:2279  function vote(uint _target) public {... */\n      pop\n      jump\t// out\n        /* \"contracts/Vote.sol\":1888:1981  function getVotedTarget(address _voter) public view returns (int){... */\n    tag_32:\n        /* \"contracts/Vote.sol\":1949:1952  int */\n      0x00\n        /* \"contracts/Vote.sol\":1964:1969  voter */\n      0x06\n        /* \"contracts/Vote.sol\":1964:1977  voter[_voter] */\n      0x00\n        /* \"contracts/Vote.sol\":1970:1976  _voter */\n      dup4\n        /* \"contracts/Vote.sol\":1964:1977  voter[_voter] */\n      0xffffffffffffffffffffffffffffffffffffffff\n      and\n      0xffffffffffffffffffffffffffffffffffffffff\n      and\n      dup2\n      mstore\n      0x20\n      add\n      swap1\n      dup2\n      mstore\n      0x20\n      add\n      0x00\n      keccak256\n      sload\n        /* \"contracts/Vote.sol\":1957:1977  return voter[_voter] */\n      swap1\n      pop\n        /* \"contracts/Vote.sol\":1888:1981  function getVotedTarget(address _voter) public view returns (int){... */\n      swap2\n      swap1\n      pop\n      jump\t// out\n        /* \"contracts/Vote.sol\":1206:1342  function addTarget(uint _targetID) public{... */\n    tag_37:\n        /* \"contracts/Vote.sol\":1273:1278  owner */\n      0x00\n      dup1\n      sload\n      swap1\n      0x0100\n      exp\n      swap1\n      div\n      0xffffffffffffffffffffffffffffffffffffffff\n      and\n        /* \"contracts/Vote.sol\":1259:1278  msg.sender == owner */\n      0xffffffffffffffffffffffffffffffffffffffff\n      and\n        /* \"contracts/Vote.sol\":1259:1269  msg.sender */\n      caller\n        /* \"contracts/Vote.sol\":1259:1278  msg.sender == owner */\n      0xffffffffffffffffffffffffffffffffffffffff\n      and\n      eq\n        /* \"contracts/Vote.sol\":1251:1279  require(msg.sender == owner) */\n      tag_111\n      jumpi\n      0x00\n      dup1\n      revert\n    tag_111:\n        /* \"contracts/Vote.sol\":1283:1293  targetList */\n      0x03\n        /* \"contracts/Vote.sol\":1299:1308  _targetID */\n      dup2\n        /* \"contracts/Vote.sol\":1283:1309  targetList.push(_targetID) */\n      swap1\n      dup1\n      0x01\n      dup2\n      sload\n      add\n      dup1\n      dup3\n      sstore\n      dup1\n      swap2\n      pop\n      pop\n      0x01\n      swap1\n      sub\n      swap1\n      0x00\n      mstore\n      keccak256(0x00, 0x20)\n      add\n      0x00\n      swap1\n      swap2\n      swap1\n      swap2\n      swap1\n      swap2\n      pop\n      sstore\n        /* \"contracts/Vote.sol\":1336:1337  0 */\n      0x00\n        /* \"contracts/Vote.sol\":1313:1319  target */\n      0x04\n        /* \"contracts/Vote.sol\":1313:1330  target[_targetID] */\n      0x00\n        /* \"contracts/Vote.sol\":1320:1329  _targetID */\n      dup4\n        /* \"contracts/Vote.sol\":1313:1330  target[_targetID] */\n      dup2\n      mstore\n      0x20\n      add\n      swap1\n      dup2\n      mstore\n      0x20\n      add\n      0x00\n      keccak256\n        /* \"contracts/Vote.sol\":1313:1338  target[_targetID]=uint(0) */\n      dup2\n      swap1\n      sstore\n      pop\n        /* \"contracts/Vote.sol\":1206:1342  function addTarget(uint _targetID) public{... */\n      pop\n      jump\t// out\n        /* \"contracts/Vote.sol\":2665:2742  function close() public {... */\n    tag_39:\n        /* \"contracts/Vote.sol\":2715:2720  owner */\n      0x00\n      dup1\n      sload\n      swap1\n      0x0100\n      exp\n      swap1\n      div\n      0xffffffffffffffffffffffffffffffffffffffff\n      and\n        /* \"contracts/Vote.sol\":2701:2720  msg.sender == owner */\n      0xffffffffffffffffffffffffffffffffffffffff\n      and\n        /* \"contracts/Vote.sol\":2701:2711  msg.sender */\n      caller\n        /* \"contracts/Vote.sol\":2701:2720  msg.sender == owner */\n      0xffffffffffffffffffffffffffffffffffffffff\n      and\n      eq\n        /* \"contracts/Vote.sol\":2693:2721  require(msg.sender == owner) */\n      tag_114\n      jumpi\n      0x00\n      dup1\n      revert\n    tag_114:\n        /* \"contracts/Vote.sol\":2734:2738  true */\n      0x01\n        /* \"contracts/Vote.sol\":2725:2731  closed */\n      0x02\n      0x00\n        /* \"contracts/Vote.sol\":2725:2738  closed = true */\n      0x0100\n      exp\n      dup2\n      sload\n      dup2\n      0xff\n      mul\n      not\n      and\n      swap1\n      dup4\n      iszero\n      iszero\n      mul\n      or\n      swap1\n      sstore\n      pop\n        /* \"contracts/Vote.sol\":2665:2742  function close() public {... */\n      jump\t// out\n        /* \"contracts/Vote.sol\":2324:2662  function revote(uint _target) public {... */\n    tag_42:\n        /* \"contracts/Vote.sol\":2390:2391  0 */\n      0x00\n        /* \"contracts/Vote.sol\":2369:2374  voter */\n      0x06\n        /* \"contracts/Vote.sol\":2369:2386  voter[msg.sender] */\n      0x00\n        /* \"contracts/Vote.sol\":2375:2385  msg.sender */\n      caller\n        /* \"contracts/Vote.sol\":2369:2386  voter[msg.sender] */\n      0xffffffffffffffffffffffffffffffffffffffff\n      and\n      0xffffffffffffffffffffffffffffffffffffffff\n      and\n      dup2\n      mstore\n      0x20\n      add\n      swap1\n      dup2\n      mstore\n      0x20\n      add\n      0x00\n      keccak256\n      sload\n        /* \"contracts/Vote.sol\":2369:2391  voter[msg.sender] != 0 */\n      eq\n        /* \"contracts/Vote.sol\":2365:2659  if (voter[msg.sender] != 0) {... */\n      tag_116\n      jumpi\n        /* \"contracts/Vote.sol\":2398:2409  bool _exist */\n      0x00\n        /* \"contracts/Vote.sol\":2419:2425  uint i */\n      dup1\n        /* \"contracts/Vote.sol\":2428:2429  0 */\n      0x00\n        /* \"contracts/Vote.sol\":2419:2429  uint i = 0 */\n      swap1\n      pop\n        /* \"contracts/Vote.sol\":2414:2527  for (uint i = 0; i < targetList.length; i++) {... */\n    tag_117:\n        /* \"contracts/Vote.sol\":2435:2445  targetList */\n      0x03\n        /* \"contracts/Vote.sol\":2435:2452  targetList.length */\n      dup1\n      sload\n      swap1\n      pop\n        /* \"contracts/Vote.sol\":2431:2432  i */\n      dup2\n        /* \"contracts/Vote.sol\":2431:2452  i < targetList.length */\n      lt\n        /* \"contracts/Vote.sol\":2414:2527  for (uint i = 0; i < targetList.length; i++) {... */\n      iszero\n      tag_118\n      jumpi\n        /* \"contracts/Vote.sol\":2486:2493  _target */\n      dup3\n        /* \"contracts/Vote.sol\":2469:2479  targetList */\n      0x03\n        /* \"contracts/Vote.sol\":2480:2481  i */\n      dup3\n        /* \"contracts/Vote.sol\":2469:2482  targetList[i] */\n      dup2\n      sload\n      dup2\n      lt\n      tag_120\n      jumpi\n      tag_121\n      tag_101\n      jump\t// in\n    tag_121:\n    tag_120:\n      swap1\n      0x00\n      mstore\n      keccak256(0x00, 0x20)\n      add\n      sload\n        /* \"contracts/Vote.sol\":2469:2493  targetList[i] == _target */\n      eq\n        /* \"contracts/Vote.sol\":2465:2522  if (targetList[i] == _target) {... */\n      iszero\n      tag_123\n      jumpi\n        /* \"contracts/Vote.sol\":2511:2515  true */\n      0x01\n        /* \"contracts/Vote.sol\":2502:2515  _exist = true */\n      swap2\n      pop\n        /* \"contracts/Vote.sol\":2465:2522  if (targetList[i] == _target) {... */\n    tag_123:\n        /* \"contracts/Vote.sol\":2454:2457  i++ */\n      dup1\n      dup1\n      tag_124\n      swap1\n      tag_105\n      jump\t// in\n    tag_124:\n      swap2\n      pop\n      pop\n        /* \"contracts/Vote.sol\":2414:2527  for (uint i = 0; i < targetList.length; i++) {... */\n      jump(tag_117)\n    tag_118:\n      pop\n        /* \"contracts/Vote.sol\":2535:2541  _exist */\n      dup1\n        /* \"contracts/Vote.sol\":2531:2655  if (_exist) {... */\n      iszero\n      tag_125\n      jumpi\n        /* \"contracts/Vote.sol\":2584:2585  1 */\n      0x01\n        /* \"contracts/Vote.sol\":2549:2555  target */\n      0x04\n        /* \"contracts/Vote.sol\":2549:2580  target[uint(voter[msg.sender])] */\n      0x00\n        /* \"contracts/Vote.sol\":2561:2566  voter */\n      0x06\n        /* \"contracts/Vote.sol\":2561:2578  voter[msg.sender] */\n      0x00\n        /* \"contracts/Vote.sol\":2567:2577  msg.sender */\n      caller\n        /* \"contracts/Vote.sol\":2561:2578  voter[msg.sender] */\n      0xffffffffffffffffffffffffffffffffffffffff\n      and\n      0xffffffffffffffffffffffffffffffffffffffff\n      and\n      dup2\n      mstore\n      0x20\n      add\n      swap1\n      dup2\n      mstore\n      0x20\n      add\n      0x00\n      keccak256\n      sload\n        /* \"contracts/Vote.sol\":2549:2580  target[uint(voter[msg.sender])] */\n      dup2\n      mstore\n      0x20\n      add\n      swap1\n      dup2\n      mstore\n      0x20\n      add\n      0x00\n      keccak256\n      0x00\n        /* \"contracts/Vote.sol\":2549:2585  target[uint(voter[msg.sender])] -= 1 */\n      dup3\n      dup3\n      sload\n      tag_126\n      swap2\n      swap1\n      tag_127\n      jump\t// in\n    tag_126:\n      swap3\n      pop\n      pop\n      dup2\n      swap1\n      sstore\n      pop\n        /* \"contracts/Vote.sol\":2610:2611  1 */\n      0x01\n        /* \"contracts/Vote.sol\":2591:2597  target */\n      0x04\n        /* \"contracts/Vote.sol\":2591:2606  target[_target] */\n      0x00\n        /* \"contracts/Vote.sol\":2598:2605  _target */\n      dup5\n        /* \"contracts/Vote.sol\":2591:2606  target[_target] */\n      dup2\n      mstore\n      0x20\n      add\n      swap1\n      dup2\n      mstore\n      0x20\n      add\n      0x00\n      keccak256\n      0x00\n        /* \"contracts/Vote.sol\":2591:2611  target[_target] += 1 */\n      dup3\n      dup3\n      sload\n      tag_128\n      swap2\n      swap1\n      tag_108\n      jump\t// in\n    tag_128:\n      swap3\n      pop\n      pop\n      dup2\n      swap1\n      sstore\n      pop\n        /* \"contracts/Vote.sol\":2641:2648  _target */\n      dup2\n        /* \"contracts/Vote.sol\":2617:2622  voter */\n      0x06\n        /* \"contracts/Vote.sol\":2617:2634  voter[msg.sender] */\n      0x00\n        /* \"contracts/Vote.sol\":2623:2633  msg.sender */\n      caller\n        /* \"contracts/Vote.sol\":2617:2634  voter[msg.sender] */\n      0xffffffffffffffffffffffffffffffffffffffff\n      and\n      0xffffffffffffffffffffffffffffffffffffffff\n      and\n      dup2\n      mstore\n      0x20\n      add\n      swap1\n      dup2\n      mstore\n      0x20\n      add\n      0x00\n      keccak256\n        /* \"contracts/Vote.sol\":2617:2649  voter[msg.sender] = int(_target) */\n      dup2\n      swap1\n      sstore\n      pop\n        /* \"contracts/Vote.sol\":2531:2655  if (_exist) {... */\n    tag_125:\n        /* \"contracts/Vote.sol\":2393:2659  {... */\n      pop\n        /* \"contracts/Vote.sol\":2365:2659  if (voter[msg.sender] != 0) {... */\n    tag_116:\n        /* \"contracts/Vote.sol\":2324:2662  function revote(uint _target) public {... */\n      pop\n      jump\t// out\n        /* \"contracts/Vote.sol\":538:564  address[] public voterList */\n    tag_45:\n      0x05\n      dup2\n      dup2\n      sload\n      dup2\n      lt\n      tag_129\n      jumpi\n      0x00\n      dup1\n      revert\n    tag_129:\n      swap1\n      0x00\n      mstore\n      keccak256(0x00, 0x20)\n      add\n      0x00\n      swap2\n      pop\n      sload\n      swap1\n      0x0100\n      exp\n      swap1\n      div\n      0xffffffffffffffffffffffffffffffffffffffff\n      and\n      dup2\n      jump\t// out\n        /* \"contracts/Vote.sol\":312:337  bool public closed = true */\n    tag_49:\n      0x02\n      0x00\n      swap1\n      sload\n      swap1\n      0x0100\n      exp\n      swap1\n      div\n      0xff\n      and\n      dup2\n      jump\t// out\n        /* \"contracts/Vote.sol\":1520:1579  function getTargetID(uint i) public view returns(uint){... */\n    tag_54:\n        /* \"contracts/Vote.sol\":1569:1573  uint */\n      0x00\n        /* \"contracts/Vote.sol\":1520:1579  function getTargetID(uint i) public view returns(uint){... */\n      swap2\n      swap1\n      pop\n      jump\t// out\n        /* \"contracts/Vote.sol\":160:180  address public owner */\n    tag_58:\n      0x00\n      dup1\n      sload\n      swap1\n      0x0100\n      exp\n      swap1\n      div\n      0xffffffffffffffffffffffffffffffffffffffff\n      and\n      dup2\n      jump\t// out\n        /* \"contracts/Vote.sol\":466:501  mapping(uint => uint) public target */\n    tag_62:\n      mstore(0x20, 0x04)\n      dup1\n      0x00\n      mstore\n      keccak256(0x00, 0x40)\n      0x00\n      swap2\n      pop\n      swap1\n      pop\n      sload\n      dup2\n      jump\t// out\n        /* \"contracts/Vote.sol\":624:660  mapping(address => int) public voter */\n    tag_66:\n      mstore(0x20, 0x06)\n      dup1\n      0x00\n      mstore\n      keccak256(0x00, 0x40)\n      0x00\n      swap2\n      pop\n      swap1\n      pop\n      sload\n      dup2\n      jump\t// out\n        /* \"contracts/Vote.sol\":396:420  uint[] public targetList */\n    tag_70:\n      0x03\n      dup2\n      dup2\n      sload\n      dup2\n      lt\n      tag_132\n      jumpi\n      0x00\n      dup1\n      revert\n    tag_132:\n      swap1\n      0x00\n      mstore\n      keccak256(0x00, 0x20)\n      add\n      0x00\n      swap2\n      pop\n      swap1\n      pop\n      sload\n      dup2\n      jump\t// out\n        /* \"contracts/Vote.sol\":1344:1427  function getNumberOfVotes(uint i) public view returns(uint){... */\n    tag_74:\n        /* \"contracts/Vote.sol\":1398:1402  uint */\n      0x00\n        /* \"contracts/Vote.sol\":1414:1420  target */\n      0x04\n        /* \"contracts/Vote.sol\":1414:1423  target[i] */\n      0x00\n        /* \"contracts/Vote.sol\":1421:1422  i */\n      dup4\n        /* \"contracts/Vote.sol\":1414:1423  target[i] */\n      dup2\n      mstore\n      0x20\n      add\n      swap1\n      dup2\n      mstore\n      0x20\n      add\n      0x00\n      keccak256\n      sload\n        /* \"contracts/Vote.sol\":1407:1423  return target[i] */\n      swap1\n      pop\n        /* \"contracts/Vote.sol\":1344:1427  function getNumberOfVotes(uint i) public view returns(uint){... */\n      swap2\n      swap1\n      pop\n      jump\t// out\n        /* \"contracts/Vote.sol\":1708:1795  function getVoterArrayLength() public view returns(uint){... */\n    tag_77:\n        /* \"contracts/Vote.sol\":1759:1763  uint */\n      0x00\n        /* \"contracts/Vote.sol\":1775:1784  voterList */\n      0x05\n        /* \"contracts/Vote.sol\":1775:1791  voterList.length */\n      dup1\n      sload\n      swap1\n      pop\n        /* \"contracts/Vote.sol\":1768:1791  return voterList.length */\n      swap1\n      pop\n        /* \"contracts/Vote.sol\":1708:1795  function getVoterArrayLength() public view returns(uint){... */\n      swap1\n      jump\t// out\n        /* \"contracts/Vote.sol\":1797:1886  function getVoterAddress(uint i) public view returns (address){... */\n    tag_81:\n        /* \"contracts/Vote.sol\":1851:1858  address */\n      0x00\n        /* \"contracts/Vote.sol\":1870:1879  voterList */\n      0x05\n        /* \"contracts/Vote.sol\":1880:1881  i */\n      dup3\n        /* \"contracts/Vote.sol\":1870:1882  voterList[i] */\n      dup2\n      sload\n      dup2\n      lt\n      tag_137\n      jumpi\n      tag_138\n      tag_101\n      jump\t// in\n    tag_138:\n    tag_137:\n      swap1\n      0x00\n      mstore\n      keccak256(0x00, 0x20)\n      add\n      0x00\n      swap1\n      sload\n      swap1\n      0x0100\n      exp\n      swap1\n      div\n      0xffffffffffffffffffffffffffffffffffffffff\n      and\n        /* \"contracts/Vote.sol\":1863:1882  return voterList[i] */\n      swap1\n      pop\n        /* \"contracts/Vote.sol\":1797:1886  function getVoterAddress(uint i) public view returns (address){... */\n      swap2\n      swap1\n      pop\n      jump\t// out\n        /* \"contracts/Vote.sol\":254:272  uint public winner */\n    tag_84:\n      sload(0x01)\n      dup2\n      jump\t// out\n        /* \"contracts/Vote.sol\":1429:1518  function getTargetArrayLength() public view returns(uint){... */\n    tag_87:\n        /* \"contracts/Vote.sol\":1481:1485  uint */\n      0x00\n        /* \"contracts/Vote.sol\":1497:1507  targetList */\n      0x03\n        /* \"contracts/Vote.sol\":1497:1514  targetList.length */\n      dup1\n      sload\n      swap1\n      pop\n        /* \"contracts/Vote.sol\":1490:1514  return targetList.length */\n      swap1\n      pop\n        /* \"contracts/Vote.sol\":1429:1518  function getTargetArrayLength() public view returns(uint){... */\n      swap1\n      jump\t// out\n        /* \"contracts/Vote.sol\":1581:1706  function addVoter(address _voter) public {... */\n    tag_91:\n        /* \"contracts/Vote.sol\":1648:1653  owner */\n      0x00\n      dup1\n      sload\n      swap1\n      0x0100\n      exp\n      swap1\n      div\n      0xffffffffffffffffffffffffffffffffffffffff\n      and\n        /* \"contracts/Vote.sol\":1634:1653  msg.sender == owner */\n      0xffffffffffffffffffffffffffffffffffffffff\n      and\n        /* \"contracts/Vote.sol\":1634:1644  msg.sender */\n      caller\n        /* \"contracts/Vote.sol\":1634:1653  msg.sender == owner */\n      0xffffffffffffffffffffffffffffffffffffffff\n      and\n      eq\n        /* \"contracts/Vote.sol\":1626:1654  require(msg.sender == owner) */\n      tag_142\n      jumpi\n      0x00\n      dup1\n      revert\n    tag_142:\n        /* \"contracts/Vote.sol\":1659:1668  voterList */\n      0x05\n        /* \"contracts/Vote.sol\":1674:1680  _voter */\n      dup2\n        /* \"contracts/Vote.sol\":1659:1681  voterList.push(_voter) */\n      swap1\n      dup1\n      0x01\n      dup2\n      sload\n      add\n      dup1\n      dup3\n      sstore\n      dup1\n      swap2\n      pop\n      pop\n      0x01\n      swap1\n      sub\n      swap1\n      0x00\n      mstore\n      keccak256(0x00, 0x20)\n      add\n      0x00\n      swap1\n      swap2\n      swap1\n      swap2\n      swap1\n      swap2\n      0x0100\n      exp\n      dup2\n      sload\n      dup2\n      0xffffffffffffffffffffffffffffffffffffffff\n      mul\n      not\n      and\n      swap1\n      dup4\n      0xffffffffffffffffffffffffffffffffffffffff\n      and\n      mul\n      or\n      swap1\n      sstore\n      pop\n        /* \"contracts/Vote.sol\":1700:1702  -1 */\n      0xffffffffffffffffffffffffffffffffffffffffffffffffffffffffffffffff\n        /* \"contracts/Vote.sol\":1686:1691  voter */\n      0x06\n        /* \"contracts/Vote.sol\":1686:1699  voter[_voter] */\n      0x00\n        /* \"contracts/Vote.sol\":1692:1698  _voter */\n      dup4\n        /* \"contracts/Vote.sol\":1686:1699  voter[_voter] */\n      0xffffffffffffffffffffffffffffffffffffffff\n      and\n      0xffffffffffffffffffffffffffffffffffffffff\n      and\n      dup2\n      mstore\n      0x20\n      add\n      swap1\n      dup2\n      mstore\n      0x20\n      add\n      0x00\n      keccak256\n        /* \"contracts/Vote.sol\":1686:1702  voter[_voter]=-1 */\n      dup2\n      swap1\n      sstore\n      pop\n        /* \"contracts/Vote.sol\":1581:1706  function addVoter(address _voter) public {... */\n      pop\n      jump\t// out\n        /* \"contracts/Vote.sol\":2744:2821  function open() public {... */\n    tag_93:\n        /* \"contracts/Vote.sol\":2793:2798  owner */\n      0x00\n      dup1\n      sload\n      swap1\n      0x0100\n      exp\n      swap1\n      div\n      0xffffffffffffffffffffffffffffffffffffffff\n      and\n        /* \"contracts/Vote.sol\":2779:2798  msg.sender == owner */\n      0xffffffffffffffffffffffffffffffffffffffff\n      and\n        /* \"contracts/Vote.sol\":2779:2789  msg.sender */\n      caller\n        /* \"contracts/Vote.sol\":2779:2798  msg.sender == owner */\n      0xffffffffffffffffffffffffffffffffffffffff\n      and\n      eq\n        /* \"contracts/Vote.sol\":2771:2799  require(msg.sender == owner) */\n      tag_145\n      jumpi\n      0x00\n      dup1\n      revert\n    tag_145:\n        /* \"contracts/Vote.sol\":2812:2817  false */\n      0x00\n        /* \"contracts/Vote.sol\":2803:2809  closed */\n      0x02\n      0x00\n        /* \"contracts/Vote.sol\":2803:2817  closed = false */\n      0x0100\n      exp\n      dup2\n      sload\n      dup2\n      0xff\n      mul\n      not\n      and\n      swap1\n      dup4\n      iszero\n      iszero\n      mul\n      or\n      swap1\n      sstore\n      pop\n        /* \"contracts/Vote.sol\":2744:2821  function open() public {... */\n      jump\t// out\n        /* \"#utility.yul\":7:146   */\n    tag_147:\n        /* \"#utility.yul\":53:58   */\n      0x00\n        /* \"#utility.yul\":91:97   */\n      dup2\n        /* \"#utility.yul\":78:98   */\n      calldataload\n        /* \"#utility.yul\":69:98   */\n      swap1\n      pop\n        /* \"#utility.yul\":107:140   */\n      tag_149\n        /* \"#utility.yul\":134:139   */\n      dup2\n        /* \"#utility.yul\":107:140   */\n      tag_150\n      jump\t// in\n    tag_149:\n        /* \"#utility.yul\":7:146   */\n      swap3\n      swap2\n      pop\n      pop\n      jump\t// out\n        /* \"#utility.yul\":152:291   */\n    tag_151:\n        /* \"#utility.yul\":198:203   */\n      0x00\n        /* \"#utility.yul\":236:242   */\n      dup2\n        /* \"#utility.yul\":223:243   */\n      calldataload\n        /* \"#utility.yul\":214:243   */\n      swap1\n      pop\n        /* \"#utility.yul\":252:285   */\n      tag_153\n        /* \"#utility.yul\":279:284   */\n      dup2\n        /* \"#utility.yul\":252:285   */\n      tag_154\n      jump\t// in\n    tag_153:\n        /* \"#utility.yul\":152:291   */\n      swap3\n      swap2\n      pop\n      pop\n      jump\t// out\n        /* \"#utility.yul\":297:626   */\n    tag_31:\n        /* \"#utility.yul\":356:362   */\n      0x00\n        /* \"#utility.yul\":405:407   */\n      0x20\n        /* \"#utility.yul\":393:402   */\n      dup3\n        /* \"#utility.yul\":384:391   */\n      dup5\n        /* \"#utility.yul\":380:403   */\n      sub\n        /* \"#utility.yul\":376:408   */\n      slt\n        /* \"#utility.yul\":373:492   */\n      iszero\n      tag_156\n      jumpi\n        /* \"#utility.yul\":411:490   */\n      tag_157\n      tag_158\n      jump\t// in\n    tag_157:\n        /* \"#utility.yul\":373:492   */\n    tag_156:\n        /* \"#utility.yul\":531:532   */\n      0x00\n        /* \"#utility.yul\":556:609   */\n      tag_159\n        /* \"#utility.yul\":601:608   */\n      dup5\n        /* \"#utility.yul\":592:598   */\n      dup3\n        /* \"#utility.yul\":581:590   */\n      dup6\n        /* \"#utility.yul\":577:599   */\n      add\n        /* \"#utility.yul\":556:609   */\n      tag_147\n      jump\t// in\n    tag_159:\n        /* \"#utility.yul\":546:609   */\n      swap2\n      pop\n        /* \"#utility.yul\":502:619   */\n      pop\n        /* \"#utility.yul\":297:626   */\n      swap3\n      swap2\n      pop\n      pop\n      jump\t// out\n        /* \"#utility.yul\":632:961   */\n    tag_27:\n        /* \"#utility.yul\":691:697   */\n      0x00\n        /* \"#utility.yul\":740:742   */\n      0x20\n        /* \"#utility.yul\":728:737   */\n      dup3\n        /* \"#utility.yul\":719:726   */\n      dup5\n        /* \"#utility.yul\":715:738   */\n      sub\n        /* \"#utility.yul\":711:743   */\n      slt\n        /* \"#utility.yul\":708:827   */\n      iszero\n      tag_161\n      jumpi\n        /* \"#utility.yul\":746:825   */\n      tag_162\n      tag_158\n      jump\t// in\n    tag_162:\n        /* \"#utility.yul\":708:827   */\n    tag_161:\n        /* \"#utility.yul\":866:867   */\n      0x00\n        /* \"#utility.yul\":891:944   */\n      tag_163\n        /* \"#utility.yul\":936:943   */\n      dup5\n        /* \"#utility.yul\":927:933   */\n      dup3\n        /* \"#utility.yul\":916:925   */\n      dup6\n        /* \"#utility.yul\":912:934   */\n      add\n        /* \"#utility.yul\":891:944   */\n      tag_151\n      jump\t// in\n    tag_163:\n        /* \"#utility.yul\":881:944   */\n      swap2\n      pop\n        /* \"#utility.yul\":837:954   */\n      pop\n        /* \"#utility.yul\":632:961   */\n      swap3\n      swap2\n      pop\n      pop\n      jump\t// out\n        /* \"#utility.yul\":967:1085   */\n    tag_164:\n        /* \"#utility.yul\":1054:1078   */\n      tag_166\n        /* \"#utility.yul\":1072:1077   */\n      dup2\n        /* \"#utility.yul\":1054:1078   */\n      tag_167\n      jump\t// in\n    tag_166:\n        /* \"#utility.yul\":1049:1052   */\n      dup3\n        /* \"#utility.yul\":1042:1079   */\n      mstore\n        /* \"#utility.yul\":967:1085   */\n      pop\n      pop\n      jump\t// out\n        /* \"#utility.yul\":1091:1200   */\n    tag_168:\n        /* \"#utility.yul\":1172:1193   */\n      tag_170\n        /* \"#utility.yul\":1187:1192   */\n      dup2\n        /* \"#utility.yul\":1172:1193   */\n      tag_171\n      jump\t// in\n    tag_170:\n        /* \"#utility.yul\":1167:1170   */\n      dup3\n        /* \"#utility.yul\":1160:1194   */\n      mstore\n        /* \"#utility.yul\":1091:1200   */\n      pop\n      pop\n      jump\t// out\n        /* \"#utility.yul\":1206:1321   */\n    tag_172:\n        /* \"#utility.yul\":1291:1314   */\n      tag_174\n        /* \"#utility.yul\":1308:1313   */\n      dup2\n        /* \"#utility.yul\":1291:1314   */\n      tag_175\n      jump\t// in\n    tag_174:\n        /* \"#utility.yul\":1286:1289   */\n      dup3\n        /* \"#utility.yul\":1279:1315   */\n      mstore\n        /* \"#utility.yul\":1206:1321   */\n      pop\n      pop\n      jump\t// out\n        /* \"#utility.yul\":1327:1445   */\n    tag_176:\n        /* \"#utility.yul\":1414:1438   */\n      tag_178\n        /* \"#utility.yul\":1432:1437   */\n      dup2\n        /* \"#utility.yul\":1414:1438   */\n      tag_179\n      jump\t// in\n    tag_178:\n        /* \"#utility.yul\":1409:1412   */\n      dup3\n        /* \"#utility.yul\":1402:1439   */\n      mstore\n        /* \"#utility.yul\":1327:1445   */\n      pop\n      pop\n      jump\t// out\n        /* \"#utility.yul\":1451:1673   */\n    tag_47:\n        /* \"#utility.yul\":1544:1548   */\n      0x00\n        /* \"#utility.yul\":1582:1584   */\n      0x20\n        /* \"#utility.yul\":1571:1580   */\n      dup3\n        /* \"#utility.yul\":1567:1585   */\n      add\n        /* \"#utility.yul\":1559:1585   */\n      swap1\n      pop\n        /* \"#utility.yul\":1595:1666   */\n      tag_181\n        /* \"#utility.yul\":1663:1664   */\n      0x00\n        /* \"#utility.yul\":1652:1661   */\n      dup4\n        /* \"#utility.yul\":1648:1665   */\n      add\n        /* \"#utility.yul\":1639:1645   */\n      dup5\n        /* \"#utility.yul\":1595:1666   */\n      tag_164\n      jump\t// in\n    tag_181:\n        /* \"#utility.yul\":1451:1673   */\n      swap3\n      swap2\n      pop\n      pop\n      jump\t// out\n        /* \"#utility.yul\":1679:1889   */\n    tag_51:\n        /* \"#utility.yul\":1766:1770   */\n      0x00\n        /* \"#utility.yul\":1804:1806   */\n      0x20\n        /* \"#utility.yul\":1793:1802   */\n      dup3\n        /* \"#utility.yul\":1789:1807   */\n      add\n        /* \"#utility.yul\":1781:1807   */\n      swap1\n      pop\n        /* \"#utility.yul\":1817:1882   */\n      tag_183\n        /* \"#utility.yul\":1879:1880   */\n      0x00\n        /* \"#utility.yul\":1868:1877   */\n      dup4\n        /* \"#utility.yul\":1864:1881   */\n      add\n        /* \"#utility.yul\":1855:1861   */\n      dup5\n        /* \"#utility.yul\":1817:1882   */\n      tag_168\n      jump\t// in\n    tag_183:\n        /* \"#utility.yul\":1679:1889   */\n      swap3\n      swap2\n      pop\n      pop\n      jump\t// out\n        /* \"#utility.yul\":1895:2113   */\n    tag_34:\n        /* \"#utility.yul\":1986:1990   */\n      0x00\n        /* \"#utility.yul\":2024:2026   */\n      0x20\n        /* \"#utility.yul\":2013:2022   */\n      dup3\n        /* \"#utility.yul\":2009:2027   */\n      add\n        /* \"#utility.yul\":2001:2027   */\n      swap1\n      pop\n        /* \"#utility.yul\":2037:2106   */\n      tag_185\n        /* \"#utility.yul\":2103:2104   */\n      0x00\n        /* \"#utility.yul\":2092:2101   */\n      dup4\n        /* \"#utility.yul\":2088:2105   */\n      add\n        /* \"#utility.yul\":2079:2085   */\n      dup5\n        /* \"#utility.yul\":2037:2106   */\n      tag_172\n      jump\t// in\n    tag_185:\n        /* \"#utility.yul\":1895:2113   */\n      swap3\n      swap2\n      pop\n      pop\n      jump\t// out\n        /* \"#utility.yul\":2119:2341   */\n    tag_56:\n        /* \"#utility.yul\":2212:2216   */\n      0x00\n        /* \"#utility.yul\":2250:2252   */\n      0x20\n        /* \"#utility.yul\":2239:2248   */\n      dup3\n        /* \"#utility.yul\":2235:2253   */\n      add\n        /* \"#utility.yul\":2227:2253   */\n      swap1\n      pop\n        /* \"#utility.yul\":2263:2334   */\n      tag_187\n        /* \"#utility.yul\":2331:2332   */\n      0x00\n        /* \"#utility.yul\":2320:2329   */\n      dup4\n        /* \"#utility.yul\":2316:2333   */\n      add\n        /* \"#utility.yul\":2307:2313   */\n      dup5\n        /* \"#utility.yul\":2263:2334   */\n      tag_176\n      jump\t// in\n    tag_187:\n        /* \"#utility.yul\":2119:2341   */\n      swap3\n      swap2\n      pop\n      pop\n      jump\t// out\n        /* \"#utility.yul\":2428:2733   */\n    tag_108:\n        /* \"#utility.yul\":2468:2471   */\n      0x00\n        /* \"#utility.yul\":2487:2507   */\n      tag_191\n        /* \"#utility.yul\":2505:2506   */\n      dup3\n        /* \"#utility.yul\":2487:2507   */\n      tag_179\n      jump\t// in\n    tag_191:\n        /* \"#utility.yul\":2482:2507   */\n      swap2\n      pop\n        /* \"#utility.yul\":2521:2541   */\n      tag_192\n        /* \"#utility.yul\":2539:2540   */\n      dup4\n        /* \"#utility.yul\":2521:2541   */\n      tag_179\n      jump\t// in\n    tag_192:\n        /* \"#utility.yul\":2516:2541   */\n      swap3\n      pop\n        /* \"#utility.yul\":2675:2676   */\n      dup3\n        /* \"#utility.yul\":2607:2673   */\n      0xffffffffffffffffffffffffffffffffffffffffffffffffffffffffffffffff\n        /* \"#utility.yul\":2603:2677   */\n      sub\n        /* \"#utility.yul\":2600:2601   */\n      dup3\n        /* \"#utility.yul\":2597:2678   */\n      gt\n        /* \"#utility.yul\":2594:2701   */\n      iszero\n      tag_193\n      jumpi\n        /* \"#utility.yul\":2681:2699   */\n      tag_194\n      tag_195\n      jump\t// in\n    tag_194:\n        /* \"#utility.yul\":2594:2701   */\n    tag_193:\n        /* \"#utility.yul\":2725:2726   */\n      dup3\n        /* \"#utility.yul\":2722:2723   */\n      dup3\n        /* \"#utility.yul\":2718:2727   */\n      add\n        /* \"#utility.yul\":2711:2727   */\n      swap1\n      pop\n        /* \"#utility.yul\":2428:2733   */\n      swap3\n      swap2\n      pop\n      pop\n      jump\t// out\n        /* \"#utility.yul\":2739:2930   */\n    tag_127:\n        /* \"#utility.yul\":2779:2783   */\n      0x00\n        /* \"#utility.yul\":2799:2819   */\n      tag_197\n        /* \"#utility.yul\":2817:2818   */\n      dup3\n        /* \"#utility.yul\":2799:2819   */\n      tag_179\n      jump\t// in\n    tag_197:\n        /* \"#utility.yul\":2794:2819   */\n      swap2\n      pop\n        /* \"#utility.yul\":2833:2853   */\n      tag_198\n        /* \"#utility.yul\":2851:2852   */\n      dup4\n        /* \"#utility.yul\":2833:2853   */\n      tag_179\n      jump\t// in\n    tag_198:\n        /* \"#utility.yul\":2828:2853   */\n      swap3\n      pop\n        /* \"#utility.yul\":2872:2873   */\n      dup3\n        /* \"#utility.yul\":2869:2870   */\n      dup3\n        /* \"#utility.yul\":2866:2874   */\n      lt\n        /* \"#utility.yul\":2863:2897   */\n      iszero\n      tag_199\n      jumpi\n        /* \"#utility.yul\":2877:2895   */\n      tag_200\n      tag_195\n      jump\t// in\n    tag_200:\n        /* \"#utility.yul\":2863:2897   */\n    tag_199:\n        /* \"#utility.yul\":2922:2923   */\n      dup3\n        /* \"#utility.yul\":2919:2920   */\n      dup3\n        /* \"#utility.yul\":2915:2924   */\n      sub\n        /* \"#utility.yul\":2907:2924   */\n      swap1\n      pop\n        /* \"#utility.yul\":2739:2930   */\n      swap3\n      swap2\n      pop\n      pop\n      jump\t// out\n        /* \"#utility.yul\":2936:3032   */\n    tag_167:\n        /* \"#utility.yul\":2973:2980   */\n      0x00\n        /* \"#utility.yul\":3002:3026   */\n      tag_202\n        /* \"#utility.yul\":3020:3025   */\n      dup3\n        /* \"#utility.yul\":3002:3026   */\n      tag_203\n      jump\t// in\n    tag_202:\n        /* \"#utility.yul\":2991:3026   */\n      swap1\n      pop\n        /* \"#utility.yul\":2936:3032   */\n      swap2\n      swap1\n      pop\n      jump\t// out\n        /* \"#utility.yul\":3038:3128   */\n    tag_171:\n        /* \"#utility.yul\":3072:3079   */\n      0x00\n        /* \"#utility.yul\":3115:3120   */\n      dup2\n        /* \"#utility.yul\":3108:3121   */\n      iszero\n        /* \"#utility.yul\":3101:3122   */\n      iszero\n        /* \"#utility.yul\":3090:3122   */\n      swap1\n      pop\n        /* \"#utility.yul\":3038:3128   */\n      swap2\n      swap1\n      pop\n      jump\t// out\n        /* \"#utility.yul\":3134:3210   */\n    tag_175:\n        /* \"#utility.yul\":3170:3177   */\n      0x00\n        /* \"#utility.yul\":3199:3204   */\n      dup2\n        /* \"#utility.yul\":3188:3204   */\n      swap1\n      pop\n        /* \"#utility.yul\":3134:3210   */\n      swap2\n      swap1\n      pop\n      jump\t// out\n        /* \"#utility.yul\":3216:3342   */\n    tag_203:\n        /* \"#utility.yul\":3253:3260   */\n      0x00\n        /* \"#utility.yul\":3293:3335   */\n      0xffffffffffffffffffffffffffffffffffffffff\n        /* \"#utility.yul\":3286:3291   */\n      dup3\n        /* \"#utility.yul\":3282:3336   */\n      and\n        /* \"#utility.yul\":3271:3336   */\n      swap1\n      pop\n        /* \"#utility.yul\":3216:3342   */\n      swap2\n      swap1\n      pop\n      jump\t// out\n        /* \"#utility.yul\":3348:3425   */\n    tag_179:\n        /* \"#utility.yul\":3385:3392   */\n      0x00\n        /* \"#utility.yul\":3414:3419   */\n      dup2\n        /* \"#utility.yul\":3403:3419   */\n      swap1\n      pop\n        /* \"#utility.yul\":3348:3425   */\n      swap2\n      swap1\n      pop\n      jump\t// out\n        /* \"#utility.yul\":3431:3664   */\n    tag_105:\n        /* \"#utility.yul\":3470:3473   */\n      0x00\n        /* \"#utility.yul\":3493:3517   */\n      tag_209\n        /* \"#utility.yul\":3511:3516   */\n      dup3\n        /* \"#utility.yul\":3493:3517   */\n      tag_179\n      jump\t// in\n    tag_209:\n        /* \"#utility.yul\":3484:3517   */\n      swap2\n      pop\n        /* \"#utility.yul\":3539:3605   */\n      0xffffffffffffffffffffffffffffffffffffffffffffffffffffffffffffffff\n        /* \"#utility.yul\":3532:3537   */\n      dup3\n        /* \"#utility.yul\":3529:3606   */\n      eq\n        /* \"#utility.yul\":3526:3629   */\n      iszero\n      tag_210\n      jumpi\n        /* \"#utility.yul\":3609:3627   */\n      tag_211\n      tag_195\n      jump\t// in\n    tag_211:\n        /* \"#utility.yul\":3526:3629   */\n    tag_210:\n        /* \"#utility.yul\":3656:3657   */\n      0x01\n        /* \"#utility.yul\":3649:3654   */\n      dup3\n        /* \"#utility.yul\":3645:3658   */\n      add\n        /* \"#utility.yul\":3638:3658   */\n      swap1\n      pop\n        /* \"#utility.yul\":3431:3664   */\n      swap2\n      swap1\n      pop\n      jump\t// out\n        /* \"#utility.yul\":3670:3850   */\n    tag_195:\n        /* \"#utility.yul\":3718:3795   */\n      0x4e487b7100000000000000000000000000000000000000000000000000000000\n        /* \"#utility.yul\":3715:3716   */\n      0x00\n        /* \"#utility.yul\":3708:3796   */\n      mstore\n        /* \"#utility.yul\":3815:3819   */\n      0x11\n        /* \"#utility.yul\":3812:3813   */\n      0x04\n        /* \"#utility.yul\":3805:3820   */\n      mstore\n        /* \"#utility.yul\":3839:3843   */\n      0x24\n        /* \"#utility.yul\":3836:3837   */\n      0x00\n        /* \"#utility.yul\":3829:3844   */\n      revert\n        /* \"#utility.yul\":3856:4036   */\n    tag_101:\n        /* \"#utility.yul\":3904:3981   */\n      0x4e487b7100000000000000000000000000000000000000000000000000000000\n        /* \"#utility.yul\":3901:3902   */\n      0x00\n        /* \"#utility.yul\":3894:3982   */\n      mstore\n        /* \"#utility.yul\":4001:4005   */\n      0x32\n        /* \"#utility.yul\":3998:3999   */\n      0x04\n        /* \"#utility.yul\":3991:4006   */\n      mstore\n        /* \"#utility.yul\":4025:4029   */\n      0x24\n        /* \"#utility.yul\":4022:4023   */\n      0x00\n        /* \"#utility.yul\":4015:4030   */\n      revert\n        /* \"#utility.yul\":4165:4282   */\n    tag_158:\n        /* \"#utility.yul\":4274:4275   */\n      0x00\n        /* \"#utility.yul\":4271:4272   */\n      dup1\n        /* \"#utility.yul\":4264:4276   */\n      revert\n        /* \"#utility.yul\":4288:4410   */\n    tag_150:\n        /* \"#utility.yul\":4361:4385   */\n      tag_218\n        /* \"#utility.yul\":4379:4384   */\n      dup2\n        /* \"#utility.yul\":4361:4385   */\n      tag_167\n      jump\t// in\n    tag_218:\n        /* \"#utility.yul\":4354:4359   */\n      dup2\n        /* \"#utility.yul\":4351:4386   */\n      eq\n        /* \"#utility.yul\":4341:4404   */\n      tag_219\n      jumpi\n        /* \"#utility.yul\":4400:4401   */\n      0x00\n        /* \"#utility.yul\":4397:4398   */\n      dup1\n        /* \"#utility.yul\":4390:4402   */\n      revert\n        /* \"#utility.yul\":4341:4404   */\n    tag_219:\n        /* \"#utility.yul\":4288:4410   */\n      pop\n      jump\t// out\n        /* \"#utility.yul\":4416:4538   */\n    tag_154:\n        /* \"#utility.yul\":4489:4513   */\n      tag_221\n        /* \"#utility.yul\":4507:4512   */\n      dup2\n        /* \"#utility.yul\":4489:4513   */\n      tag_179\n      jump\t// in\n    tag_221:\n        /* \"#utility.yul\":4482:4487   */\n      dup2\n        /* \"#utility.yul\":4479:4514   */\n      eq\n        /* \"#utility.yul\":4469:4532   */\n      tag_222\n      jumpi\n        /* \"#utility.yul\":4528:4529   */\n      0x00\n        /* \"#utility.yul\":4525:4526   */\n      dup1\n        /* \"#utility.yul\":4518:4530   */\n      revert\n        /* \"#utility.yul\":4469:4532   */\n    tag_222:\n        /* \"#utility.yul\":4416:4538   */\n      pop\n      jump\t// out\n\n    auxdata: 0xa26469706673582212201984a4310cf339351a669f50186ba2abe2d331f5401873227b153cc6c6a2967c64736f6c63430008070033\n}\n",
				"bytecode": {
					"linkReferences": {},
					"object": "60806040526001600260006101000a81548160ff02191690831515021790555034801561002b57600080fd5b50336000806101000a81548173ffffffffffffffffffffffffffffffffffffffff021916908373ffffffffffffffffffffffffffffffffffffffff160217905550610dd68061007b6000396000f3fe608060405234801561001057600080fd5b50600436106101215760003560e01c80639811c7c1116100ad578063d83b2c0511610071578063d83b2c051461032e578063dfbf53ae1461035e578063e318e7d51461037c578063f4ab9adf1461039a578063fcfff16f146103b657610121565b80639811c7c114610250578063af0dbe5414610280578063c29e1a56146102b0578063c71f4253146102e0578063cdcbc3c21461031057610121565b80634eda77e1116100f45780634eda77e11461019857806350e2e8af146101b4578063597e1fb5146101e45780637736445d146102025780638da5cb5b1461023257610121565b80630121b93f146101265780631b9ebe5414610142578063360026171461017257806343d726d61461018e575b600080fd5b610140600480360381019061013b9190610b15565b6103c0565b005b61015c60048036038101906101579190610ae8565b6104f6565b6040516101699190610bb4565b60405180910390f35b61018c60048036038101906101879190610b15565b61053f565b005b6101966105dc565b005b6101b260048036038101906101ad9190610b15565b610651565b005b6101ce60048036038101906101c99190610b15565b6107d1565b6040516101db9190610b7e565b60405180910390f35b6101ec610810565b6040516101f99190610b99565b60405180910390f35b61021c60048036038101906102179190610b15565b610823565b6040516102299190610bcf565b60405180910390f35b61023a61082a565b6040516102479190610b7e565b60405180910390f35b61026a60048036038101906102659190610b15565b61084e565b6040516102779190610bcf565b60405180910390f35b61029a60048036038101906102959190610ae8565b610866565b6040516102a79190610bb4565b60405180910390f35b6102ca60048036038101906102c59190610b15565b61087e565b6040516102d79190610bcf565b60405180910390f35b6102fa60048036038101906102f59190610b15565b6108a2565b6040516103079190610bcf565b60405180910390f35b6103186108bf565b6040516103259190610bcf565b60405180910390f35b61034860048036038101906103439190610b15565b6108cc565b6040516103559190610b7e565b60405180910390f35b610366610914565b6040516103739190610bcf565b60405180910390f35b61038461091a565b6040516103919190610bcf565b60405180910390f35b6103b460048036038101906103af9190610ae8565b610927565b005b6103be610a49565b005b7fffffffffffffffffffffffffffffffffffffffffffffffffffffffffffffffff600660003373ffffffffffffffffffffffffffffffffffffffff1673ffffffffffffffffffffffffffffffffffffffff1681526020019081526020016000205414156104f357600080600090505b60038054905081101561047a57826003828154811061045157610450610d3e565b5b9060005260206000200154141561046757600191505b808061047290610cc6565b91505061042f565b5080156104f15760016004600084815260200190815260200160002060008282546104a59190610bea565b9250508190555081600660003373ffffffffffffffffffffffffffffffffffffffff1673ffffffffffffffffffffffffffffffffffffffff168152602001908152602001600020819055505b505b50565b6000600660008373ffffffffffffffffffffffffffffffffffffffff1673ffffffffffffffffffffffffffffffffffffffff168152602001908152602001600020549050919050565b60008054906101000a900473ffffffffffffffffffffffffffffffffffffffff1673ffffffffffffffffffffffffffffffffffffffff163373ffffffffffffffffffffffffffffffffffffffff161461059757600080fd5b60038190806001815401808255809150506001900390600052602060002001600090919091909150556000600460008381526020019081526020016000208190555050565b60008054906101000a900473ffffffffffffffffffffffffffffffffffffffff1673ffffffffffffffffffffffffffffffffffffffff163373ffffffffffffffffffffffffffffffffffffffff161461063457600080fd5b6001600260006101000a81548160ff021916908315150217905550565b6000600660003373ffffffffffffffffffffffffffffffffffffffff1673ffffffffffffffffffffffffffffffffffffffff16815260200190815260200160002054146107ce57600080600090505b6003805490508110156106eb5782600382815481106106c2576106c1610d3e565b5b906000526020600020015414156106d857600191505b80806106e390610cc6565b9150506106a0565b5080156107cc57600160046000600660003373ffffffffffffffffffffffffffffffffffffffff1673ffffffffffffffffffffffffffffffffffffffff16815260200190815260200160002054815260200190815260200160002060008282546107559190610c40565b9250508190555060016004600084815260200190815260200160002060008282546107809190610bea565b9250508190555081600660003373ffffffffffffffffffffffffffffffffffffffff1673ffffffffffffffffffffffffffffffffffffffff168152602001908152602001600020819055505b505b50565b600581815481106107e157600080fd5b906000526020600020016000915054906101000a900473ffffffffffffffffffffffffffffffffffffffff1681565b600260009054906101000a900460ff1681565b6000919050565b60008054906101000a900473ffffffffffffffffffffffffffffffffffffffff1681565b60046020528060005260406000206000915090505481565b60066020528060005260406000206000915090505481565b6003818154811061088e57600080fd5b906000526020600020016000915090505481565b600060046000838152602001908152602001600020549050919050565b6000600580549050905090565b6000600582815481106108e2576108e1610d3e565b5b9060005260206000200160009054906101000a900473ffffffffffffffffffffffffffffffffffffffff169050919050565b60015481565b6000600380549050905090565b60008054906101000a900473ffffffffffffffffffffffffffffffffffffffff1673ffffffffffffffffffffffffffffffffffffffff163373ffffffffffffffffffffffffffffffffffffffff161461097f57600080fd5b6005819080600181540180825580915050600190039060005260206000200160009091909190916101000a81548173ffffffffffffffffffffffffffffffffffffffff021916908373ffffffffffffffffffffffffffffffffffffffff1602179055507fffffffffffffffffffffffffffffffffffffffffffffffffffffffffffffffff600660008373ffffffffffffffffffffffffffffffffffffffff1673ffffffffffffffffffffffffffffffffffffffff1681526020019081526020016000208190555050565b60008054906101000a900473ffffffffffffffffffffffffffffffffffffffff1673ffffffffffffffffffffffffffffffffffffffff163373ffffffffffffffffffffffffffffffffffffffff1614610aa157600080fd5b6000600260006101000a81548160ff021916908315150217905550565b600081359050610acd81610d72565b92915050565b600081359050610ae281610d89565b92915050565b600060208284031215610afe57610afd610d6d565b5b6000610b0c84828501610abe565b91505092915050565b600060208284031215610b2b57610b2a610d6d565b5b6000610b3984828501610ad3565b91505092915050565b610b4b81610c74565b82525050565b610b5a81610c86565b82525050565b610b6981610c92565b82525050565b610b7881610cbc565b82525050565b6000602082019050610b936000830184610b42565b92915050565b6000602082019050610bae6000830184610b51565b92915050565b6000602082019050610bc96000830184610b60565b92915050565b6000602082019050610be46000830184610b6f565b92915050565b6000610bf582610cbc565b9150610c0083610cbc565b9250827fffffffffffffffffffffffffffffffffffffffffffffffffffffffffffffffff03821115610c3557610c34610d0f565b5b828201905092915050565b6000610c4b82610cbc565b9150610c5683610cbc565b925082821015610c6957610c68610d0f565b5b828203905092915050565b6000610c7f82610c9c565b9050919050565b60008115159050919050565b6000819050919050565b600073ffffffffffffffffffffffffffffffffffffffff82169050919050565b6000819050919050565b6000610cd182610cbc565b91507fffffffffffffffffffffffffffffffffffffffffffffffffffffffffffffffff821415610d0457610d03610d0f565b5b600182019050919050565b7f4e487b7100000000000000000000000000000000000000000000000000000000600052601160045260246000fd5b7f4e487b7100000000000000000000000000000000000000000000000000000000600052603260045260246000fd5b600080fd5b610d7b81610c74565b8114610d8657600080fd5b50565b610d9281610cbc565b8114610d9d57600080fd5b5056fea26469706673582212201984a4310cf339351a669f50186ba2abe2d331f5401873227b153cc6c6a2967c64736f6c63430008070033",
					"opcodes": "PUSH1 0x80 PUSH1 0x40 MSTORE PUSH1 0x1 PUSH1 0x2 PUSH1 0x0 PUSH2 0x100 EXP DUP2 SLOAD DUP2 PUSH1 0xFF MUL NOT AND SWAP1 DUP4 ISZERO ISZERO MUL OR SWAP1 SSTORE POP CALLVALUE DUP1 ISZERO PUSH2 0x2B JUMPI PUSH1 0x0 DUP1 REVERT JUMPDEST POP CALLER PUSH1 0x0 DUP1 PUSH2 0x100 EXP DUP2 SLOAD DUP2 PUSH20 0xFFFFFFFFFFFFFFFFFFFFFFFFFFFFFFFFFFFFFFFF MUL NOT AND SWAP1 DUP4 PUSH20 0xFFFFFFFFFFFFFFFFFFFFFFFFFFFFFFFFFFFFFFFF AND MUL OR SWAP1 SSTORE POP PUSH2 0xDD6 DUP1 PUSH2 0x7B PUSH1 0x0 CODECOPY PUSH1 0x0 RETURN INVALID PUSH1 0x80 PUSH1 0x40 MSTORE CALLVALUE DUP1 ISZERO PUSH2 0x10 JUMPI PUSH1 0x0 DUP1 REVERT JUMPDEST POP PUSH1 0x4 CALLDATASIZE LT PUSH2 0x121 JUMPI PUSH1 0x0 CALLDATALOAD PUSH1 0xE0 SHR DUP1 PUSH4 0x9811C7C1 GT PUSH2 0xAD JUMPI DUP1 PUSH4 0xD83B2C05 GT PUSH2 0x71 JUMPI DUP1 PUSH4 0xD83B2C05 EQ PUSH2 0x32E JUMPI DUP1 PUSH4 0xDFBF53AE EQ PUSH2 0x35E JUMPI DUP1 PUSH4 0xE318E7D5 EQ PUSH2 0x37C JUMPI DUP1 PUSH4 0xF4AB9ADF EQ PUSH2 0x39A JUMPI DUP1 PUSH4 0xFCFFF16F EQ PUSH2 0x3B6 JUMPI PUSH2 0x121 JUMP JUMPDEST DUP1 PUSH4 0x9811C7C1 EQ PUSH2 0x250 JUMPI DUP1 PUSH4 0xAF0DBE54 EQ PUSH2 0x280 JUMPI DUP1 PUSH4 0xC29E1A56 EQ PUSH2 0x2B0 JUMPI DUP1 PUSH4 0xC71F4253 EQ PUSH2 0x2E0 JUMPI DUP1 PUSH4 0xCDCBC3C2 EQ PUSH2 0x310 JUMPI PUSH2 0x121 JUMP JUMPDEST DUP1 PUSH4 0x4EDA77E1 GT PUSH2 0xF4 JUMPI DUP1 PUSH4 0x4EDA77E1 EQ PUSH2 0x198 JUMPI DUP1 PUSH4 0x50E2E8AF EQ PUSH2 0x1B4 JUMPI DUP1 PUSH4 0x597E1FB5 EQ PUSH2 0x1E4 JUMPI DUP1 PUSH4 0x7736445D EQ PUSH2 0x202 JUMPI DUP1 PUSH4 0x8DA5CB5B EQ PUSH2 0x232 JUMPI PUSH2 0x121 JUMP JUMPDEST DUP1 PUSH4 0x121B93F EQ PUSH2 0x126 JUMPI DUP1 PUSH4 0x1B9EBE54 EQ PUSH2 0x142 JUMPI DUP1 PUSH4 0x36002617 EQ PUSH2 0x172 JUMPI DUP1 PUSH4 0x43D726D6 EQ PUSH2 0x18E JUMPI JUMPDEST PUSH1 0x0 DUP1 REVERT JUMPDEST PUSH2 0x140 PUSH1 0x4 DUP1 CALLDATASIZE SUB DUP2 ADD SWAP1 PUSH2 0x13B SWAP2 SWAP1 PUSH2 0xB15 JUMP JUMPDEST PUSH2 0x3C0 JUMP JUMPDEST STOP JUMPDEST PUSH2 0x15C PUSH1 0x4 DUP1 CALLDATASIZE SUB DUP2 ADD SWAP1 PUSH2 0x157 SWAP2 SWAP1 PUSH2 0xAE8 JUMP JUMPDEST PUSH2 0x4F6 JUMP JUMPDEST PUSH1 0x40 MLOAD PUSH2 0x169 SWAP2 SWAP1 PUSH2 0xBB4 JUMP JUMPDEST PUSH1 0x40 MLOAD DUP1 SWAP2 SUB SWAP1 RETURN JUMPDEST PUSH2 0x18C PUSH1 0x4 DUP1 CALLDATASIZE SUB DUP2 ADD SWAP1 PUSH2 0x187 SWAP2 SWAP1 PUSH2 0xB15 JUMP JUMPDEST PUSH2 0x53F JUMP JUMPDEST STOP JUMPDEST PUSH2 0x196 PUSH2 0x5DC JUMP JUMPDEST STOP JUMPDEST PUSH2 0x1B2 PUSH1 0x4 DUP1 CALLDATASIZE SUB DUP2 ADD SWAP1 PUSH2 0x1AD SWAP2 SWAP1 PUSH2 0xB15 JUMP JUMPDEST PUSH2 0x651 JUMP JUMPDEST STOP JUMPDEST PUSH2 0x1CE PUSH1 0x4 DUP1 CALLDATASIZE SUB DUP2 ADD SWAP1 PUSH2 0x1C9 SWAP2 SWAP1 PUSH2 0xB15 JUMP JUMPDEST PUSH2 0x7D1 JUMP JUMPDEST PUSH1 0x40 MLOAD PUSH2 0x1DB SWAP2 SWAP1 PUSH2 0xB7E JUMP JUMPDEST PUSH1 0x40 MLOAD DUP1 SWAP2 SUB SWAP1 RETURN JUMPDEST PUSH2 0x1EC PUSH2 0x810 JUMP JUMPDEST PUSH1 0x40 MLOAD PUSH2 0x1F9 SWAP2 SWAP1 PUSH2 0xB99 JUMP JUMPDEST PUSH1 0x40 MLOAD DUP1 SWAP2 SUB SWAP1 RETURN JUMPDEST PUSH2 0x21C PUSH1 0x4 DUP1 CALLDATASIZE SUB DUP2 ADD SWAP1 PUSH2 0x217 SWAP2 SWAP1 PUSH2 0xB15 JUMP JUMPDEST PUSH2 0x823 JUMP JUMPDEST PUSH1 0x40 MLOAD PUSH2 0x229 SWAP2 SWAP1 PUSH2 0xBCF JUMP JUMPDEST PUSH1 0x40 MLOAD DUP1 SWAP2 SUB SWAP1 RETURN JUMPDEST PUSH2 0x23A PUSH2 0x82A JUMP JUMPDEST PUSH1 0x40 MLOAD PUSH2 0x247 SWAP2 SWAP1 PUSH2 0xB7E JUMP JUMPDEST PUSH1 0x40 MLOAD DUP1 SWAP2 SUB SWAP1 RETURN JUMPDEST PUSH2 0x26A PUSH1 0x4 DUP1 CALLDATASIZE SUB DUP2 ADD SWAP1 PUSH2 0x265 SWAP2 SWAP1 PUSH2 0xB15 JUMP JUMPDEST PUSH2 0x84E JUMP JUMPDEST PUSH1 0x40 MLOAD PUSH2 0x277 SWAP2 SWAP1 PUSH2 0xBCF JUMP JUMPDEST PUSH1 0x40 MLOAD DUP1 SWAP2 SUB SWAP1 RETURN JUMPDEST PUSH2 0x29A PUSH1 0x4 DUP1 CALLDATASIZE SUB DUP2 ADD SWAP1 PUSH2 0x295 SWAP2 SWAP1 PUSH2 0xAE8 JUMP JUMPDEST PUSH2 0x866 JUMP JUMPDEST PUSH1 0x40 MLOAD PUSH2 0x2A7 SWAP2 SWAP1 PUSH2 0xBB4 JUMP JUMPDEST PUSH1 0x40 MLOAD DUP1 SWAP2 SUB SWAP1 RETURN JUMPDEST PUSH2 0x2CA PUSH1 0x4 DUP1 CALLDATASIZE SUB DUP2 ADD SWAP1 PUSH2 0x2C5 SWAP2 SWAP1 PUSH2 0xB15 JUMP JUMPDEST PUSH2 0x87E JUMP JUMPDEST PUSH1 0x40 MLOAD PUSH2 0x2D7 SWAP2 SWAP1 PUSH2 0xBCF JUMP JUMPDEST PUSH1 0x40 MLOAD DUP1 SWAP2 SUB SWAP1 RETURN JUMPDEST PUSH2 0x2FA PUSH1 0x4 DUP1 CALLDATASIZE SUB DUP2 ADD SWAP1 PUSH2 0x2F5 SWAP2 SWAP1 PUSH2 0xB15 JUMP JUMPDEST PUSH2 0x8A2 JUMP JUMPDEST PUSH1 0x40 MLOAD PUSH2 0x307 SWAP2 SWAP1 PUSH2 0xBCF JUMP JUMPDEST PUSH1 0x40 MLOAD DUP1 SWAP2 SUB SWAP1 RETURN JUMPDEST PUSH2 0x318 PUSH2 0x8BF JUMP JUMPDEST PUSH1 0x40 MLOAD PUSH2 0x325 SWAP2 SWAP1 PUSH2 0xBCF JUMP JUMPDEST PUSH1 0x40 MLOAD DUP1 SWAP2 SUB SWAP1 RETURN JUMPDEST PUSH2 0x348 PUSH1 0x4 DUP1 CALLDATASIZE SUB DUP2 ADD SWAP1 PUSH2 0x343 SWAP2 SWAP1 PUSH2 0xB15 JUMP JUMPDEST PUSH2 0x8CC JUMP JUMPDEST PUSH1 0x40 MLOAD PUSH2 0x355 SWAP2 SWAP1 PUSH2 0xB7E JUMP JUMPDEST PUSH1 0x40 MLOAD DUP1 SWAP2 SUB SWAP1 RETURN JUMPDEST PUSH2 0x366 PUSH2 0x914 JUMP JUMPDEST PUSH1 0x40 MLOAD PUSH2 0x373 SWAP2 SWAP1 PUSH2 0xBCF JUMP JUMPDEST PUSH1 0x40 MLOAD DUP1 SWAP2 SUB SWAP1 RETURN JUMPDEST PUSH2 0x384 PUSH2 0x91A JUMP JUMPDEST PUSH1 0x40 MLOAD PUSH2 0x391 SWAP2 SWAP1 PUSH2 0xBCF JUMP JUMPDEST PUSH1 0x40 MLOAD DUP1 SWAP2 SUB SWAP1 RETURN JUMPDEST PUSH2 0x3B4 PUSH1 0x4 DUP1 CALLDATASIZE SUB DUP2 ADD SWAP1 PUSH2 0x3AF SWAP2 SWAP1 PUSH2 0xAE8 JUMP JUMPDEST PUSH2 0x927 JUMP JUMPDEST STOP JUMPDEST PUSH2 0x3BE PUSH2 0xA49 JUMP JUMPDEST STOP JUMPDEST PUSH32 0xFFFFFFFFFFFFFFFFFFFFFFFFFFFFFFFFFFFFFFFFFFFFFFFFFFFFFFFFFFFFFFFF PUSH1 0x6 PUSH1 0x0 CALLER PUSH20 0xFFFFFFFFFFFFFFFFFFFFFFFFFFFFFFFFFFFFFFFF AND PUSH20 0xFFFFFFFFFFFFFFFFFFFFFFFFFFFFFFFFFFFFFFFF AND DUP2 MSTORE PUSH1 0x20 ADD SWAP1 DUP2 MSTORE PUSH1 0x20 ADD PUSH1 0x0 KECCAK256 SLOAD EQ ISZERO PUSH2 0x4F3 JUMPI PUSH1 0x0 DUP1 PUSH1 0x0 SWAP1 POP JUMPDEST PUSH1 0x3 DUP1 SLOAD SWAP1 POP DUP2 LT ISZERO PUSH2 0x47A JUMPI DUP3 PUSH1 0x3 DUP3 DUP2 SLOAD DUP2 LT PUSH2 0x451 JUMPI PUSH2 0x450 PUSH2 0xD3E JUMP JUMPDEST JUMPDEST SWAP1 PUSH1 0x0 MSTORE PUSH1 0x20 PUSH1 0x0 KECCAK256 ADD SLOAD EQ ISZERO PUSH2 0x467 JUMPI PUSH1 0x1 SWAP2 POP JUMPDEST DUP1 DUP1 PUSH2 0x472 SWAP1 PUSH2 0xCC6 JUMP JUMPDEST SWAP2 POP POP PUSH2 0x42F JUMP JUMPDEST POP DUP1 ISZERO PUSH2 0x4F1 JUMPI PUSH1 0x1 PUSH1 0x4 PUSH1 0x0 DUP5 DUP2 MSTORE PUSH1 0x20 ADD SWAP1 DUP2 MSTORE PUSH1 0x20 ADD PUSH1 0x0 KECCAK256 PUSH1 0x0 DUP3 DUP3 SLOAD PUSH2 0x4A5 SWAP2 SWAP1 PUSH2 0xBEA JUMP JUMPDEST SWAP3 POP POP DUP2 SWAP1 SSTORE POP DUP2 PUSH1 0x6 PUSH1 0x0 CALLER PUSH20 0xFFFFFFFFFFFFFFFFFFFFFFFFFFFFFFFFFFFFFFFF AND PUSH20 0xFFFFFFFFFFFFFFFFFFFFFFFFFFFFFFFFFFFFFFFF AND DUP2 MSTORE PUSH1 0x20 ADD SWAP1 DUP2 MSTORE PUSH1 0x20 ADD PUSH1 0x0 KECCAK256 DUP2 SWAP1 SSTORE POP JUMPDEST POP JUMPDEST POP JUMP JUMPDEST PUSH1 0x0 PUSH1 0x6 PUSH1 0x0 DUP4 PUSH20 0xFFFFFFFFFFFFFFFFFFFFFFFFFFFFFFFFFFFFFFFF AND PUSH20 0xFFFFFFFFFFFFFFFFFFFFFFFFFFFFFFFFFFFFFFFF AND DUP2 MSTORE PUSH1 0x20 ADD SWAP1 DUP2 MSTORE PUSH1 0x20 ADD PUSH1 0x0 KECCAK256 SLOAD SWAP1 POP SWAP2 SWAP1 POP JUMP JUMPDEST PUSH1 0x0 DUP1 SLOAD SWAP1 PUSH2 0x100 EXP SWAP1 DIV PUSH20 0xFFFFFFFFFFFFFFFFFFFFFFFFFFFFFFFFFFFFFFFF AND PUSH20 0xFFFFFFFFFFFFFFFFFFFFFFFFFFFFFFFFFFFFFFFF AND CALLER PUSH20 0xFFFFFFFFFFFFFFFFFFFFFFFFFFFFFFFFFFFFFFFF AND EQ PUSH2 0x597 JUMPI PUSH1 0x0 DUP1 REVERT JUMPDEST PUSH1 0x3 DUP2 SWAP1 DUP1 PUSH1 0x1 DUP2 SLOAD ADD DUP1 DUP3 SSTORE DUP1 SWAP2 POP POP PUSH1 0x1 SWAP1 SUB SWAP1 PUSH1 0x0 MSTORE PUSH1 0x20 PUSH1 0x0 KECCAK256 ADD PUSH1 0x0 SWAP1 SWAP2 SWAP1 SWAP2 SWAP1 SWAP2 POP SSTORE PUSH1 0x0 PUSH1 0x4 PUSH1 0x0 DUP4 DUP2 MSTORE PUSH1 0x20 ADD SWAP1 DUP2 MSTORE PUSH1 0x20 ADD PUSH1 0x0 KECCAK256 DUP2 SWAP1 SSTORE POP POP JUMP JUMPDEST PUSH1 0x0 DUP1 SLOAD SWAP1 PUSH2 0x100 EXP SWAP1 DIV PUSH20 0xFFFFFFFFFFFFFFFFFFFFFFFFFFFFFFFFFFFFFFFF AND PUSH20 0xFFFFFFFFFFFFFFFFFFFFFFFFFFFFFFFFFFFFFFFF AND CALLER PUSH20 0xFFFFFFFFFFFFFFFFFFFFFFFFFFFFFFFFFFFFFFFF AND EQ PUSH2 0x634 JUMPI PUSH1 0x0 DUP1 REVERT JUMPDEST PUSH1 0x1 PUSH1 0x2 PUSH1 0x0 PUSH2 0x100 EXP DUP2 SLOAD DUP2 PUSH1 0xFF MUL NOT AND SWAP1 DUP4 ISZERO ISZERO MUL OR SWAP1 SSTORE POP JUMP JUMPDEST PUSH1 0x0 PUSH1 0x6 PUSH1 0x0 CALLER PUSH20 0xFFFFFFFFFFFFFFFFFFFFFFFFFFFFFFFFFFFFFFFF AND PUSH20 0xFFFFFFFFFFFFFFFFFFFFFFFFFFFFFFFFFFFFFFFF AND DUP2 MSTORE PUSH1 0x20 ADD SWAP1 DUP2 MSTORE PUSH1 0x20 ADD PUSH1 0x0 KECCAK256 SLOAD EQ PUSH2 0x7CE JUMPI PUSH1 0x0 DUP1 PUSH1 0x0 SWAP1 POP JUMPDEST PUSH1 0x3 DUP1 SLOAD SWAP1 POP DUP2 LT ISZERO PUSH2 0x6EB JUMPI DUP3 PUSH1 0x3 DUP3 DUP2 SLOAD DUP2 LT PUSH2 0x6C2 JUMPI PUSH2 0x6C1 PUSH2 0xD3E JUMP JUMPDEST JUMPDEST SWAP1 PUSH1 0x0 MSTORE PUSH1 0x20 PUSH1 0x0 KECCAK256 ADD SLOAD EQ ISZERO PUSH2 0x6D8 JUMPI PUSH1 0x1 SWAP2 POP JUMPDEST DUP1 DUP1 PUSH2 0x6E3 SWAP1 PUSH2 0xCC6 JUMP JUMPDEST SWAP2 POP POP PUSH2 0x6A0 JUMP JUMPDEST POP DUP1 ISZERO PUSH2 0x7CC JUMPI PUSH1 0x1 PUSH1 0x4 PUSH1 0x0 PUSH1 0x6 PUSH1 0x0 CALLER PUSH20 0xFFFFFFFFFFFFFFFFFFFFFFFFFFFFFFFFFFFFFFFF AND PUSH20 0xFFFFFFFFFFFFFFFFFFFFFFFFFFFFFFFFFFFFFFFF AND DUP2 MSTORE PUSH1 0x20 ADD SWAP1 DUP2 MSTORE PUSH1 0x20 ADD PUSH1 0x0 KECCAK256 SLOAD DUP2 MSTORE PUSH1 0x20 ADD SWAP1 DUP2 MSTORE PUSH1 0x20 ADD PUSH1 0x0 KECCAK256 PUSH1 0x0 DUP3 DUP3 SLOAD PUSH2 0x755 SWAP2 SWAP1 PUSH2 0xC40 JUMP JUMPDEST SWAP3 POP POP DUP2 SWAP1 SSTORE POP PUSH1 0x1 PUSH1 0x4 PUSH1 0x0 DUP5 DUP2 MSTORE PUSH1 0x20 ADD SWAP1 DUP2 MSTORE PUSH1 0x20 ADD PUSH1 0x0 KECCAK256 PUSH1 0x0 DUP3 DUP3 SLOAD PUSH2 0x780 SWAP2 SWAP1 PUSH2 0xBEA JUMP JUMPDEST SWAP3 POP POP DUP2 SWAP1 SSTORE POP DUP2 PUSH1 0x6 PUSH1 0x0 CALLER PUSH20 0xFFFFFFFFFFFFFFFFFFFFFFFFFFFFFFFFFFFFFFFF AND PUSH20 0xFFFFFFFFFFFFFFFFFFFFFFFFFFFFFFFFFFFFFFFF AND DUP2 MSTORE PUSH1 0x20 ADD SWAP1 DUP2 MSTORE PUSH1 0x20 ADD PUSH1 0x0 KECCAK256 DUP2 SWAP1 SSTORE POP JUMPDEST POP JUMPDEST POP JUMP JUMPDEST PUSH1 0x5 DUP2 DUP2 SLOAD DUP2 LT PUSH2 0x7E1 JUMPI PUSH1 0x0 DUP1 REVERT JUMPDEST SWAP1 PUSH1 0x0 MSTORE PUSH1 0x20 PUSH1 0x0 KECCAK256 ADD PUSH1 0x0 SWAP2 POP SLOAD SWAP1 PUSH2 0x100 EXP SWAP1 DIV PUSH20 0xFFFFFFFFFFFFFFFFFFFFFFFFFFFFFFFFFFFFFFFF AND DUP2 JUMP JUMPDEST PUSH1 0x2 PUSH1 0x0 SWAP1 SLOAD SWAP1 PUSH2 0x100 EXP SWAP1 DIV PUSH1 0xFF AND DUP2 JUMP JUMPDEST PUSH1 0x0 SWAP2 SWAP1 POP JUMP JUMPDEST PUSH1 0x0 DUP1 SLOAD SWAP1 PUSH2 0x100 EXP SWAP1 DIV PUSH20 0xFFFFFFFFFFFFFFFFFFFFFFFFFFFFFFFFFFFFFFFF AND DUP2 JUMP JUMPDEST PUSH1 0x4 PUSH1 0x20 MSTORE DUP1 PUSH1 0x0 MSTORE PUSH1 0x40 PUSH1 0x0 KECCAK256 PUSH1 0x0 SWAP2 POP SWAP1 POP SLOAD DUP2 JUMP JUMPDEST PUSH1 0x6 PUSH1 0x20 MSTORE DUP1 PUSH1 0x0 MSTORE PUSH1 0x40 PUSH1 0x0 KECCAK256 PUSH1 0x0 SWAP2 POP SWAP1 POP SLOAD DUP2 JUMP JUMPDEST PUSH1 0x3 DUP2 DUP2 SLOAD DUP2 LT PUSH2 0x88E JUMPI PUSH1 0x0 DUP1 REVERT JUMPDEST SWAP1 PUSH1 0x0 MSTORE PUSH1 0x20 PUSH1 0x0 KECCAK256 ADD PUSH1 0x0 SWAP2 POP SWAP1 POP SLOAD DUP2 JUMP JUMPDEST PUSH1 0x0 PUSH1 0x4 PUSH1 0x0 DUP4 DUP2 MSTORE PUSH1 0x20 ADD SWAP1 DUP2 MSTORE PUSH1 0x20 ADD PUSH1 0x0 KECCAK256 SLOAD SWAP1 POP SWAP2 SWAP1 POP JUMP JUMPDEST PUSH1 0x0 PUSH1 0x5 DUP1 SLOAD SWAP1 POP SWAP1 POP SWAP1 JUMP JUMPDEST PUSH1 0x0 PUSH1 0x5 DUP3 DUP2 SLOAD DUP2 LT PUSH2 0x8E2 JUMPI PUSH2 0x8E1 PUSH2 0xD3E JUMP JUMPDEST JUMPDEST SWAP1 PUSH1 0x0 MSTORE PUSH1 0x20 PUSH1 0x0 KECCAK256 ADD PUSH1 0x0 SWAP1 SLOAD SWAP1 PUSH2 0x100 EXP SWAP1 DIV PUSH20 0xFFFFFFFFFFFFFFFFFFFFFFFFFFFFFFFFFFFFFFFF AND SWAP1 POP SWAP2 SWAP1 POP JUMP JUMPDEST PUSH1 0x1 SLOAD DUP2 JUMP JUMPDEST PUSH1 0x0 PUSH1 0x3 DUP1 SLOAD SWAP1 POP SWAP1 POP SWAP1 JUMP JUMPDEST PUSH1 0x0 DUP1 SLOAD SWAP1 PUSH2 0x100 EXP SWAP1 DIV PUSH20 0xFFFFFFFFFFFFFFFFFFFFFFFFFFFFFFFFFFFFFFFF AND PUSH20 0xFFFFFFFFFFFFFFFFFFFFFFFFFFFFFFFFFFFFFFFF AND CALLER PUSH20 0xFFFFFFFFFFFFFFFFFFFFFFFFFFFFFFFFFFFFFFFF AND EQ PUSH2 0x97F JUMPI PUSH1 0x0 DUP1 REVERT JUMPDEST PUSH1 0x5 DUP2 SWAP1 DUP1 PUSH1 0x1 DUP2 SLOAD ADD DUP1 DUP3 SSTORE DUP1 SWAP2 POP POP PUSH1 0x1 SWAP1 SUB SWAP1 PUSH1 0x0 MSTORE PUSH1 0x20 PUSH1 0x0 KECCAK256 ADD PUSH1 0x0 SWAP1 SWAP2 SWAP1 SWAP2 SWAP1 SWAP2 PUSH2 0x100 EXP DUP2 SLOAD DUP2 PUSH20 0xFFFFFFFFFFFFFFFFFFFFFFFFFFFFFFFFFFFFFFFF MUL NOT AND SWAP1 DUP4 PUSH20 0xFFFFFFFFFFFFFFFFFFFFFFFFFFFFFFFFFFFFFFFF AND MUL OR SWAP1 SSTORE POP PUSH32 0xFFFFFFFFFFFFFFFFFFFFFFFFFFFFFFFFFFFFFFFFFFFFFFFFFFFFFFFFFFFFFFFF PUSH1 0x6 PUSH1 0x0 DUP4 PUSH20 0xFFFFFFFFFFFFFFFFFFFFFFFFFFFFFFFFFFFFFFFF AND PUSH20 0xFFFFFFFFFFFFFFFFFFFFFFFFFFFFFFFFFFFFFFFF AND DUP2 MSTORE PUSH1 0x20 ADD SWAP1 DUP2 MSTORE PUSH1 0x20 ADD PUSH1 0x0 KECCAK256 DUP2 SWAP1 SSTORE POP POP JUMP JUMPDEST PUSH1 0x0 DUP1 SLOAD SWAP1 PUSH2 0x100 EXP SWAP1 DIV PUSH20 0xFFFFFFFFFFFFFFFFFFFFFFFFFFFFFFFFFFFFFFFF AND PUSH20 0xFFFFFFFFFFFFFFFFFFFFFFFFFFFFFFFFFFFFFFFF AND CALLER PUSH20 0xFFFFFFFFFFFFFFFFFFFFFFFFFFFFFFFFFFFFFFFF AND EQ PUSH2 0xAA1 JUMPI PUSH1 0x0 DUP1 REVERT JUMPDEST PUSH1 0x0 PUSH1 0x2 PUSH1 0x0 PUSH2 0x100 EXP DUP2 SLOAD DUP2 PUSH1 0xFF MUL NOT AND SWAP1 DUP4 ISZERO ISZERO MUL OR SWAP1 SSTORE POP JUMP JUMPDEST PUSH1 0x0 DUP2 CALLDATALOAD SWAP1 POP PUSH2 0xACD DUP2 PUSH2 0xD72 JUMP JUMPDEST SWAP3 SWAP2 POP POP JUMP JUMPDEST PUSH1 0x0 DUP2 CALLDATALOAD SWAP1 POP PUSH2 0xAE2 DUP2 PUSH2 0xD89 JUMP JUMPDEST SWAP3 SWAP2 POP POP JUMP JUMPDEST PUSH1 0x0 PUSH1 0x20 DUP3 DUP5 SUB SLT ISZERO PUSH2 0xAFE JUMPI PUSH2 0xAFD PUSH2 0xD6D JUMP JUMPDEST JUMPDEST PUSH1 0x0 PUSH2 0xB0C DUP5 DUP3 DUP6 ADD PUSH2 0xABE JUMP JUMPDEST SWAP2 POP POP SWAP3 SWAP2 POP POP JUMP JUMPDEST PUSH1 0x0 PUSH1 0x20 DUP3 DUP5 SUB SLT ISZERO PUSH2 0xB2B JUMPI PUSH2 0xB2A PUSH2 0xD6D JUMP JUMPDEST JUMPDEST PUSH1 0x0 PUSH2 0xB39 DUP5 DUP3 DUP6 ADD PUSH2 0xAD3 JUMP JUMPDEST SWAP2 POP POP SWAP3 SWAP2 POP POP JUMP JUMPDEST PUSH2 0xB4B DUP2 PUSH2 0xC74 JUMP JUMPDEST DUP3 MSTORE POP POP JUMP JUMPDEST PUSH2 0xB5A DUP2 PUSH2 0xC86 JUMP JUMPDEST DUP3 MSTORE POP POP JUMP JUMPDEST PUSH2 0xB69 DUP2 PUSH2 0xC92 JUMP JUMPDEST DUP3 MSTORE POP POP JUMP JUMPDEST PUSH2 0xB78 DUP2 PUSH2 0xCBC JUMP JUMPDEST DUP3 MSTORE POP POP JUMP JUMPDEST PUSH1 0x0 PUSH1 0x20 DUP3 ADD SWAP1 POP PUSH2 0xB93 PUSH1 0x0 DUP4 ADD DUP5 PUSH2 0xB42 JUMP JUMPDEST SWAP3 SWAP2 POP POP JUMP JUMPDEST PUSH1 0x0 PUSH1 0x20 DUP3 ADD SWAP1 POP PUSH2 0xBAE PUSH1 0x0 DUP4 ADD DUP5 PUSH2 0xB51 JUMP JUMPDEST SWAP3 SWAP2 POP POP JUMP JUMPDEST PUSH1 0x0 PUSH1 0x20 DUP3 ADD SWAP1 POP PUSH2 0xBC9 PUSH1 0x0 DUP4 ADD DUP5 PUSH2 0xB60 JUMP JUMPDEST SWAP3 SWAP2 POP POP JUMP JUMPDEST PUSH1 0x0 PUSH1 0x20 DUP3 ADD SWAP1 POP PUSH2 0xBE4 PUSH1 0x0 DUP4 ADD DUP5 PUSH2 0xB6F JUMP JUMPDEST SWAP3 SWAP2 POP POP JUMP JUMPDEST PUSH1 0x0 PUSH2 0xBF5 DUP3 PUSH2 0xCBC JUMP JUMPDEST SWAP2 POP PUSH2 0xC00 DUP4 PUSH2 0xCBC JUMP JUMPDEST SWAP3 POP DUP3 PUSH32 0xFFFFFFFFFFFFFFFFFFFFFFFFFFFFFFFFFFFFFFFFFFFFFFFFFFFFFFFFFFFFFFFF SUB DUP3 GT ISZERO PUSH2 0xC35 JUMPI PUSH2 0xC34 PUSH2 0xD0F JUMP JUMPDEST JUMPDEST DUP3 DUP3 ADD SWAP1 POP SWAP3 SWAP2 POP POP JUMP JUMPDEST PUSH1 0x0 PUSH2 0xC4B DUP3 PUSH2 0xCBC JUMP JUMPDEST SWAP2 POP PUSH2 0xC56 DUP4 PUSH2 0xCBC JUMP JUMPDEST SWAP3 POP DUP3 DUP3 LT ISZERO PUSH2 0xC69 JUMPI PUSH2 0xC68 PUSH2 0xD0F JUMP JUMPDEST JUMPDEST DUP3 DUP3 SUB SWAP1 POP SWAP3 SWAP2 POP POP JUMP JUMPDEST PUSH1 0x0 PUSH2 0xC7F DUP3 PUSH2 0xC9C JUMP JUMPDEST SWAP1 POP SWAP2 SWAP1 POP JUMP JUMPDEST PUSH1 0x0 DUP2 ISZERO ISZERO SWAP1 POP SWAP2 SWAP1 POP JUMP JUMPDEST PUSH1 0x0 DUP2 SWAP1 POP SWAP2 SWAP1 POP JUMP JUMPDEST PUSH1 0x0 PUSH20 0xFFFFFFFFFFFFFFFFFFFFFFFFFFFFFFFFFFFFFFFF DUP3 AND SWAP1 POP SWAP2 SWAP1 POP JUMP JUMPDEST PUSH1 0x0 DUP2 SWAP1 POP SWAP2 SWAP1 POP JUMP JUMPDEST PUSH1 0x0 PUSH2 0xCD1 DUP3 PUSH2 0xCBC JUMP JUMPDEST SWAP2 POP PUSH32 0xFFFFFFFFFFFFFFFFFFFFFFFFFFFFFFFFFFFFFFFFFFFFFFFFFFFFFFFFFFFFFFFF DUP3 EQ ISZERO PUSH2 0xD04 JUMPI PUSH2 0xD03 PUSH2 0xD0F JUMP JUMPDEST JUMPDEST PUSH1 0x1 DUP3 ADD SWAP1 POP SWAP2 SWAP1 POP JUMP JUMPDEST PUSH32 0x4E487B7100000000000000000000000000000000000000000000000000000000 PUSH1 0x0 MSTORE PUSH1 0x11 PUSH1 0x4 MSTORE PUSH1 0x24 PUSH1 0x0 REVERT JUMPDEST PUSH32 0x4E487B7100000000000000000000000000000000000000000000000000000000 PUSH1 0x0 MSTORE PUSH1 0x32 PUSH1 0x4 MSTORE PUSH1 0x24 PUSH1 0x0 REVERT JUMPDEST PUSH1 0x0 DUP1 REVERT JUMPDEST PUSH2 0xD7B DUP2 PUSH2 0xC74 JUMP JUMPDEST DUP2 EQ PUSH2 0xD86 JUMPI PUSH1 0x0 DUP1 REVERT JUMPDEST POP JUMP JUMPDEST PUSH2 0xD92 DUP2 PUSH2 0xCBC JUMP JUMPDEST DUP2 EQ PUSH2 0xD9D JUMPI PUSH1 0x0 DUP1 REVERT JUMPDEST POP JUMP INVALID LOG2 PUSH5 0x6970667358 0x22 SLT KECCAK256 NOT DUP5 LOG4 BALANCE 0xC RETURN CODECOPY CALLDATALOAD BYTE PUSH7 0x9F50186BA2ABE2 0xD3 BALANCE CREATE2 BLOCKHASH XOR PUSH20 0x227B153CC6C6A2967C64736F6C63430008070033 "
				},
				"gasEstimates": {
					"creation": {
						"codeDepositCost": "708400",
						"executionCost": "49274",
						"totalCost": "757674"
					},
					"external": {
						"addTarget(uint256)": "54156",
						"addVoter(address)": "73493",
						"close()": "26668",
						"closed()": "2538",
						"getNumberOfVotes(uint256)": "infinite",
						"getTargetArrayLength()": "2511",
						"getTargetID(uint256)": "infinite",
						"getVotedTarget(address)": "2887",
						"getVoterAddress(uint256)": "4989",
						"getVoterArrayLength()": "2556",
						"open()": "26688",
						"owner()": "2622",
						"revote(uint256)": "infinite",
						"target(uint256)": "infinite",
						"targetList(uint256)": "infinite",
						"vote(uint256)": "infinite",
						"voter(address)": "2859",
						"voterList(uint256)": "5001",
						"winner()": "2473"
					}
				},
				"methodIdentifiers": {
					"addTarget(uint256)": "36002617",
					"addVoter(address)": "f4ab9adf",
					"close()": "43d726d6",
					"closed()": "597e1fb5",
					"getNumberOfVotes(uint256)": "c71f4253",
					"getTargetArrayLength()": "e318e7d5",
					"getTargetID(uint256)": "7736445d",
					"getVotedTarget(address)": "1b9ebe54",
					"getVoterAddress(uint256)": "d83b2c05",
					"getVoterArrayLength()": "cdcbc3c2",
					"open()": "fcfff16f",
					"owner()": "8da5cb5b",
					"revote(uint256)": "4eda77e1",
					"target(uint256)": "9811c7c1",
					"targetList(uint256)": "c29e1a56",
					"vote(uint256)": "0121b93f",
					"voter(address)": "af0dbe54",
					"voterList(uint256)": "50e2e8af",
					"winner()": "dfbf53ae"
				}
			},
			"storageLayout": {
				"storage": [
					{
						"astId": 3,
						"contract": "contracts/Vote.sol:Vote",
						"label": "owner",
						"offset": 0,
						"slot": "0",
						"type": "t_address"
					},
					{
						"astId": 5,
						"contract": "contracts/Vote.sol:Vote",
						"label": "winner",
						"offset": 0,
						"slot": "1",
						"type": "t_uint256"
					},
					{
						"astId": 8,
						"contract": "contracts/Vote.sol:Vote",
						"label": "closed",
						"offset": 0,
						"slot": "2",
						"type": "t_bool"
					},
					{
						"astId": 11,
						"contract": "contracts/Vote.sol:Vote",
						"label": "targetList",
						"offset": 0,
						"slot": "3",
						"type": "t_array(t_uint256)dyn_storage"
					},
					{
						"astId": 15,
						"contract": "contracts/Vote.sol:Vote",
						"label": "target",
						"offset": 0,
						"slot": "4",
						"type": "t_mapping(t_uint256,t_uint256)"
					},
					{
						"astId": 18,
						"contract": "contracts/Vote.sol:Vote",
						"label": "voterList",
						"offset": 0,
						"slot": "5",
						"type": "t_array(t_address)dyn_storage"
					},
					{
						"astId": 22,
						"contract": "contracts/Vote.sol:Vote",
						"label": "voter",
						"offset": 0,
						"slot": "6",
						"type": "t_mapping(t_address,t_int256)"
					}
				],
				"types": {
					"t_address": {
						"encoding": "inplace",
						"label": "address",
						"numberOfBytes": "20"
					},
					"t_array(t_address)dyn_storage": {
						"base": "t_address",
						"encoding": "dynamic_array",
						"label": "address[]",
						"numberOfBytes": "32"
					},
					"t_array(t_uint256)dyn_storage": {
						"base": "t_uint256",
						"encoding": "dynamic_array",
						"label": "uint256[]",
						"numberOfBytes": "32"
					},
					"t_bool": {
						"encoding": "inplace",
						"label": "bool",
						"numberOfBytes": "1"
					},
					"t_int256": {
						"encoding": "inplace",
						"label": "int256",
						"numberOfBytes": "32"
					},
					"t_mapping(t_address,t_int256)": {
						"encoding": "mapping",
						"key": "t_address",
						"label": "mapping(address => int256)",
						"numberOfBytes": "32",
						"value": "t_int256"
					},
					"t_mapping(t_uint256,t_uint256)": {
						"encoding": "mapping",
						"key": "t_uint256",
						"label": "mapping(uint256 => uint256)",
						"numberOfBytes": "32",
						"value": "t_uint256"
					},
					"t_uint256": {
						"encoding": "inplace",
						"label": "uint256",
						"numberOfBytes": "32"
					}
				}
			},
			"userdoc": {
				"kind": "user",
				"methods": {},
				"version": 1
			}
		}
	}
}